8=FIX.4.4|9=75|35=A|34=1|49=GENERATOR|52=20250713-01:34:35.568|56=ACCUMULATOR|98=0|108=30|10=240|8=FIX.4.4|9=75|35=A|34=2|49=GENERATOR|52=20250713-01:35:53.850|56=ACCUMULATOR|98=0|108=30|10=236|8=FIX.4.4|9=72|35=2|34=3|49=GENERATOR|52=20250713-01:36:00.912|56=ACCUMULATOR|7=1|16=0|10=053|8=FIX.4.4|9=159|35=D|34=4|49=GENERATOR|52=20250713-01:36:25.226|56=ACCUMULATOR|11=89aeca2f-a594-4d06-b6bb-85d75386ca5a|38=1|40=2|44=5.5|54=1|55=VALE3|60=20250712-22:36:21.022|10=021|8=FIX.4.4|9=72|35=1|34=5|49=GENERATOR|52=20250713-01:36:40.681|56=ACCUMULATOR|112=TEST|10=212|8=FIX.4.4|9=63|35=0|34=6|49=GENERATOR|52=20250713-01:37:10.786|56=ACCUMULATOR|10=198|8=FIX.4.4|9=63|35=0|34=7|49=GENERATOR|52=20250713-01:37:41.029|56=ACCUMULATOR|10=193|8=FIX.4.4|9=63|35=0|34=8|49=GENERATOR|52=20250713-01:38:11.263|56=ACCUMULATOR|10=192|8=FIX.4.4|9=63|35=0|34=9|49=GENERATOR|52=20250713-01:38:41.524|56=ACCUMULATOR|10=196|8=FIX.4.4|9=64|35=0|34=10|49=GENERATOR|52=20250713-01:39:11.811|56=ACCUMULATOR|10=234|8=FIX.4.4|9=64|35=0|34=11|49=GENERATOR|52=20250713-01:39:42.092|56=ACCUMULATOR|10=240|8=FIX.4.4|9=64|35=0|34=12|49=GENERATOR|52=20250713-01:40:12.294|56=ACCUMULATOR|10=234|8=FIX.4.4|9=76|35=A|34=13|49=GENERATOR|52=20250713-02:04:47.723|56=ACCUMULATOR|98=0|108=30|10=030|8=FIX.4.4|9=159|35=D|34=14|49=GENERATOR|52=20250713-02:04:58.940|56=ACCUMULATOR|11=4f4a6294-6f4e-4d99-907b-9e9388ece1f4|38=0|40=2|44=0|54=2|55=string|60=20250712-23:04:56.320|10=179|8=FIX.4.4|9=73|35=1|34=15|49=GENERATOR|52=20250713-02:05:28.750|56=ACCUMULATOR|112=TEST|10=006|8=FIX.4.4|9=76|35=A|34=16|49=GENERATOR|52=20250713-02:21:15.929|56=ACCUMULATOR|98=0|108=30|10=035|8=FIX.4.4|9=76|35=A|34=17|49=GENERATOR|52=20250713-02:22:34.579|56=ACCUMULATOR|98=0|108=30|10=039|8=FIX.4.4|9=76|35=A|34=18|49=GENERATOR|52=20250713-02:23:24.405|56=ACCUMULATOR|98=0|108=30|10=028|