8=FIX.4.4|9=75|35=A|34=1|49=GENERATOR|52=20250714-21:41:50.906|56=ACCUMULATOR|98=0|108=30|10=234|8=FIX.4.4|9=63|35=0|34=2|49=GENERATOR|52=20250714-21:42:21.256|56=ACCUMULATOR|10=187|8=FIX.4.4|9=162|35=D|34=3|49=GENERATOR|52=20250714-21:42:29.150|56=ACCUMULATOR|11=47f3d047-b22e-421c-95b6-de2db8206508|38=10000|40=2|44=20|54=1|55=PETR4|60=20250714-21:42:29.148|10=239|8=FIX.4.4|9=162|35=D|34=4|49=GENERATOR|52=20250714-21:42:29.167|56=ACCUMULATOR|11=47f3d047-b22e-421c-95b6-de2db8206508|38=10000|40=2|44=20|54=1|55=PETR4|60=20250714-21:42:29.148|10=248|8=FIX.4.4|9=75|35=A|34=5|49=GENERATOR|52=20250714-21:47:26.949|56=ACCUMULATOR|98=0|108=30|10=254|8=FIX.4.4|9=162|35=D|34=6|49=GENERATOR|52=20250714-21:47:53.487|56=ACCUMULATOR|11=48258895-9b5d-4d18-8773-2872908e9a7f|38=1000|40=2|44=5.5|54=1|55=VALE3|60=20250714-21:47:53.479|10=111|8=FIX.4.4|9=63|35=0|34=7|49=GENERATOR|52=20250714-21:48:23.731|56=ACCUMULATOR|10=198|8=FIX.4.4|9=63|35=0|34=8|49=GENERATOR|52=20250714-21:48:53.942|56=ACCUMULATOR|10=206|8=FIX.4.4|9=162|35=D|34=9|49=GENERATOR|52=20250714-21:49:01.825|56=ACCUMULATOR|11=8d289307-bfc5-4d53-9667-12f2a64c965b|38=1000|40=2|44=5.5|54=1|55=teste|60=20250714-21:49:01.825|10=158|8=FIX.4.4|9=64|35=0|34=10|49=GENERATOR|52=20250714-21:49:32.057|56=ACCUMULATOR|10=243|8=FIX.4.4|9=64|35=0|34=11|49=GENERATOR|52=20250714-21:50:02.263|56=ACCUMULATOR|10=232|8=FIX.4.4|9=64|35=0|34=12|49=GENERATOR|52=20250714-21:50:32.543|56=ACCUMULATOR|10=237|8=FIX.4.4|9=64|35=0|34=13|49=GENERATOR|52=20250714-21:51:02.790|56=ACCUMULATOR|10=240|8=FIX.4.4|9=64|35=0|34=14|49=GENERATOR|52=20250714-21:51:33.077|56=ACCUMULATOR|10=243|