8=FIX.4.4|9=75|35=A|34=1|49=GENERATOR|52=20250713-01:34:35.568|56=ACCUMULATOR|98=0|108=30|10=240|8=FIX.4.4|9=75|35=A|34=2|49=GENERATOR|52=20250713-01:35:53.850|56=ACCUMULATOR|98=0|108=30|10=236|8=FIX.4.4|9=72|35=2|34=3|49=GENERATOR|52=20250713-01:36:00.912|56=ACCUMULATOR|7=1|16=0|10=053|8=FIX.4.4|9=159|35=D|34=4|49=GENERATOR|52=20250713-01:36:25.226|56=ACCUMULATOR|11=89aeca2f-a594-4d06-b6bb-85d75386ca5a|38=1|40=2|44=5.5|54=1|55=VALE3|60=20250712-22:36:21.022|10=021|8=FIX.4.4|9=72|35=1|34=5|49=GENERATOR|52=20250713-01:36:40.681|56=ACCUMULATOR|112=TEST|10=212|8=FIX.4.4|9=63|35=0|34=6|49=GENERATOR|52=20250713-01:37:10.786|56=ACCUMULATOR|10=198|8=FIX.4.4|9=63|35=0|34=7|49=GENERATOR|52=20250713-01:37:41.029|56=ACCUMULATOR|10=193|8=FIX.4.4|9=63|35=0|34=8|49=GENERATOR|52=20250713-01:38:11.263|56=ACCUMULATOR|10=192|8=FIX.4.4|9=63|35=0|34=9|49=GENERATOR|52=20250713-01:38:41.524|56=ACCUMULATOR|10=196|8=FIX.4.4|9=64|35=0|34=10|49=GENERATOR|52=20250713-01:39:11.811|56=ACCUMULATOR|10=234|8=FIX.4.4|9=64|35=0|34=11|49=GENERATOR|52=20250713-01:39:42.092|56=ACCUMULATOR|10=240|8=FIX.4.4|9=64|35=0|34=12|49=GENERATOR|52=20250713-01:40:12.294|56=ACCUMULATOR|10=234|8=FIX.4.4|9=76|35=A|34=13|49=GENERATOR|52=20250713-02:04:47.723|56=ACCUMULATOR|98=0|108=30|10=030|8=FIX.4.4|9=159|35=D|34=14|49=GENERATOR|52=20250713-02:04:58.940|56=ACCUMULATOR|11=4f4a6294-6f4e-4d99-907b-9e9388ece1f4|38=0|40=2|44=0|54=2|55=string|60=20250712-23:04:56.320|10=179|8=FIX.4.4|9=73|35=1|34=15|49=GENERATOR|52=20250713-02:05:28.750|56=ACCUMULATOR|112=TEST|10=006|8=FIX.4.4|9=76|35=A|34=16|49=GENERATOR|52=20250713-02:21:15.929|56=ACCUMULATOR|98=0|108=30|10=035|8=FIX.4.4|9=76|35=A|34=17|49=GENERATOR|52=20250713-02:22:34.579|56=ACCUMULATOR|98=0|108=30|10=039|8=FIX.4.4|9=76|35=A|34=18|49=GENERATOR|52=20250713-02:23:24.405|56=ACCUMULATOR|98=0|108=30|10=028|8=FIX.4.4|9=76|35=A|34=19|49=GENERATOR|52=20250713-03:51:43.723|56=ACCUMULATOR|98=0|108=30|10=035|8=FIX.4.4|9=114|35=5|34=20|49=GENERATOR|52=20250713-03:51:44.571|56=ACCUMULATOR|58=MsgSeqNum too low, expecting 19 but received 1|10=240|8=FIX.4.4|9=76|35=A|34=21|49=GENERATOR|52=20250713-03:51:48.374|56=ACCUMULATOR|98=0|108=30|10=035|8=FIX.4.4|9=114|35=5|34=22|49=GENERATOR|52=20250713-03:51:48.411|56=ACCUMULATOR|58=MsgSeqNum too low, expecting 19 but received 4|10=242|8=FIX.4.4|9=76|35=A|34=23|49=GENERATOR|52=20250713-03:51:53.755|56=ACCUMULATOR|98=0|108=30|10=036|8=FIX.4.4|9=114|35=5|34=24|49=GENERATOR|52=20250713-03:51:53.764|56=ACCUMULATOR|58=MsgSeqNum too low, expecting 19 but received 7|10=254|8=FIX.4.4|9=76|35=A|34=25|49=GENERATOR|52=20250713-03:51:58.789|56=ACCUMULATOR|98=0|108=30|10=050|8=FIX.4.4|9=115|35=5|34=26|49=GENERATOR|52=20250713-03:51:58.796|56=ACCUMULATOR|58=MsgSeqNum too low, expecting 19 but received 10|10=053|8=FIX.4.4|9=76|35=A|34=27|49=GENERATOR|52=20250713-03:52:03.822|56=ACCUMULATOR|98=0|108=30|10=031|8=FIX.4.4|9=115|35=5|34=28|49=GENERATOR|52=20250713-03:52:03.826|56=ACCUMULATOR|58=MsgSeqNum too low, expecting 19 but received 13|10=043|8=FIX.4.4|9=76|35=A|34=29|49=GENERATOR|52=20250713-03:52:11.224|56=ACCUMULATOR|98=0|108=30|10=028|8=FIX.4.4|9=115|35=5|34=30|49=GENERATOR|52=20250713-03:52:11.228|56=ACCUMULATOR|58=MsgSeqNum too low, expecting 19 but received 16|10=034|8=FIX.4.4|9=160|35=D|34=31|49=GENERATOR|52=20250713-03:52:13.839|56=ACCUMULATOR|11=a5f7c4d0-415a-4eb6-aa87-b0e49b2ac025|38=3|40=2|44=5.5|54=1|55=VALE3|60=20250713-00:52:11.221|10=039|8=FIX.4.4|9=76|35=A|34=32|49=GENERATOR|52=20250713-03:53:00.217|56=ACCUMULATOR|98=0|108=30|10=023|8=FIX.4.4|9=64|35=0|34=33|49=GENERATOR|52=20250713-03:53:32.566|56=ACCUMULATOR|10=247|8=FIX.4.4|9=64|35=0|34=34|49=GENERATOR|52=20250713-03:54:03.432|56=ACCUMULATOR|10=239|8=FIX.4.4|9=64|35=0|34=35|49=GENERATOR|52=20250713-03:54:33.713|56=ACCUMULATOR|10=245|8=FIX.4.4|9=64|35=0|34=36|49=GENERATOR|52=20250713-03:55:04.048|56=ACCUMULATOR|10=246|8=FIX.4.4|9=64|35=0|34=37|49=GENERATOR|52=20250713-03:55:34.275|56=ACCUMULATOR|10=252|8=FIX.4.4|9=64|35=0|34=38|49=GENERATOR|52=20250713-03:56:04.528|56=ACCUMULATOR|10=252|8=FIX.4.4|9=64|35=0|34=39|49=GENERATOR|52=20250713-03:56:34.763|56=ACCUMULATOR|10=001|8=FIX.4.4|9=64|35=0|34=40|49=GENERATOR|52=20250713-03:57:05.015|56=ACCUMULATOR|10=238|8=FIX.4.4|9=64|35=0|34=41|49=GENERATOR|52=20250713-03:57:35.265|56=ACCUMULATOR|10=249|8=FIX.4.4|9=64|35=0|34=42|49=GENERATOR|52=20250713-03:58:05.495|56=ACCUMULATOR|10=253|8=FIX.4.4|9=64|35=0|34=43|49=GENERATOR|52=20250713-03:58:35.687|56=ACCUMULATOR|10=004|8=FIX.4.4|9=64|35=0|34=44|49=GENERATOR|52=20250713-03:59:05.898|56=ACCUMULATOR|10=007|8=FIX.4.4|9=64|35=0|34=45|49=GENERATOR|52=20250713-03:59:36.142|56=ACCUMULATOR|10=250|8=FIX.4.4|9=64|35=0|34=46|49=GENERATOR|52=20250713-04:00:06.364|56=ACCUMULATOR|10=241|8=FIX.4.4|9=76|35=A|34=47|49=GENERATOR|52=20250713-04:14:25.220|56=ACCUMULATOR|98=0|108=30|10=028|8=FIX.4.4|9=64|35=0|34=48|49=GENERATOR|52=20250713-04:14:55.367|56=ACCUMULATOR|10=255|8=FIX.4.4|9=165|35=D|34=49|49=GENERATOR|52=20250713-04:15:18.978|56=ACCUMULATOR|11=6905c012-8274-4e32-99c5-21ef0448c503|38=900000|40=2|44=100|54=1|55=VALE3|60=20250713-01:15:15.407|10=201|8=FIX.4.4|9=64|35=0|34=50|49=GENERATOR|52=20250713-04:15:49.183|56=ACCUMULATOR|10=248|8=FIX.4.4|9=165|35=D|34=51|49=GENERATOR|52=20250713-04:16:15.979|56=ACCUMULATOR|11=e1d1f4c9-d8a7-4a35-ac98-1b627537cc18|38=200000|40=2|44=100|54=1|55=VALE3|60=20250713-01:16:15.979|10=240|8=FIX.4.4|9=64|35=0|34=52|49=GENERATOR|52=20250713-04:16:46.212|56=ACCUMULATOR|10=241|8=FIX.4.4|9=165|35=D|34=53|49=GENERATOR|52=20250713-04:16:50.819|56=ACCUMULATOR|11=c854fa7f-e11f-4ce9-a3b3-5f956b1eed6e|38=200000|40=2|44=100|54=1|55=VALE3|60=20250713-01:16:50.818|10=168|8=FIX.4.4|9=73|35=1|34=54|49=GENERATOR|52=20250713-04:17:38.812|56=ACCUMULATOR|112=TEST|10=014|8=FIX.4.4|9=73|35=0|34=55|49=GENERATOR|52=20250713-04:17:47.936|56=ACCUMULATOR|112=TEST|10=021|8=FIX.4.4|9=64|35=0|34=56|49=GENERATOR|52=20250713-04:18:18.132|56=ACCUMULATOR|10=247|8=FIX.4.4|9=64|35=0|34=57|49=GENERATOR|52=20250713-04:18:48.408|56=ACCUMULATOR|10=001|8=FIX.4.4|9=64|35=0|34=58|49=GENERATOR|52=20250713-04:19:18.599|56=ACCUMULATOR|10=011|8=FIX.4.4|9=64|35=0|34=59|49=GENERATOR|52=20250713-04:19:48.813|56=ACCUMULATOR|10=004|8=FIX.4.4|9=165|35=D|34=60|49=GENERATOR|52=20250713-04:19:51.317|56=ACCUMULATOR|11=940705e9-99ca-4632-b745-d98944a48f18|38=300000|40=2|44=500|54=1|55=VALE3|60=20250713-01:19:51.317|10=008|8=FIX.4.4|9=165|35=D|34=61|49=GENERATOR|52=20250713-04:20:16.004|56=ACCUMULATOR|11=e8feea27-c211-4960-bc13-8cb598e087da|38=300000|40=2|44=500|54=1|55=VALE3|60=20250713-01:20:16.004|10=243|8=FIX.4.4|9=76|35=A|34=62|49=GENERATOR|52=20250713-12:54:39.614|56=ACCUMULATOR|98=0|108=30|10=040|8=FIX.4.4|9=114|35=5|34=63|49=GENERATOR|52=20250713-12:54:40.141|56=ACCUMULATOR|58=MsgSeqNum too low, expecting 51 but received 1|10=235|8=FIX.4.4|9=76|35=A|34=64|49=GENERATOR|52=20250713-12:54:44.346|56=ACCUMULATOR|98=0|108=30|10=040|8=FIX.4.4|9=114|35=5|34=65|49=GENERATOR|52=20250713-12:54:44.352|56=ACCUMULATOR|58=MsgSeqNum too low, expecting 51 but received 4|10=248|8=FIX.4.4|9=76|35=A|34=66|49=GENERATOR|52=20250713-12:54:49.395|56=ACCUMULATOR|98=0|108=30|10=051|8=FIX.4.4|9=114|35=5|34=67|49=GENERATOR|52=20250713-12:54:49.415|56=ACCUMULATOR|58=MsgSeqNum too low, expecting 51 but received 7|10=002|8=FIX.4.4|9=76|35=A|34=68|49=GENERATOR|52=20250713-12:54:54.438|56=ACCUMULATOR|98=0|108=30|10=047|8=FIX.4.4|9=114|35=5|34=69|49=GENERATOR|52=20250713-12:54:54.444|56=ACCUMULATOR|58=MsgSeqNum too low, expecting 51 but received 9|10=004|8=FIX.4.4|9=76|35=A|34=70|49=GENERATOR|52=20250713-12:54:59.462|56=ACCUMULATOR|98=0|108=30|10=042|8=FIX.4.4|9=115|35=5|34=71|49=GENERATOR|52=20250713-12:54:59.467|56=ACCUMULATOR|58=MsgSeqNum too low, expecting 51 but received 12|10=050|8=FIX.4.4|9=76|35=A|34=72|49=GENERATOR|52=20250713-12:55:04.497|56=ACCUMULATOR|98=0|108=30|10=043|8=FIX.4.4|9=115|35=5|34=73|49=GENERATOR|52=20250713-12:55:04.503|56=ACCUMULATOR|58=MsgSeqNum too low, expecting 51 but received 15|10=037|8=FIX.4.4|9=76|35=A|34=74|49=GENERATOR|52=20250713-12:55:09.539|56=ACCUMULATOR|98=0|108=30|10=047|8=FIX.4.4|9=115|35=5|34=75|49=GENERATOR|52=20250713-12:55:09.544|56=ACCUMULATOR|58=MsgSeqNum too low, expecting 51 but received 18|10=052|8=FIX.4.4|9=148|35=D|34=76|49=GENERATOR|52=20250713-12:55:13.288|56=ACCUMULATOR|11=8acbc973-389c-4869-a62f-dbe7f0ca0baa|40=2|54=1|55=VIIA4|60=20250713-09:55:13.281|10=170|8=FIX.4.4|9=76|35=A|34=77|49=GENERATOR|52=20250713-12:55:14.581|56=ACCUMULATOR|98=0|108=30|10=043|8=FIX.4.4|9=115|35=5|34=78|49=GENERATOR|52=20250713-12:55:14.584|56=ACCUMULATOR|58=MsgSeqNum too low, expecting 51 but received 21|10=049|8=FIX.4.4|9=76|35=A|34=79|49=GENERATOR|52=20250713-12:55:19.620|56=ACCUMULATOR|98=0|108=30|10=044|8=FIX.4.4|9=115|35=5|34=80|49=GENERATOR|52=20250713-12:55:19.624|56=ACCUMULATOR|58=MsgSeqNum too low, expecting 51 but received 24|10=045|8=FIX.4.4|9=76|35=A|34=81|49=GENERATOR|52=20250713-12:55:24.657|56=ACCUMULATOR|98=0|108=30|10=043|8=FIX.4.4|9=115|35=5|34=82|49=GENERATOR|52=20250713-12:55:24.665|56=ACCUMULATOR|58=MsgSeqNum too low, expecting 51 but received 27|10=051|8=FIX.4.4|9=76|35=A|34=83|49=GENERATOR|52=20250713-12:55:29.707|56=ACCUMULATOR|98=0|108=30|10=046|8=FIX.4.4|9=115|35=5|34=84|49=GENERATOR|52=20250713-12:55:29.719|56=ACCUMULATOR|58=MsgSeqNum too low, expecting 51 but received 30|10=052|8=FIX.4.4|9=76|35=A|34=85|49=GENERATOR|52=20250713-12:55:34.727|56=ACCUMULATOR|98=0|108=30|10=046|8=FIX.4.4|9=115|35=5|34=86|49=GENERATOR|52=20250713-12:55:34.733|56=ACCUMULATOR|58=MsgSeqNum too low, expecting 51 but received 33|10=049|8=FIX.4.4|9=76|35=A|34=87|49=GENERATOR|52=20250713-12:55:39.770|56=ACCUMULATOR|98=0|108=30|10=051|8=FIX.4.4|9=115|35=5|34=88|49=GENERATOR|52=20250713-12:55:39.775|56=ACCUMULATOR|58=MsgSeqNum too low, expecting 51 but received 36|10=065|8=FIX.4.4|9=76|35=A|34=89|49=GENERATOR|52=20250713-12:55:44.793|56=ACCUMULATOR|98=0|108=30|10=054|8=FIX.4.4|9=115|35=5|34=90|49=GENERATOR|52=20250713-12:55:44.799|56=ACCUMULATOR|58=MsgSeqNum too low, expecting 51 but received 39|10=063|8=FIX.4.4|9=76|35=A|34=91|49=GENERATOR|52=20250713-12:58:46.719|56=ACCUMULATOR|98=0|108=30|10=050|8=FIX.4.4|9=115|35=5|34=92|49=GENERATOR|52=20250713-12:58:47.344|56=ACCUMULATOR|58=MsgSeqNum too low, expecting 51 but received 42|10=051|8=FIX.4.4|9=76|35=A|34=93|49=GENERATOR|52=20250713-12:58:51.495|56=ACCUMULATOR|98=0|108=30|10=049|8=FIX.4.4|9=115|35=5|34=94|49=GENERATOR|52=20250713-12:58:51.505|56=ACCUMULATOR|58=MsgSeqNum too low, expecting 51 but received 45|10=050|8=FIX.4.4|9=76|35=A|34=95|49=GENERATOR|52=20250713-12:58:56.538|56=ACCUMULATOR|98=0|108=30|10=054|8=FIX.4.4|9=115|35=5|34=96|49=GENERATOR|52=20250713-12:58:56.556|56=ACCUMULATOR|58=MsgSeqNum too low, expecting 51 but received 48|10=066|8=FIX.4.4|9=76|35=A|34=97|49=GENERATOR|52=20250713-12:59:01.594|56=ACCUMULATOR|98=0|108=30|10=049|8=FIX.4.4|9=64|35=0|34=98|49=GENERATOR|52=20250713-12:59:32.074|56=ACCUMULATOR|10=002|8=FIX.4.4|9=76|35=A|34=99|49=GENERATOR|52=20250713-13:00:19.248|56=ACCUMULATOR|98=0|108=30|10=043|8=FIX.4.4|9=159|35=D|34=100|49=GENERATOR|52=20250713-13:00:39.573|56=ACCUMULATOR|11=34188e6d-211c-4340-aa00-03688a8a97f0|38=500000|40=2|54=1|55=VIIA4|60=20250713-10:00:39.560|10=255|8=FIX.4.4|9=65|35=0|34=101|49=GENERATOR|52=20250713-13:01:09.931|56=ACCUMULATOR|10=030|8=FIX.4.4|9=159|35=D|34=102|49=GENERATOR|52=20250713-13:01:31.380|56=ACCUMULATOR|11=36f2ec00-cb01-4a28-a8b5-23a9b9b874dc|38=500000|40=2|54=1|55=VIIA4|60=20250713-10:01:31.380|10=223|8=FIX.4.4|9=65|35=0|34=103|49=GENERATOR|52=20250713-13:02:01.601|56=ACCUMULATOR|10=019|8=FIX.4.4|9=65|35=0|34=104|49=GENERATOR|52=20250713-13:02:31.818|56=ACCUMULATOR|10=033|8=FIX.4.4|9=77|35=A|34=105|49=GENERATOR|52=20250713-13:02:53.897|56=ACCUMULATOR|98=0|108=30|10=090|8=FIX.4.4|9=65|35=0|34=106|49=GENERATOR|52=20250713-13:03:24.571|56=ACCUMULATOR|10=034|8=FIX.4.4|9=169|35=D|34=107|49=GENERATOR|52=20250713-13:03:34.806|56=ACCUMULATOR|11=41cdd59f-00f5-4a85-9397-159ba51e0cf3|38=500000|40=2|44=250.00|54=1|55=VIIA4|60=20250713-10:03:34.788|10=123|8=FIX.4.4|9=65|35=0|34=108|49=GENERATOR|52=20250713-13:04:05.105|56=ACCUMULATOR|10=029|8=FIX.4.4|9=65|35=0|34=109|49=GENERATOR|52=20250713-13:04:35.340|56=ACCUMULATOR|10=034|8=FIX.4.4|9=65|35=0|34=110|49=GENERATOR|52=20250713-13:05:05.552|56=ACCUMULATOR|10=029|8=FIX.4.4|9=77|35=A|34=111|49=GENERATOR|52=20250713-13:07:03.045|56=ACCUMULATOR|98=0|108=30|10=072|8=FIX.4.4|9=169|35=D|34=112|49=GENERATOR|52=20250713-13:07:19.211|56=ACCUMULATOR|11=983afd44-84b6-4775-afed-f711d3f01892|38=500000|40=2|44=250.00|54=1|55=VIIA4|60=20250713-10:07:19.205|10=119|8=FIX.4.4|9=74|35=1|34=113|49=GENERATOR|52=20250713-13:07:45.654|56=ACCUMULATOR|112=TEST|10=060|8=FIX.4.4|9=65|35=0|34=114|49=GENERATOR|52=20250713-13:08:16.221|56=ACCUMULATOR|10=031|8=FIX.4.4|9=74|35=0|34=115|49=GENERATOR|52=20250713-13:08:16.669|56=ACCUMULATOR|112=TEST|10=066|8=FIX.4.4|9=65|35=0|34=116|49=GENERATOR|52=20250713-13:08:47.170|56=ACCUMULATOR|10=040|8=FIX.4.4|9=77|35=A|34=117|49=GENERATOR|52=20250713-13:09:34.367|56=ACCUMULATOR|98=0|108=30|10=091|8=FIX.4.4|9=169|35=D|34=118|49=GENERATOR|52=20250713-13:09:48.434|56=ACCUMULATOR|11=2c9ef2fb-d2f0-4bf1-bc3e-002d72b58bf0|38=500000|40=2|44=250.00|54=1|55=VIIA4|60=20250713-10:09:48.427|10=095|8=FIX.4.4|9=65|35=0|34=119|49=GENERATOR|52=20250713-13:10:18.854|56=ACCUMULATOR|10=043|8=FIX.4.4|9=169|35=D|34=120|49=GENERATOR|52=20250713-13:10:26.105|56=ACCUMULATOR|11=3a3b7771-8527-40de-b819-ef6c2e80e738|38=500000|40=2|44=250.00|54=1|55=VIIA4|60=20250713-10:10:26.105|10=053|8=FIX.4.4|9=65|35=0|34=121|49=GENERATOR|52=20250713-13:10:56.719|56=ACCUMULATOR|10=038|8=FIX.4.4|9=77|35=A|34=122|49=GENERATOR|52=20250713-13:15:15.401|56=ACCUMULATOR|98=0|108=30|10=072|8=FIX.4.4|9=169|35=D|34=123|49=GENERATOR|52=20250713-13:15:27.952|56=ACCUMULATOR|11=68cd9ff9-9732-4110-92c0-e00ca4dd3bce|38=500000|40=2|44=250.00|54=1|55=VIIA4|60=20250713-10:15:27.947|10=218|8=FIX.4.4|9=65|35=0|34=124|49=GENERATOR|52=20250713-13:15:58.104|56=ACCUMULATOR|10=036|8=FIX.4.4|9=169|35=D|34=125|49=GENERATOR|52=20250713-13:16:13.481|56=ACCUMULATOR|11=1f3a6cf1-7e99-41d7-af15-52ad0b46188f|38=500000|40=2|44=250.00|54=1|55=VIIA4|60=20250713-10:16:13.481|10=161|8=FIX.4.4|9=65|35=0|34=126|49=GENERATOR|52=20250713-13:16:43.710|56=ACCUMULATOR|10=036|8=FIX.4.4|9=65|35=0|34=127|49=GENERATOR|52=20250713-13:17:13.901|56=ACCUMULATOR|10=037|8=FIX.4.4|9=77|35=A|34=128|49=GENERATOR|52=20250713-13:19:08.798|56=ACCUMULATOR|98=0|108=30|10=103|8=FIX.4.4|9=169|35=D|34=129|49=GENERATOR|52=20250713-13:19:19.051|56=ACCUMULATOR|11=cd5bbcaa-3d0d-4036-aac0-1fcf5c75abf2|38=500000|40=2|44=250.00|54=1|55=VIIA4|60=20250713-10:19:19.045|10=216|8=FIX.4.4|9=65|35=0|34=130|49=GENERATOR|52=20250713-13:19:49.188|56=ACCUMULATOR|10=049|8=FIX.4.4|9=65|35=0|34=131|49=GENERATOR|52=20250713-13:20:20.151|56=ACCUMULATOR|10=021|8=FIX.4.4|9=65|35=0|34=132|49=GENERATOR|52=20250713-13:20:50.255|56=ACCUMULATOR|10=030|8=FIX.4.4|9=169|35=D|34=133|49=GENERATOR|52=20250713-13:20:57.656|56=ACCUMULATOR|11=780ff355-711e-4f82-bf13-64660eecd5c0|38=500000|40=2|44=250.00|54=1|55=VIIA4|60=20250713-10:20:57.656|10=126|8=FIX.4.4|9=77|35=A|34=134|49=GENERATOR|52=20250713-13:24:32.984|56=ACCUMULATOR|98=0|108=30|10=090|8=FIX.4.4|9=65|35=0|34=135|49=GENERATOR|52=20250713-13:25:03.788|56=ACCUMULATOR|10=047|8=FIX.4.4|9=65|35=0|34=136|49=GENERATOR|52=20250713-13:25:34.019|56=ACCUMULATOR|10=039|8=FIX.4.4|9=65|35=0|34=137|49=GENERATOR|52=20250713-13:26:04.254|56=ACCUMULATOR|10=039|8=FIX.4.4|9=77|35=A|34=138|49=GENERATOR|52=20250713-13:26:33.643|56=ACCUMULATOR|98=0|108=30|10=089|8=FIX.4.4|9=169|35=D|34=139|49=GENERATOR|52=20250713-13:27:01.923|56=ACCUMULATOR|11=da4bdb73-7947-4053-b42a-9fa41c2dbfd8|38=500000|40=2|44=250.00|54=1|55=VIIA4|60=20250713-10:27:01.913|10=253|8=FIX.4.4|9=77|35=A|34=140|49=GENERATOR|52=20250713-13:27:49.914|56=ACCUMULATOR|98=0|108=30|10=091|8=FIX.4.4|9=169|35=D|34=141|49=GENERATOR|52=20250713-13:28:15.683|56=ACCUMULATOR|11=ba3ce4d1-df4b-4583-8333-b8a12a25b4ae|38=500000|40=2|44=250.00|54=1|55=VIIA4|60=20250713-10:28:15.661|10=246|8=FIX.4.4|9=65|35=0|34=142|49=GENERATOR|52=20250713-13:28:45.988|56=ACCUMULATOR|10=056|8=FIX.4.4|9=65|35=0|34=143|49=GENERATOR|52=20250713-13:29:16.266|56=ACCUMULATOR|10=045|8=FIX.4.4|9=65|35=0|34=144|49=GENERATOR|52=20250713-13:29:46.459|56=ACCUMULATOR|10=053|8=FIX.4.4|9=65|35=0|34=145|49=GENERATOR|52=20250713-13:30:16.673|56=ACCUMULATOR|10=041|8=FIX.4.4|9=65|35=0|34=146|49=GENERATOR|52=20250713-13:30:46.873|56=ACCUMULATOR|10=047|8=FIX.4.4|9=65|35=0|34=147|49=GENERATOR|52=20250713-13:31:17.098|56=ACCUMULATOR|10=046|8=FIX.4.4|9=77|35=A|34=148|49=GENERATOR|52=20250713-13:32:35.367|56=ACCUMULATOR|98=0|108=30|10=092|8=FIX.4.4|9=169|35=D|34=149|49=GENERATOR|52=20250713-13:32:49.497|56=ACCUMULATOR|11=8e0b8ca0-a43c-4940-8952-1836b7682c4f|38=500000|40=2|44=250.00|54=1|55=VIIA4|60=20250713-13:32:49.490|10=049|8=FIX.4.4|9=65|35=0|34=150|49=GENERATOR|52=20250713-13:33:19.724|56=ACCUMULATOR|10=040|8=FIX.4.4|9=65|35=0|34=151|49=GENERATOR|52=20250713-13:33:49.917|56=ACCUMULATOR|10=048|8=FIX.4.4|9=65|35=0|34=152|49=GENERATOR|52=20250713-13:34:20.119|56=ACCUMULATOR|10=033|8=FIX.4.4|9=77|35=A|34=153|49=GENERATOR|52=20250713-13:35:25.160|56=ACCUMULATOR|98=0|108=30|10=081|8=FIX.4.4|9=169|35=D|34=154|49=GENERATOR|52=20250713-13:35:48.238|56=ACCUMULATOR|11=6f90916a-71dc-42bc-83af-ac27f0589e53|38=500000|40=2|44=250.00|54=1|55=VIIA4|60=20250713-13:35:48.228|10=186|8=FIX.4.4|9=65|35=0|34=155|49=GENERATOR|52=20250713-13:36:18.528|56=ACCUMULATOR|10=049|8=FIX.4.4|9=163|35=D|34=156|49=GENERATOR|52=20250713-13:36:41.437|56=ACCUMULATOR|11=7981dffd-d625-4609-8e0c-6c1c70b3baa9|38=1000|40=2|44=50|54=1|55=VALE3|60=20250713-13:36:41.437|10=182|8=FIX.4.4|9=65|35=0|34=157|49=GENERATOR|52=20250713-13:37:11.668|56=ACCUMULATOR|10=050|8=FIX.4.4|9=65|35=0|34=158|49=GENERATOR|52=20250713-13:37:41.869|56=ACCUMULATOR|10=057|8=FIX.4.4|9=77|35=A|34=159|49=GENERATOR|52=20250713-13:38:16.870|56=ACCUMULATOR|98=0|108=30|10=098|8=FIX.4.4|9=163|35=D|34=160|49=GENERATOR|52=20250713-13:38:32.075|56=ACCUMULATOR|11=3cc36d13-44f1-4f57-8878-c2db6a5e7e1f|38=1000|40=2|44=50|54=1|55=VALE3|60=20250713-13:38:32.068|10=137|8=FIX.4.4|9=65|35=0|34=161|49=GENERATOR|52=20250713-13:39:02.373|56=ACCUMULATOR|10=040|8=FIX.4.4|9=163|35=D|34=162|49=GENERATOR|52=20250713-13:39:16.974|56=ACCUMULATOR|11=e9590ce1-1fa3-4e7e-bc41-711a4cd9ceca|38=1000|40=2|44=50|54=1|55=VALE3|60=20250713-13:39:16.974|10=075|8=FIX.4.4|9=65|35=0|34=163|49=GENERATOR|52=20250713-13:39:47.200|56=ACCUMULATOR|10=040|8=FIX.4.4|9=163|35=D|34=164|49=GENERATOR|52=20250713-13:39:53.887|56=ACCUMULATOR|11=c197b5cf-939e-4310-a02e-e2182431685a|38=1000|40=2|44=50|54=1|55=VALE3|60=20250713-13:39:53.887|10=008|8=FIX.4.4|9=163|35=D|34=165|49=GENERATOR|52=20250713-13:40:14.351|56=ACCUMULATOR|11=f5b02d8c-ca49-4ca9-bc13-f28c810b9442|38=1000|40=2|44=50|54=1|55=VALE3|60=20250713-13:40:10.827|10=153|8=FIX.4.4|9=77|35=A|34=166|49=GENERATOR|52=20250713-13:48:11.722|56=ACCUMULATOR|98=0|108=30|10=088|8=FIX.4.4|9=74|35=1|34=167|49=GENERATOR|52=20250713-13:48:48.473|56=ACCUMULATOR|112=TEST|10=076|8=FIX.4.4|9=163|35=D|34=168|49=GENERATOR|52=20250713-13:48:48.481|56=ACCUMULATOR|11=cde9f9af-35d9-4f0a-a061-fdcb7381ddca|38=1000|40=2|44=50|54=1|55=VALE3|60=20250713-13:48:25.333|10=172|8=FIX.4.4|9=74|35=0|34=169|49=GENERATOR|52=20250713-13:48:48.481|56=ACCUMULATOR|112=TEST|10=076|8=FIX.4.4|9=65|35=0|34=170|49=GENERATOR|52=20250713-13:49:18.724|56=ACCUMULATOR|10=048|8=FIX.4.4|9=77|35=A|34=171|49=GENERATOR|52=20250713-16:07:11.730|56=ACCUMULATOR|98=0|108=30|10=081|8=FIX.4.4|9=65|35=0|34=172|49=GENERATOR|52=20250713-16:07:42.332|56=ACCUMULATOR|10=039|8=FIX.4.4|9=163|35=D|34=173|49=GENERATOR|52=20250713-16:07:51.520|56=ACCUMULATOR|11=b7421977-2174-4bd8-bec9-aee653359607|38=1000|40=2|44=50|54=1|55=VALE3|60=20250713-16:07:51.495|10=000|8=FIX.4.4|9=65|35=0|34=174|49=GENERATOR|52=20250713-16:08:21.608|56=ACCUMULATOR|10=045|8=FIX.4.4|9=163|35=D|34=175|49=GENERATOR|52=20250713-16:08:38.096|56=ACCUMULATOR|11=cc627436-89b3-48cc-97fc-a41f40a9c152|38=1000|40=2|44=50|54=1|55=VALE3|60=20250713-16:08:38.096|10=106|8=FIX.4.4|9=74|35=1|34=176|49=GENERATOR|52=20250713-16:09:43.598|56=ACCUMULATOR|112=TEST|10=079|8=FIX.4.4|9=74|35=0|34=177|49=GENERATOR|52=20250713-16:09:43.607|56=ACCUMULATOR|112=TEST|10=070|8=FIX.4.4|9=163|35=D|34=178|49=GENERATOR|52=20250713-16:10:02.548|56=ACCUMULATOR|11=ebc2c12d-f8f5-4bbc-bc11-90207c09ed1a|38=1000|40=2|44=50|54=1|55=VALE3|60=20250713-16:10:02.548|10=035|8=FIX.4.4|9=74|35=1|34=179|49=GENERATOR|52=20250713-16:10:27.533|56=ACCUMULATOR|112=TEST|10=065|8=FIX.4.4|9=77|35=A|34=180|49=GENERATOR|52=20250713-16:13:14.211|56=ACCUMULATOR|98=0|108=30|10=075|8=FIX.4.4|9=76|35=2|34=181|49=GENERATOR|52=20250713-16:13:14.224|56=ACCUMULATOR|7=137|16=0|10=012|8=FIX.4.4|9=65|35=0|34=182|49=GENERATOR|52=20250713-16:13:44.490|56=ACCUMULATOR|10=044|8=FIX.4.4|9=65|35=0|34=183|49=GENERATOR|52=20250713-16:14:14.722|56=ACCUMULATOR|10=041|8=FIX.4.4|9=65|35=0|34=184|49=GENERATOR|52=20250713-16:14:44.923|56=ACCUMULATOR|10=048|8=FIX.4.4|9=77|35=A|34=185|49=GENERATOR|52=20250713-16:15:26.054|56=ACCUMULATOR|98=0|108=30|10=090|8=FIX.4.4|9=163|35=D|34=186|49=GENERATOR|52=20250713-16:15:49.014|56=ACCUMULATOR|11=7953b268-f70f-420c-ae30-d8d11191f074|38=1000|40=2|44=50|54=1|55=VALE3|60=20250713-16:15:48.998|10=001|8=FIX.4.4|9=65|35=0|34=187|49=GENERATOR|52=20250713-16:16:19.895|56=ACCUMULATOR|10=063|8=FIX.4.4|9=65|35=0|34=188|49=GENERATOR|52=20250713-16:16:50.122|56=ACCUMULATOR|10=042|8=FIX.4.4|9=77|35=A|34=189|49=GENERATOR|52=20250713-16:17:35.621|56=ACCUMULATOR|98=0|108=30|10=096|8=FIX.4.4|9=65|35=0|34=190|49=GENERATOR|52=20250713-16:18:06.200|56=ACCUMULATOR|10=035|8=FIX.4.4|9=163|35=D|34=191|49=GENERATOR|52=20250713-16:18:06.383|56=ACCUMULATOR|11=2a21d997-b046-4f5c-b5f6-f982eef23d58|38=1000|40=2|44=50|54=1|55=VALE3|60=20250713-16:18:06.369|10=157|8=FIX.4.4|9=65|35=0|34=192|49=GENERATOR|52=20250713-16:18:36.662|56=ACCUMULATOR|10=052|8=FIX.4.4|9=65|35=0|34=193|49=GENERATOR|52=20250713-16:19:06.895|56=ACCUMULATOR|10=059|8=FIX.4.4|9=65|35=0|34=194|49=GENERATOR|52=20250713-16:19:37.063|56=ACCUMULATOR|10=051|8=FIX.4.4|9=163|35=D|34=195|49=GENERATOR|52=20250713-16:19:40.397|56=ACCUMULATOR|11=f2d3a68d-8404-4f61-904d-ebb375d6b8e6|38=1000|40=2|44=50|54=1|55=VALE3|60=20250713-16:19:40.397|10=157|8=FIX.4.4|9=65|35=0|34=196|49=GENERATOR|52=20250713-16:20:12.657|56=ACCUMULATOR|10=047|8=FIX.4.4|9=77|35=A|34=197|49=GENERATOR|52=20250713-16:21:52.401|56=ACCUMULATOR|98=0|108=30|10=085|8=FIX.4.4|9=163|35=D|34=198|49=GENERATOR|52=20250713-16:22:02.732|56=ACCUMULATOR|11=d74374f9-2e98-406b-b664-a4b6d13a0081|38=1000|40=2|44=50|54=1|55=VALE3|60=20250713-16:22:02.724|10=233|8=FIX.4.4|9=74|35=1|34=199|49=GENERATOR|52=20250713-16:23:23.475|56=ACCUMULATOR|112=TEST|10=072|8=FIX.4.4|9=74|35=0|34=200|49=GENERATOR|52=20250713-16:23:23.479|56=ACCUMULATOR|112=TEST|10=058|8=FIX.4.4|9=65|35=0|34=201|49=GENERATOR|52=20250713-16:23:53.725|56=ACCUMULATOR|10=038|8=FIX.4.4|9=74|35=1|34=202|49=GENERATOR|52=20250713-16:23:59.790|56=ACCUMULATOR|112=TEST|10=066|8=FIX.4.4|9=77|35=A|34=203|49=GENERATOR|52=20250713-16:25:46.064|56=ACCUMULATOR|98=0|108=30|10=085|8=FIX.4.4|9=76|35=2|34=204|49=GENERATOR|52=20250713-16:25:46.632|56=ACCUMULATOR|7=156|16=0|10=020|8=FIX.4.4|9=163|35=D|34=205|49=GENERATOR|52=20250713-16:25:59.058|56=ACCUMULATOR|11=0d8f6374-95e9-4738-8687-8413523604ff|38=1000|40=2|44=50|54=1|55=VALE3|60=20250713-16:25:59.052|10=091|8=FIX.4.4|9=65|35=0|34=206|49=GENERATOR|52=20250713-16:26:29.763|56=ACCUMULATOR|10=051|8=FIX.4.4|9=65|35=0|34=207|49=GENERATOR|52=20250713-16:27:00.005|56=ACCUMULATOR|10=031|8=FIX.4.4|9=65|35=0|34=208|49=GENERATOR|52=20250713-16:27:30.223|56=ACCUMULATOR|10=037|8=FIX.4.4|9=77|35=A|34=209|49=GENERATOR|52=20250713-16:32:54.752|56=ACCUMULATOR|98=0|108=30|10=092|8=FIX.4.4|9=163|35=D|34=210|49=GENERATOR|52=20250713-16:33:12.502|56=ACCUMULATOR|11=41b88540-3435-4a51-9704-36ae3ad90d9a|38=1000|40=2|44=50|54=1|55=VALE3|60=20250713-16:33:12.487|10=172|8=FIX.4.4|9=65|35=0|34=211|49=GENERATOR|52=20250713-16:33:43.253|56=ACCUMULATOR|10=035|8=FIX.4.4|9=65|35=0|34=212|49=GENERATOR|52=20250713-16:34:13.498|56=ACCUMULATOR|10=045|8=FIX.4.4|9=65|35=0|34=213|49=GENERATOR|52=20250713-16:34:43.652|56=ACCUMULATOR|10=041|8=FIX.4.4|9=65|35=0|34=214|49=GENERATOR|52=20250713-16:35:13.870|56=ACCUMULATOR|10=042|8=FIX.4.4|9=65|35=0|34=215|49=GENERATOR|52=20250713-16:35:44.072|56=ACCUMULATOR|10=041|8=FIX.4.4|9=77|35=A|34=216|49=GENERATOR|52=20250713-16:36:27.253|56=ACCUMULATOR|98=0|108=30|10=090|8=FIX.4.4|9=163|35=D|34=217|49=GENERATOR|52=20250713-16:36:39.839|56=ACCUMULATOR|11=6e8853bc-8871-4535-aa06-26d15179502d|38=1000|40=2|44=50|54=1|55=VALE3|60=20250713-16:36:39.833|10=174|8=FIX.4.4|9=65|35=0|34=218|49=GENERATOR|52=20250713-16:37:10.145|56=ACCUMULATOR|10=040|8=FIX.4.4|9=65|35=0|34=219|49=GENERATOR|52=20250713-16:37:40.323|56=ACCUMULATOR|10=042|8=FIX.4.4|9=77|35=A|34=220|49=GENERATOR|52=20250713-16:39:51.347|56=ACCUMULATOR|98=0|108=30|10=089|8=FIX.4.4|9=77|35=A|34=221|49=GENERATOR|52=20250713-18:32:22.603|56=ACCUMULATOR|98=0|108=30|10=078|8=FIX.4.4|9=163|35=D|34=222|49=GENERATOR|52=20250713-18:32:48.840|56=ACCUMULATOR|11=2432a541-54a7-46c5-a839-ea0bf90669c8|38=1000|40=2|44=50|54=1|55=VALE3|60=20250713-18:32:48.827|10=255|8=FIX.4.4|9=65|35=0|34=223|49=GENERATOR|52=20250713-18:33:19.121|56=ACCUMULATOR|10=037|8=FIX.4.4|9=65|35=0|34=224|49=GENERATOR|52=20250713-18:33:49.353|56=ACCUMULATOR|10=048|8=FIX.4.4|9=65|35=0|34=225|49=GENERATOR|52=20250713-18:34:19.554|56=ACCUMULATOR|10=050|8=FIX.4.4|9=65|35=0|34=226|49=GENERATOR|52=20250713-18:34:49.820|56=ACCUMULATOR|10=050|8=FIX.4.4|9=77|35=A|34=227|49=GENERATOR|52=20250713-18:35:21.913|56=ACCUMULATOR|98=0|108=30|10=090|8=FIX.4.4|9=65|35=0|34=228|49=GENERATOR|52=20250713-18:35:52.602|56=ACCUMULATOR|10=045|8=FIX.4.4|9=163|35=D|34=229|49=GENERATOR|52=20250713-18:36:00.805|56=ACCUMULATOR|11=303f4db7-13dd-4e5d-84f7-1fae04fcc3f2|38=1000|40=2|44=50|54=1|55=VALE3|60=20250713-18:36:00.787|10=019|8=FIX.4.4|9=163|35=D|34=230|49=GENERATOR|52=20250713-18:36:10.825|56=ACCUMULATOR|11=303f4db7-13dd-4e5d-84f7-1fae04fcc3f2|38=1000|40=2|44=50|54=1|55=VALE3|60=20250713-18:36:00.787|10=014|8=FIX.4.4|9=65|35=0|34=231|49=GENERATOR|52=20250713-18:36:41.036|56=ACCUMULATOR|10=039|8=FIX.4.4|9=65|35=0|34=232|49=GENERATOR|52=20250713-18:37:11.239|56=ACCUMULATOR|10=043|8=FIX.4.4|9=65|35=0|34=233|49=GENERATOR|52=20250713-18:37:41.434|56=ACCUMULATOR|10=044|8=FIX.4.4|9=65|35=0|34=234|49=GENERATOR|52=20250713-18:38:11.648|56=ACCUMULATOR|10=050|8=FIX.4.4|9=163|35=D|34=235|49=GENERATOR|52=20250713-18:38:33.142|56=ACCUMULATOR|11=d1c77843-94e8-4fd5-934a-dd137da5f3d0|38=1000|40=2|44=50|54=1|55=VALE3|60=20250713-18:38:33.142|10=140|8=FIX.4.4|9=163|35=D|34=236|49=GENERATOR|52=20250713-18:38:43.160|56=ACCUMULATOR|11=d1c77843-94e8-4fd5-934a-dd137da5f3d0|38=1000|40=2|44=50|54=1|55=VALE3|60=20250713-18:38:33.142|10=142|8=FIX.4.4|9=65|35=0|34=237|49=GENERATOR|52=20250713-18:39:13.438|56=ACCUMULATOR|10=053|8=FIX.4.4|9=77|35=A|34=238|49=GENERATOR|52=20250713-18:39:35.126|56=ACCUMULATOR|98=0|108=30|10=097|8=FIX.4.4|9=65|35=0|34=239|49=GENERATOR|52=20250713-18:40:05.354|56=ACCUMULATOR|10=045|8=FIX.4.4|9=163|35=D|34=240|49=GENERATOR|52=20250713-18:40:06.283|56=ACCUMULATOR|11=06d3a3b9-2bd6-43c3-9c1d-76383b95c830|38=1000|40=2|44=50|54=1|55=VALE3|60=20250713-18:40:06.262|10=023|8=FIX.4.4|9=163|35=D|34=241|49=GENERATOR|52=20250713-18:40:16.301|56=ACCUMULATOR|11=06d3a3b9-2bd6-43c3-9c1d-76383b95c830|38=1000|40=2|44=50|54=1|55=VALE3|60=20250713-18:40:06.262|10=016|8=FIX.4.4|9=65|35=0|34=242|49=GENERATOR|52=20250713-18:40:46.547|56=ACCUMULATOR|10=048|8=FIX.4.4|9=65|35=0|34=243|49=GENERATOR|52=20250713-18:41:16.849|56=ACCUMULATOR|10=052|8=FIX.4.4|9=65|35=0|34=244|49=GENERATOR|52=20250713-18:41:47.054|56=ACCUMULATOR|10=045|8=FIX.4.4|9=65|35=0|34=245|49=GENERATOR|52=20250713-18:42:17.238|56=ACCUMULATOR|10=048|8=FIX.4.4|9=77|35=A|34=246|49=GENERATOR|52=20250713-18:48:30.449|56=ACCUMULATOR|98=0|108=30|10=099|8=FIX.4.4|9=163|35=D|34=247|49=GENERATOR|52=20250713-18:48:51.293|56=ACCUMULATOR|11=537a0b9c-b93e-4391-b545-5a73b9442396|38=1000|40=2|44=50|54=1|55=VALE3|60=20250713-18:48:51.272|10=216|8=FIX.4.4|9=163|35=D|34=248|49=GENERATOR|52=20250713-18:48:51.404|56=ACCUMULATOR|11=537a0b9c-b93e-4391-b545-5a73b9442396|38=1000|40=2|44=50|54=1|55=VALE3|60=20250713-18:48:51.272|10=211|8=FIX.4.4|9=65|35=0|34=249|49=GENERATOR|52=20250713-18:49:22.023|56=ACCUMULATOR|10=047|8=FIX.4.4|9=166|35=D|34=250|49=GENERATOR|52=20250713-18:49:45.020|56=ACCUMULATOR|11=5c27c590-157c-4deb-91cd-3db56a6d9e62|38=1200000|40=2|44=60|54=2|55=VALE3|60=20250713-18:49:45.020|10=074|8=FIX.4.4|9=166|35=D|34=251|49=GENERATOR|52=20250713-18:49:45.040|56=ACCUMULATOR|11=5c27c590-157c-4deb-91cd-3db56a6d9e62|38=1200000|40=2|44=60|54=2|55=VALE3|60=20250713-18:49:45.020|10=077|8=FIX.4.4|9=65|35=0|34=252|49=GENERATOR|52=20250713-18:50:15.332|56=ACCUMULATOR|10=038|8=FIX.4.4|9=170|35=D|34=253|49=GENERATOR|52=20250713-18:50:16.559|56=ACCUMULATOR|11=b67be466-0b86-4a47-ae2c-32435a2abb2a|38=2000000|40=2|44=100.00|54=1|55=ITUB4|60=20250713-18:50:16.559|10=000|8=FIX.4.4|9=170|35=D|34=254|49=GENERATOR|52=20250713-18:50:16.581|56=ACCUMULATOR|11=b67be466-0b86-4a47-ae2c-32435a2abb2a|38=2000000|40=2|44=100.00|54=1|55=ITUB4|60=20250713-18:50:16.559|10=252|8=FIX.4.4|9=65|35=0|34=255|49=GENERATOR|52=20250713-18:50:46.914|56=ACCUMULATOR|10=051|8=FIX.4.4|9=65|35=0|34=256|49=GENERATOR|52=20250713-18:51:17.153|56=ACCUMULATOR|10=046|8=FIX.4.4|9=65|35=0|34=257|49=GENERATOR|52=20250713-18:51:47.431|56=ACCUMULATOR|10=049|8=FIX.4.4|9=65|35=0|34=258|49=GENERATOR|52=20250713-18:52:17.675|56=ACCUMULATOR|10=058|8=FIX.4.4|9=65|35=0|34=259|49=GENERATOR|52=20250713-18:52:47.933|56=ACCUMULATOR|10=059|8=FIX.4.4|9=65|35=0|34=260|49=GENERATOR|52=20250713-18:53:18.191|56=ACCUMULATOR|10=046|8=FIX.4.4|9=65|35=0|34=261|49=GENERATOR|52=20250713-18:53:48.465|56=ACCUMULATOR|10=054|8=FIX.4.4|9=65|35=0|34=262|49=GENERATOR|52=20250713-18:54:18.709|56=ACCUMULATOR|10=054|8=FIX.4.4|9=65|35=0|34=263|49=GENERATOR|52=20250713-18:54:48.939|56=ACCUMULATOR|10=063|8=FIX.4.4|9=65|35=0|34=264|49=GENERATOR|52=20250713-18:55:19.185|56=ACCUMULATOR|10=056|8=FIX.4.4|9=65|35=0|34=265|49=GENERATOR|52=20250713-18:55:49.465|56=ACCUMULATOR|10=061|8=FIX.4.4|9=65|35=0|34=266|49=GENERATOR|52=20250713-18:56:19.716|56=ACCUMULATOR|10=059|8=FIX.4.4|9=65|35=0|34=267|49=GENERATOR|52=20250713-18:56:49.968|56=ACCUMULATOR|10=072|8=FIX.4.4|9=65|35=0|34=268|49=GENERATOR|52=20250713-18:57:20.256|56=ACCUMULATOR|10=053|8=FIX.4.4|9=65|35=0|34=269|49=GENERATOR|52=20250713-18:57:50.492|56=ACCUMULATOR|10=059|8=FIX.4.4|9=65|35=0|34=270|49=GENERATOR|52=20250713-18:58:20.769|56=ACCUMULATOR|10=056|8=FIX.4.4|9=65|35=0|34=271|49=GENERATOR|52=20250713-18:58:51.024|56=ACCUMULATOR|10=045|8=FIX.4.4|9=65|35=0|34=272|49=GENERATOR|52=20250713-18:59:21.300|56=ACCUMULATOR|10=041|8=FIX.4.4|9=65|35=0|34=273|49=GENERATOR|52=20250713-18:59:51.571|56=ACCUMULATOR|10=055|8=FIX.4.4|9=65|35=0|34=274|49=GENERATOR|52=20250713-19:00:21.847|56=ACCUMULATOR|10=046|8=FIX.4.4|9=65|35=0|34=275|49=GENERATOR|52=20250713-19:00:52.099|56=ACCUMULATOR|10=050|8=FIX.4.4|9=65|35=0|34=276|49=GENERATOR|52=20250713-19:01:22.427|56=ACCUMULATOR|10=044|8=FIX.4.4|9=65|35=0|34=277|49=GENERATOR|52=20250713-19:01:52.690|56=ACCUMULATOR|10=050|8=FIX.4.4|9=65|35=0|34=278|49=GENERATOR|52=20250713-19:02:22.892|56=ACCUMULATOR|10=053|8=FIX.4.4|9=65|35=0|34=279|49=GENERATOR|52=20250713-19:02:53.207|56=ACCUMULATOR|10=048|8=FIX.4.4|9=65|35=0|34=280|49=GENERATOR|52=20250713-19:03:23.446|56=ACCUMULATOR|10=043|8=FIX.4.4|9=65|35=0|34=281|49=GENERATOR|52=20250713-19:03:53.711|56=ACCUMULATOR|10=042|8=FIX.4.4|9=65|35=0|34=282|49=GENERATOR|52=20250713-19:04:23.893|56=ACCUMULATOR|10=052|