8=FIX.4.4|9=75|35=A|34=1|49=GENERATOR|52=20250716-00:00:00.841|56=ACCUMULATOR|98=0|108=30|10=221|8=FIX.4.4|9=63|35=0|34=2|49=GENERATOR|52=20250716-00:00:31.102|56=ACCUMULATOR|10=171|8=FIX.4.4|9=63|35=0|34=3|49=GENERATOR|52=20250716-00:01:01.320|56=ACCUMULATOR|10=172|8=FIX.4.4|9=63|35=0|34=4|49=GENERATOR|52=20250716-00:01:31.587|56=ACCUMULATOR|10=191|8=FIX.4.4|9=161|35=D|34=5|49=GENERATOR|52=20250716-00:01:59.269|56=ACCUMULATOR|11=b0ac987c-c54b-4db7-856f-c01f1a2e8974|38=4|40=2|44=15.44|54=2|55=VIIA4|60=20250716-00:01:59.269|10=097|8=FIX.4.4|9=63|35=0|34=6|49=GENERATOR|52=20250716-00:02:29.479|56=ACCUMULATOR|10=201|8=FIX.4.4|9=163|35=D|34=7|49=GENERATOR|52=20250716-00:02:39.899|56=ACCUMULATOR|11=efdf0d6f-c1f5-4a72-a5b5-df8972953869|38=100|40=2|44=13.44|54=2|55=VIIA4|60=20250716-00:02:39.899|10=227|8=FIX.4.4|9=63|35=0|34=8|49=GENERATOR|52=20250716-00:03:10.169|56=ACCUMULATOR|10=190|8=FIX.4.4|9=63|35=0|34=9|49=GENERATOR|52=20250716-00:03:40.424|56=ACCUMULATOR|10=188|8=FIX.4.4|9=64|35=0|34=10|49=GENERATOR|52=20250716-00:04:10.644|56=ACCUMULATOR|10=231|8=FIX.4.4|9=64|35=0|34=11|49=GENERATOR|52=20250716-00:04:40.873|56=ACCUMULATOR|10=239|8=FIX.4.4|9=64|35=0|34=12|49=GENERATOR|52=20250716-00:05:11.101|56=ACCUMULATOR|10=223|8=FIX.4.4|9=64|35=0|34=13|49=GENERATOR|52=20250716-00:05:41.343|56=ACCUMULATOR|10=235|8=FIX.4.4|9=64|35=0|34=14|49=GENERATOR|52=20250716-00:06:11.568|56=ACCUMULATOR|10=243|8=FIX.4.4|9=64|35=0|34=15|49=GENERATOR|52=20250716-00:06:41.787|56=ACCUMULATOR|10=250|8=FIX.4.4|9=64|35=0|34=16|49=GENERATOR|52=20250716-00:07:12.049|56=ACCUMULATOR|10=241|8=FIX.4.4|9=64|35=0|34=17|49=GENERATOR|52=20250716-00:07:42.256|56=ACCUMULATOR|10=245|8=FIX.4.4|9=64|35=0|34=18|49=GENERATOR|52=20250716-00:08:12.514|56=ACCUMULATOR|10=241|8=FIX.4.4|9=64|35=0|34=19|49=GENERATOR|52=20250716-00:08:42.753|56=ACCUMULATOR|10=250|8=FIX.4.4|9=64|35=0|34=20|49=GENERATOR|52=20250716-00:09:12.966|56=ACCUMULATOR|10=246|8=FIX.4.4|9=64|35=0|34=21|49=GENERATOR|52=20250716-00:09:43.193|56=ACCUMULATOR|10=243|8=FIX.4.4|9=64|35=0|34=22|49=GENERATOR|52=20250716-00:10:13.439|56=ACCUMULATOR|10=236|8=FIX.4.4|9=64|35=0|34=23|49=GENERATOR|52=20250716-00:10:43.648|56=ACCUMULATOR|10=242|8=FIX.4.4|9=76|35=A|34=24|49=GENERATOR|52=20250716-01:42:28.559|56=ACCUMULATOR|98=0|108=30|10=042|8=FIX.4.4|9=64|35=0|34=25|49=GENERATOR|52=20250716-01:42:58.581|56=ACCUMULATOR|10=252|8=FIX.4.4|9=163|35=D|34=26|49=GENERATOR|52=20250716-01:43:07.044|56=ACCUMULATOR|11=848dc545-97b3-4ecc-bce8-347bf5bdcf5e|38=100|40=2|44=25.5|54=2|55=VALE3|60=20250716-01:43:07.038|10=075|8=FIX.4.4|9=64|35=0|34=27|49=GENERATOR|52=20250716-01:43:37.296|56=ACCUMULATOR|10=255|8=FIX.4.4|9=64|35=0|34=28|49=GENERATOR|52=20250716-01:44:07.499|56=ACCUMULATOR|10=003|8=FIX.4.4|9=163|35=D|34=29|49=GENERATOR|52=20250716-01:44:23.991|56=ACCUMULATOR|11=616cdfa2-87a6-4381-841b-1e347061efb1|38=100|40=2|44=14.6|54=1|55=VIIA4|60=20250716-01:44:23.991|10=039|8=FIX.4.4|9=165|35=D|34=30|49=GENERATOR|52=20250716-01:44:36.995|56=ACCUMULATOR|11=20926d6c-0721-4bf2-8289-02fd9bb65d1f|38=99999|40=2|44=14.4|54=2|55=VALE3|60=20250716-01:44:36.995|10=193|8=FIX.4.4|9=64|35=0|34=31|49=GENERATOR|52=20250716-01:45:07.206|56=ACCUMULATOR|10=240|8=FIX.4.4|9=64|35=0|34=32|49=GENERATOR|52=20250716-01:45:37.495|56=ACCUMULATOR|10=254|8=FIX.4.4|9=64|35=0|34=33|49=GENERATOR|52=20250716-01:46:07.720|56=ACCUMULATOR|10=244|8=FIX.4.4|9=64|35=0|34=34|49=GENERATOR|52=20250716-01:46:37.959|56=ACCUMULATOR|10=006|8=FIX.4.4|9=64|35=0|34=35|49=GENERATOR|52=20250716-01:47:08.204|56=ACCUMULATOR|10=245|8=FIX.4.4|9=64|35=0|34=36|49=GENERATOR|52=20250716-01:47:38.417|56=ACCUMULATOR|10=255|8=FIX.4.4|9=64|35=0|34=37|49=GENERATOR|52=20250716-01:48:08.656|56=ACCUMULATOR|10=003|8=FIX.4.4|9=64|35=0|34=38|49=GENERATOR|52=20250716-01:48:38.882|56=ACCUMULATOR|10=008|8=FIX.4.4|9=64|35=0|34=39|49=GENERATOR|52=20250716-01:49:09.112|56=ACCUMULATOR|10=250|8=FIX.4.4|9=64|35=0|34=40|49=GENERATOR|52=20250716-01:49:39.380|56=ACCUMULATOR|10=252|8=FIX.4.4|9=64|35=0|34=41|49=GENERATOR|52=20250716-01:50:09.630|56=ACCUMULATOR|10=240|8=FIX.4.4|9=64|35=0|34=42|49=GENERATOR|52=20250716-01:50:39.897|56=ACCUMULATOR|10=003|8=FIX.4.4|9=64|35=0|34=43|49=GENERATOR|52=20250716-01:51:10.120|56=ACCUMULATOR|10=229|8=FIX.4.4|9=64|35=0|34=44|49=GENERATOR|52=20250716-01:51:40.354|56=ACCUMULATOR|10=242|8=FIX.4.4|9=64|35=0|34=45|49=GENERATOR|52=20250716-01:52:10.610|56=ACCUMULATOR|10=236|8=FIX.4.4|9=64|35=0|34=46|49=GENERATOR|52=20250716-01:52:40.879|56=ACCUMULATOR|10=001|8=FIX.4.4|9=64|35=0|34=47|49=GENERATOR|52=20250716-01:53:11.092|56=ACCUMULATOR|10=244|8=FIX.4.4|9=64|35=0|34=48|49=GENERATOR|52=20250716-01:53:41.319|56=ACCUMULATOR|10=250|8=FIX.4.4|9=64|35=0|34=49|49=GENERATOR|52=20250716-01:54:11.539|56=ACCUMULATOR|10=253|8=FIX.4.4|9=64|35=0|34=50|49=GENERATOR|52=20250716-01:54:41.790|56=ACCUMULATOR|10=247|8=FIX.4.4|9=64|35=0|34=51|49=GENERATOR|52=20250716-01:55:12.043|56=ACCUMULATOR|10=238|8=FIX.4.4|9=64|35=0|34=52|49=GENERATOR|52=20250716-01:55:42.281|56=ACCUMULATOR|10=246|8=FIX.4.4|9=64|35=0|34=53|49=GENERATOR|52=20250716-01:56:12.552|56=ACCUMULATOR|10=246|8=FIX.4.4|9=64|35=0|34=54|49=GENERATOR|52=20250716-01:56:42.830|56=ACCUMULATOR|10=249|8=FIX.4.4|9=64|35=0|34=55|49=GENERATOR|52=20250716-01:57:13.066|56=ACCUMULATOR|10=250|8=FIX.4.4|9=64|35=0|34=56|49=GENERATOR|52=20250716-01:57:43.291|56=ACCUMULATOR|10=254|8=FIX.4.4|9=64|35=0|34=57|49=GENERATOR|52=20250716-01:58:13.560|56=ACCUMULATOR|10=252|8=FIX.4.4|9=64|35=0|34=58|49=GENERATOR|52=20250716-01:58:43.807|56=ACCUMULATOR|10=004|8=FIX.4.4|9=64|35=0|34=59|49=GENERATOR|52=20250716-01:59:14.060|56=ACCUMULATOR|10=251|8=FIX.4.4|9=64|35=0|34=60|49=GENERATOR|52=20250716-01:59:44.304|56=ACCUMULATOR|10=247|8=FIX.4.4|9=64|35=0|34=61|49=GENERATOR|52=20250716-02:00:14.534|56=ACCUMULATOR|10=237|8=FIX.4.4|9=64|35=0|34=62|49=GENERATOR|52=20250716-02:00:44.787|56=ACCUMULATOR|10=251|8=FIX.4.4|9=64|35=0|34=63|49=GENERATOR|52=20250716-02:01:14.996|56=ACCUMULATOR|10=252|8=FIX.4.4|9=64|35=0|34=64|49=GENERATOR|52=20250716-02:01:45.240|56=ACCUMULATOR|10=239|8=FIX.4.4|9=64|35=0|34=65|49=GENERATOR|52=20250716-02:02:15.518|56=ACCUMULATOR|10=246|8=FIX.4.4|9=64|35=0|34=66|49=GENERATOR|52=20250716-02:02:45.768|56=ACCUMULATOR|10=001|8=FIX.4.4|9=64|35=0|34=67|49=GENERATOR|52=20250716-02:03:16.027|56=ACCUMULATOR|10=245|8=FIX.4.4|9=64|35=0|34=68|49=GENERATOR|52=20250716-02:03:46.245|56=ACCUMULATOR|10=251|8=FIX.4.4|9=64|35=0|34=69|49=GENERATOR|52=20250716-02:04:16.494|56=ACCUMULATOR|10=000|8=FIX.4.4|9=64|35=0|34=70|49=GENERATOR|52=20250716-02:04:46.714|56=ACCUMULATOR|10=246|8=FIX.4.4|9=64|35=0|34=71|49=GENERATOR|52=20250716-02:05:16.977|56=ACCUMULATOR|10=000|8=FIX.4.4|9=64|35=0|34=72|49=GENERATOR|52=20250716-02:05:47.254|56=ACCUMULATOR|10=249|8=FIX.4.4|9=64|35=0|34=73|49=GENERATOR|52=20250716-02:06:17.472|56=ACCUMULATOR|10=250|8=FIX.4.4|9=64|35=0|34=74|49=GENERATOR|52=20250716-02:06:47.715|56=ACCUMULATOR|10=254|8=FIX.4.4|9=64|35=0|34=75|49=GENERATOR|52=20250716-02:07:17.928|56=ACCUMULATOR|10=003|8=FIX.4.4|9=64|35=0|34=76|49=GENERATOR|52=20250716-02:07:48.136|56=ACCUMULATOR|10=255|8=FIX.4.4|9=64|35=0|34=77|49=GENERATOR|52=20250716-02:08:18.345|56=ACCUMULATOR|10=000|8=FIX.4.4|9=64|35=0|34=78|49=GENERATOR|52=20250716-02:08:48.609|56=ACCUMULATOR|10=007|8=FIX.4.4|9=64|35=0|34=79|49=GENERATOR|52=20250716-02:09:18.858|56=ACCUMULATOR|10=012|8=FIX.4.4|9=64|35=0|34=80|49=GENERATOR|52=20250716-02:09:49.097|56=ACCUMULATOR|10=003|8=FIX.4.4|9=64|35=0|34=81|49=GENERATOR|52=20250716-02:10:19.329|56=ACCUMULATOR|10=247|8=FIX.4.4|9=64|35=0|34=82|49=GENERATOR|52=20250716-02:10:49.542|56=ACCUMULATOR|10=248|8=FIX.4.4|9=64|35=0|34=83|49=GENERATOR|52=20250716-02:11:19.781|56=ACCUMULATOR|10=252|8=FIX.4.4|9=64|35=0|34=84|49=GENERATOR|52=20250716-02:11:50.013|56=ACCUMULATOR|10=236|8=FIX.4.4|9=64|35=0|34=85|49=GENERATOR|52=20250716-02:12:20.279|56=ACCUMULATOR|10=249|8=FIX.4.4|9=64|35=0|34=86|49=GENERATOR|52=20250716-02:12:50.507|56=ACCUMULATOR|10=247|8=FIX.4.4|9=64|35=0|34=87|49=GENERATOR|52=20250716-02:13:20.753|56=ACCUMULATOR|10=249|8=FIX.4.4|9=64|35=0|34=88|49=GENERATOR|52=20250716-02:13:51.025|56=ACCUMULATOR|10=246|8=FIX.4.4|9=64|35=0|34=89|49=GENERATOR|52=20250716-02:14:21.265|56=ACCUMULATOR|10=251|8=FIX.4.4|9=64|35=0|34=90|49=GENERATOR|52=20250716-02:14:51.523|56=ACCUMULATOR|10=243|8=FIX.4.4|9=64|35=0|34=91|49=GENERATOR|52=20250716-02:15:21.774|56=ACCUMULATOR|10=250|8=FIX.4.4|9=64|35=0|34=92|49=GENERATOR|52=20250716-02:15:52.019|56=ACCUMULATOR|10=247|8=FIX.4.4|9=64|35=0|34=93|49=GENERATOR|52=20250716-02:16:22.306|56=ACCUMULATOR|10=245|8=FIX.4.4|9=64|35=0|34=94|49=GENERATOR|52=20250716-02:16:52.577|56=ACCUMULATOR|10=003|8=FIX.4.4|9=64|35=0|34=95|49=GENERATOR|52=20250716-02:17:22.854|56=ACCUMULATOR|10=000|8=FIX.4.4|9=64|35=0|34=96|49=GENERATOR|52=20250716-02:17:53.103|56=ACCUMULATOR|10=248|8=FIX.4.4|9=64|35=0|34=97|49=GENERATOR|52=20250716-02:18:23.372|56=ACCUMULATOR|10=255|8=FIX.4.4|9=64|35=0|34=98|49=GENERATOR|52=20250716-02:18:53.636|56=ACCUMULATOR|10=006|8=FIX.4.4|9=64|35=0|34=99|49=GENERATOR|52=20250716-02:19:23.893|56=ACCUMULATOR|10=010|8=FIX.4.4|9=65|35=0|34=100|49=GENERATOR|52=20250716-02:19:54.149|56=ACCUMULATOR|10=040|8=FIX.4.4|9=65|35=0|34=101|49=GENERATOR|52=20250716-02:20:24.396|56=ACCUMULATOR|10=034|8=FIX.4.4|9=65|35=0|34=102|49=GENERATOR|52=20250716-02:20:54.620|56=ACCUMULATOR|10=028|8=FIX.4.4|9=65|35=0|34=103|49=GENERATOR|52=20250716-02:21:24.872|56=ACCUMULATOR|10=036|8=FIX.4.4|9=65|35=0|34=104|49=GENERATOR|52=20250716-02:21:55.102|56=ACCUMULATOR|10=027|8=FIX.4.4|9=65|35=0|34=105|49=GENERATOR|52=20250716-02:22:25.321|56=ACCUMULATOR|10=029|8=FIX.4.4|9=65|35=0|34=106|49=GENERATOR|52=20250716-02:22:55.563|56=ACCUMULATOR|10=041|8=FIX.4.4|9=65|35=0|34=107|49=GENERATOR|52=20250716-02:23:25.770|56=ACCUMULATOR|10=040|8=FIX.4.4|9=65|35=0|34=108|49=GENERATOR|52=20250716-02:23:56.004|56=ACCUMULATOR|10=035|8=FIX.4.4|9=65|35=0|34=109|49=GENERATOR|52=20250716-02:24:26.253|56=ACCUMULATOR|10=040|8=FIX.4.4|9=65|35=0|34=110|49=GENERATOR|52=20250716-02:24:56.548|56=ACCUMULATOR|10=042|8=FIX.4.4|9=65|35=0|34=111|49=GENERATOR|52=20250716-02:25:26.770|56=ACCUMULATOR|10=038|8=FIX.4.4|9=65|35=0|34=112|49=GENERATOR|52=20250716-02:25:56.968|56=ACCUMULATOR|10=051|8=FIX.4.4|9=65|35=0|34=113|49=GENERATOR|52=20250716-02:26:27.195|56=ACCUMULATOR|10=043|8=FIX.4.4|9=65|35=0|34=114|49=GENERATOR|52=20250716-02:26:57.416|56=ACCUMULATOR|10=043|8=FIX.4.4|9=65|35=0|34=115|49=GENERATOR|52=20250716-02:27:27.683|56=ACCUMULATOR|10=048|8=FIX.4.4|9=65|35=0|34=116|49=GENERATOR|52=20250716-02:27:57.911|56=ACCUMULATOR|10=046|8=FIX.4.4|9=65|35=0|34=117|49=GENERATOR|52=20250716-02:28:28.158|56=ACCUMULATOR|10=049|8=FIX.4.4|9=65|35=0|34=118|49=GENERATOR|52=20250716-02:28:58.383|56=ACCUMULATOR|10=053|8=FIX.4.4|9=65|35=0|34=119|49=GENERATOR|52=20250716-02:29:28.616|56=ACCUMULATOR|10=051|8=FIX.4.4|9=65|35=0|34=120|49=GENERATOR|52=20250716-02:29:58.867|56=ACCUMULATOR|10=054|8=FIX.4.4|9=65|35=0|34=121|49=GENERATOR|52=20250716-02:30:29.097|56=ACCUMULATOR|10=040|8=FIX.4.4|9=65|35=0|34=122|49=GENERATOR|52=20250716-02:30:59.362|56=ACCUMULATOR|10=039|8=FIX.4.4|9=65|35=0|34=123|49=GENERATOR|52=20250716-02:31:29.619|56=ACCUMULATOR|10=043|8=FIX.4.4|9=65|35=0|34=124|49=GENERATOR|52=20250716-02:31:59.867|56=ACCUMULATOR|10=052|8=FIX.4.4|9=65|35=0|34=125|49=GENERATOR|52=20250716-02:32:30.099|56=ACCUMULATOR|10=040|8=FIX.4.4|9=65|35=0|34=126|49=GENERATOR|52=20250716-02:33:00.347|56=ACCUMULATOR|10=035|8=FIX.4.4|9=65|35=0|34=127|49=GENERATOR|52=20250716-02:33:30.589|56=ACCUMULATOR|10=047|8=FIX.4.4|9=65|35=0|34=128|49=GENERATOR|52=20250716-02:34:00.827|56=ACCUMULATOR|10=041|8=FIX.4.4|9=65|35=0|34=129|49=GENERATOR|52=20250716-02:34:31.054|56=ACCUMULATOR|10=038|8=FIX.4.4|9=65|35=0|34=130|49=GENERATOR|52=20250716-02:35:01.310|56=ACCUMULATOR|10=023|8=FIX.4.4|9=65|35=0|34=131|49=GENERATOR|52=20250716-02:35:31.567|56=ACCUMULATOR|10=041|8=FIX.4.4|9=65|35=0|34=132|49=GENERATOR|52=20250716-02:36:01.862|56=ACCUMULATOR|10=038|8=FIX.4.4|9=160|35=D|34=133|49=GENERATOR|52=20250716-02:36:23.840|56=ACCUMULATOR|11=0373a09c-a15f-4204-9a6d-7000d3a2eec2|38=1|40=2|44=10|54=2|55=VIIA4|60=20250716-02:36:23.840|10=153|8=FIX.4.4|9=77|35=A|34=134|49=GENERATOR|52=20250716-02:38:23.585|56=ACCUMULATOR|98=0|108=30|10=093|8=FIX.4.4|9=65|35=0|34=135|49=GENERATOR|52=20250716-02:38:54.751|56=ACCUMULATOR|10=048|8=FIX.4.4|9=65|35=0|34=136|49=GENERATOR|52=20250716-02:39:24.966|56=ACCUMULATOR|10=055|8=FIX.4.4|9=161|35=D|34=137|49=GENERATOR|52=20250716-02:39:35.268|56=ACCUMULATOR|11=5ffae285-c283-497c-a243-c4800ae29758|38=1|40=2|44=100|54=1|55=PETR4|60=20250716-02:39:35.262|10=227|8=FIX.4.4|9=65|35=0|34=138|49=GENERATOR|52=20250716-02:40:06.214|56=ACCUMULATOR|10=035|8=FIX.4.4|9=163|35=D|34=139|49=GENERATOR|52=20250716-02:40:16.121|56=ACCUMULATOR|11=513e64b1-a6f0-425e-924b-e4b7bb3a051f|38=3|40=2|44=15.33|54=1|55=VIIA4|60=20250716-02:40:16.121|10=096|8=FIX.4.4|9=159|35=D|34=140|49=GENERATOR|52=20250716-02:40:37.743|56=ACCUMULATOR|11=daf8f80a-84bc-4084-a600-d3a9e121ba5c|38=5|40=2|44=7|54=1|55=VIIA4|60=20250716-02:40:37.743|10=022|8=FIX.4.4|9=77|35=A|34=141|49=GENERATOR|52=20250716-02:42:16.717|56=ACCUMULATOR|98=0|108=30|10=085|8=FIX.4.4|9=76|35=2|34=142|49=GENERATOR|52=20250716-02:42:16.722|56=ACCUMULATOR|7=140|16=0|10=008|8=FIX.4.4|9=160|35=D|34=143|49=GENERATOR|52=20250716-02:42:22.814|56=ACCUMULATOR|11=f61051fb-3778-4d73-a03e-e6a9a4625d7c|38=1|40=2|44=10|54=2|55=VIIA4|60=20250716-02:42:22.814|10=179|8=FIX.4.4|9=65|35=0|34=144|49=GENERATOR|52=20250716-02:42:53.191|56=ACCUMULATOR|10=040|8=FIX.4.4|9=65|35=0|34=145|49=GENERATOR|52=20250716-02:43:23.453|56=ACCUMULATOR|10=040|8=FIX.4.4|9=65|35=0|34=146|49=GENERATOR|52=20250716-02:43:53.678|56=ACCUMULATOR|10=053|8=FIX.4.4|9=65|35=0|34=147|49=GENERATOR|52=20250716-02:44:23.926|56=ACCUMULATOR|10=048|8=FIX.4.4|9=65|35=0|34=148|49=GENERATOR|52=20250716-02:44:54.137|56=ACCUMULATOR|10=047|8=FIX.4.4|9=65|35=0|34=149|49=GENERATOR|52=20250716-02:45:24.378|56=ACCUMULATOR|10=053|8=FIX.4.4|9=65|35=0|34=150|49=GENERATOR|52=20250716-02:45:54.591|56=ACCUMULATOR|10=045|8=FIX.4.4|9=65|35=0|34=151|49=GENERATOR|52=20250716-02:46:24.815|56=ACCUMULATOR|10=043|8=FIX.4.4|9=65|35=0|34=152|49=GENERATOR|52=20250716-02:46:55.057|56=ACCUMULATOR|10=046|8=FIX.4.4|9=65|35=0|34=153|49=GENERATOR|52=20250716-02:47:25.349|56=ACCUMULATOR|10=049|8=FIX.4.4|9=65|35=0|34=154|49=GENERATOR|52=20250716-02:47:55.618|56=ACCUMULATOR|10=052|8=FIX.4.4|9=65|35=0|34=155|49=GENERATOR|52=20250716-02:48:25.900|56=ACCUMULATOR|10=045|8=FIX.4.4|9=65|35=0|34=156|49=GENERATOR|52=20250716-02:48:56.150|56=ACCUMULATOR|10=047|8=FIX.4.4|9=65|35=0|34=157|49=GENERATOR|52=20250716-02:49:26.391|56=ACCUMULATOR|10=053|8=FIX.4.4|9=65|35=0|34=158|49=GENERATOR|52=20250716-02:49:56.669|56=ACCUMULATOR|10=065|8=FIX.4.4|9=65|35=0|34=159|49=GENERATOR|52=20250716-02:50:26.908|56=ACCUMULATOR|10=051|8=FIX.4.4|9=65|35=0|34=160|49=GENERATOR|52=20250716-02:50:57.180|56=ACCUMULATOR|10=039|8=FIX.4.4|9=65|35=0|34=161|49=GENERATOR|52=20250716-02:51:27.417|56=ACCUMULATOR|10=041|8=FIX.4.4|9=65|35=0|34=162|49=GENERATOR|52=20250716-02:51:57.654|56=ACCUMULATOR|10=048|8=FIX.4.4|9=65|35=0|34=163|49=GENERATOR|52=20250716-02:52:27.905|56=ACCUMULATOR|10=046|8=FIX.4.4|9=65|35=0|34=164|49=GENERATOR|52=20250716-02:52:58.135|56=ACCUMULATOR|10=046|8=FIX.4.4|9=65|35=0|34=165|49=GENERATOR|52=20250716-02:53:28.349|56=ACCUMULATOR|10=052|8=FIX.4.4|9=65|35=0|34=166|49=GENERATOR|52=20250716-02:53:58.611|56=ACCUMULATOR|10=048|8=FIX.4.4|9=65|35=0|34=167|49=GENERATOR|52=20250716-02:54:28.868|56=ACCUMULATOR|10=061|8=FIX.4.4|9=65|35=0|34=168|49=GENERATOR|52=20250716-02:54:59.126|56=ACCUMULATOR|10=053|8=FIX.4.4|9=65|35=0|34=169|49=GENERATOR|52=20250716-02:55:29.373|56=ACCUMULATOR|10=056|8=FIX.4.4|9=65|35=0|34=170|49=GENERATOR|52=20250716-02:55:59.620|56=ACCUMULATOR|10=046|8=FIX.4.4|9=65|35=0|34=171|49=GENERATOR|52=20250716-02:56:29.886|56=ACCUMULATOR|10=059|8=FIX.4.4|9=65|35=0|34=172|49=GENERATOR|52=20250716-02:57:00.117|56=ACCUMULATOR|10=037|8=FIX.4.4|9=65|35=0|34=173|49=GENERATOR|52=20250716-02:57:30.398|56=ACCUMULATOR|10=052|8=FIX.4.4|9=65|35=0|34=174|49=GENERATOR|52=20250716-02:58:00.644|56=ACCUMULATOR|10=045|8=FIX.4.4|9=65|35=0|34=175|49=GENERATOR|52=20250716-02:58:30.865|56=ACCUMULATOR|10=054|8=FIX.4.4|9=65|35=0|34=176|49=GENERATOR|52=20250716-02:59:01.110|56=ACCUMULATOR|10=037|8=FIX.4.4|9=65|35=0|34=177|49=GENERATOR|52=20250716-02:59:31.361|56=ACCUMULATOR|10=049|8=FIX.4.4|9=65|35=0|34=178|49=GENERATOR|52=20250716-03:00:01.581|56=ACCUMULATOR|10=038|8=FIX.4.4|9=65|35=0|34=179|49=GENERATOR|52=20250716-03:00:31.854|56=ACCUMULATOR|10=045|8=FIX.4.4|9=65|35=0|34=180|49=GENERATOR|52=20250716-03:01:02.064|56=ACCUMULATOR|10=029|8=FIX.4.4|9=65|35=0|34=181|49=GENERATOR|52=20250716-03:01:32.330|56=ACCUMULATOR|10=029|8=FIX.4.4|9=65|35=0|34=182|49=GENERATOR|52=20250716-03:02:02.605|56=ACCUMULATOR|10=033|8=FIX.4.4|9=65|35=0|34=183|49=GENERATOR|52=20250716-03:02:32.860|56=ACCUMULATOR|10=040|8=FIX.4.4|9=65|35=0|34=184|49=GENERATOR|52=20250716-03:03:03.105|56=ACCUMULATOR|10=032|8=FIX.4.4|9=65|35=0|34=185|49=GENERATOR|52=20250716-03:03:33.365|56=ACCUMULATOR|10=044|8=FIX.4.4|9=65|35=0|34=186|49=GENERATOR|52=20250716-03:04:03.625|56=ACCUMULATOR|10=042|8=FIX.4.4|9=65|35=0|34=187|49=GENERATOR|52=20250716-03:04:33.858|56=ACCUMULATOR|10=054|8=FIX.4.4|9=65|35=0|34=188|49=GENERATOR|52=20250716-03:05:04.111|56=ACCUMULATOR|10=036|8=FIX.4.4|9=65|35=0|34=189|49=GENERATOR|52=20250716-03:05:34.358|56=ACCUMULATOR|10=053|8=FIX.4.4|9=65|35=0|34=190|49=GENERATOR|52=20250716-03:06:04.588|56=ACCUMULATOR|10=048|8=FIX.4.4|9=65|35=0|34=191|49=GENERATOR|52=20250716-03:06:34.832|56=ACCUMULATOR|10=044|8=FIX.4.4|9=65|35=0|34=192|49=GENERATOR|52=20250716-03:07:05.107|56=ACCUMULATOR|10=039|8=FIX.4.4|9=65|35=0|34=193|49=GENERATOR|52=20250716-03:07:35.347|56=ACCUMULATOR|10=049|8=FIX.4.4|9=65|35=0|34=194|49=GENERATOR|52=20250716-03:08:05.594|56=ACCUMULATOR|10=052|8=FIX.4.4|9=65|35=0|34=195|49=GENERATOR|52=20250716-03:08:35.866|56=ACCUMULATOR|10=058|8=FIX.4.4|9=65|35=0|34=196|49=GENERATOR|52=20250716-03:09:06.144|56=ACCUMULATOR|10=047|8=FIX.4.4|9=65|35=0|34=197|49=GENERATOR|52=20250716-03:09:36.411|56=ACCUMULATOR|10=048|8=FIX.4.4|9=65|35=0|34=198|49=GENERATOR|52=20250716-03:10:06.642|56=ACCUMULATOR|10=044|8=FIX.4.4|9=65|35=0|34=199|49=GENERATOR|52=20250716-03:10:36.898|56=ACCUMULATOR|10=061|8=FIX.4.4|9=65|35=0|34=200|49=GENERATOR|52=20250716-03:11:07.150|56=ACCUMULATOR|10=024|8=FIX.4.4|9=65|35=0|34=201|49=GENERATOR|52=20250716-03:11:37.388|56=ACCUMULATOR|10=041|8=FIX.4.4|9=65|35=0|34=202|49=GENERATOR|52=20250716-03:12:07.606|56=ACCUMULATOR|10=033|8=FIX.4.4|9=65|35=0|34=203|49=GENERATOR|52=20250716-03:12:37.866|56=ACCUMULATOR|10=045|8=FIX.4.4|9=65|35=0|34=204|49=GENERATOR|52=20250716-03:13:08.122|56=ACCUMULATOR|10=030|8=FIX.4.4|9=65|35=0|34=205|49=GENERATOR|52=20250716-03:13:38.382|56=ACCUMULATOR|10=042|8=FIX.4.4|9=77|35=A|34=206|49=GENERATOR|52=20250716-06:05:14.608|56=ACCUMULATOR|98=0|108=30|10=087|8=FIX.4.4|9=77|35=A|34=207|49=GENERATOR|52=20250716-11:43:40.161|56=ACCUMULATOR|98=0|108=30|10=079|8=FIX.4.4|9=65|35=0|34=208|49=GENERATOR|52=20250716-11:44:10.886|56=ACCUMULATOR|10=047|8=FIX.4.4|9=65|35=0|34=209|49=GENERATOR|52=20250716-11:44:41.130|56=ACCUMULATOR|10=034|8=FIX.4.4|9=65|35=0|34=210|49=GENERATOR|52=20250716-11:45:11.401|56=ACCUMULATOR|10=025|8=FIX.4.4|9=65|35=0|34=211|49=GENERATOR|52=20250716-11:45:41.660|56=ACCUMULATOR|10=036|8=FIX.4.4|9=65|35=0|34=212|49=GENERATOR|52=20250716-11:46:11.968|56=ACCUMULATOR|10=046|8=FIX.4.4|9=65|35=0|34=213|49=GENERATOR|52=20250716-11:46:42.249|56=ACCUMULATOR|10=043|8=FIX.4.4|9=65|35=0|34=214|49=GENERATOR|52=20250716-11:47:12.555|56=ACCUMULATOR|10=042|8=FIX.4.4|9=65|35=0|34=215|49=GENERATOR|52=20250716-11:47:42.836|56=ACCUMULATOR|10=048|8=FIX.4.4|9=65|35=0|34=216|49=GENERATOR|52=20250716-11:48:13.184|56=ACCUMULATOR|10=044|8=FIX.4.4|9=65|35=0|34=217|49=GENERATOR|52=20250716-11:48:43.470|56=ACCUMULATOR|10=046|8=FIX.4.4|9=65|35=0|34=218|49=GENERATOR|52=20250716-11:49:13.761|56=ACCUMULATOR|10=048|8=FIX.4.4|9=65|35=0|34=219|49=GENERATOR|52=20250716-11:49:43.995|56=ACCUMULATOR|10=061|8=FIX.4.4|9=65|35=0|34=220|49=GENERATOR|52=20250716-11:50:14.290|56=ACCUMULATOR|10=031|8=FIX.4.4|9=65|35=0|34=221|49=GENERATOR|52=20250716-11:50:44.565|56=ACCUMULATOR|10=040|8=FIX.4.4|9=65|35=0|34=222|49=GENERATOR|52=20250716-11:51:14.848|56=ACCUMULATOR|10=043|8=FIX.4.4|9=65|35=0|34=223|49=GENERATOR|52=20250716-11:51:45.137|56=ACCUMULATOR|10=039|8=FIX.4.4|9=65|35=0|34=224|49=GENERATOR|52=20250716-11:52:15.413|56=ACCUMULATOR|10=035|8=FIX.4.4|9=65|35=0|34=225|49=GENERATOR|52=20250716-11:52:45.737|56=ACCUMULATOR|10=048|8=FIX.4.4|9=65|35=0|34=226|49=GENERATOR|52=20250716-11:53:16.005|56=ACCUMULATOR|10=036|8=FIX.4.4|9=65|35=0|34=227|49=GENERATOR|52=20250716-11:53:46.268|56=ACCUMULATOR|10=051|8=FIX.4.4|9=65|35=0|34=228|49=GENERATOR|52=20250716-11:54:16.504|56=ACCUMULATOR|10=043|8=FIX.4.4|9=65|35=0|34=229|49=GENERATOR|52=20250716-11:54:46.754|56=ACCUMULATOR|10=054|8=FIX.4.4|9=65|35=0|34=230|49=GENERATOR|52=20250716-11:55:17.018|56=ACCUMULATOR|10=038|8=FIX.4.4|9=65|35=0|34=231|49=GENERATOR|52=20250716-11:55:47.212|56=ACCUMULATOR|10=038|8=FIX.4.4|9=65|35=0|34=232|49=GENERATOR|52=20250716-11:56:17.446|56=ACCUMULATOR|10=046|8=FIX.4.4|9=65|35=0|34=233|49=GENERATOR|52=20250716-11:56:47.757|56=ACCUMULATOR|10=055|8=FIX.4.4|9=65|35=0|34=234|49=GENERATOR|52=20250716-11:57:17.997|56=ACCUMULATOR|10=060|8=FIX.4.4|9=65|35=0|34=235|49=GENERATOR|52=20250716-11:57:48.228|56=ACCUMULATOR|10=052|8=FIX.4.4|9=65|35=0|34=236|49=GENERATOR|52=20250716-11:58:18.451|56=ACCUMULATOR|10=049|8=FIX.4.4|9=65|35=0|34=237|49=GENERATOR|52=20250716-11:58:48.667|56=ACCUMULATOR|10=062|8=FIX.4.4|9=65|35=0|34=238|49=GENERATOR|52=20250716-11:59:18.863|56=ACCUMULATOR|10=059|8=FIX.4.4|9=65|35=0|34=239|49=GENERATOR|52=20250716-11:59:49.132|56=ACCUMULATOR|10=053|8=FIX.4.4|9=65|35=0|34=240|49=GENERATOR|52=20250716-12:00:19.338|56=ACCUMULATOR|10=037|8=FIX.4.4|9=65|35=0|34=241|49=GENERATOR|52=20250716-12:00:49.572|56=ACCUMULATOR|10=041|8=FIX.4.4|9=65|35=0|34=242|49=GENERATOR|52=20250716-12:01:19.815|56=ACCUMULATOR|10=040|8=FIX.4.4|9=65|35=0|34=243|49=GENERATOR|52=20250716-12:01:50.054|56=ACCUMULATOR|10=031|8=FIX.4.4|9=65|35=0|34=244|49=GENERATOR|52=20250716-12:02:20.297|56=ACCUMULATOR|10=039|8=FIX.4.4|9=65|35=0|34=245|49=GENERATOR|52=20250716-12:02:50.510|56=ACCUMULATOR|10=031|8=FIX.4.4|9=65|35=0|34=246|49=GENERATOR|52=20250716-12:03:20.787|56=ACCUMULATOR|10=046|8=FIX.4.4|9=65|35=0|34=247|49=GENERATOR|52=20250716-12:03:51.005|56=ACCUMULATOR|10=034|8=FIX.4.4|9=65|35=0|34=248|49=GENERATOR|52=20250716-12:04:21.231|56=ACCUMULATOR|10=034|8=FIX.4.4|9=65|35=0|34=249|49=GENERATOR|52=20250716-12:04:51.478|56=ACCUMULATOR|10=051|8=FIX.4.4|9=65|35=0|34=250|49=GENERATOR|52=20250716-12:05:21.738|56=ACCUMULATOR|10=040|8=FIX.4.4|9=65|35=0|34=251|49=GENERATOR|52=20250716-12:05:52.012|56=ACCUMULATOR|10=030|8=FIX.4.4|9=65|35=0|34=252|49=GENERATOR|52=20250716-12:06:22.262|56=ACCUMULATOR|10=036|8=FIX.4.4|9=65|35=0|34=253|49=GENERATOR|52=20250716-12:06:52.518|56=ACCUMULATOR|10=044|8=FIX.4.4|9=65|35=0|34=254|49=GENERATOR|52=20250716-12:07:22.772|56=ACCUMULATOR|10=045|8=FIX.4.4|9=65|35=0|34=255|49=GENERATOR|52=20250716-12:07:53.026|56=ACCUMULATOR|10=042|8=FIX.4.4|9=65|35=0|34=256|49=GENERATOR|52=20250716-12:08:23.285|56=ACCUMULATOR|10=048|8=FIX.4.4|9=65|35=0|34=257|49=GENERATOR|52=20250716-12:08:53.564|56=ACCUMULATOR|10=052|8=FIX.4.4|9=65|35=0|34=258|49=GENERATOR|52=20250716-12:09:23.804|56=ACCUMULATOR|10=048|8=FIX.4.4|9=65|35=0|34=259|49=GENERATOR|52=20250716-12:09:54.076|56=ACCUMULATOR|10=054|8=FIX.4.4|9=65|35=0|34=260|49=GENERATOR|52=20250716-12:10:24.288|56=ACCUMULATOR|10=040|8=FIX.4.4|9=65|35=0|34=261|49=GENERATOR|52=20250716-12:10:54.549|56=ACCUMULATOR|10=044|8=FIX.4.4|9=65|35=0|34=262|49=GENERATOR|52=20250716-12:11:24.816|56=ACCUMULATOR|10=040|8=FIX.4.4|9=65|35=0|34=263|49=GENERATOR|52=20250716-12:11:55.112|56=ACCUMULATOR|10=034|8=FIX.4.4|9=65|35=0|34=264|49=GENERATOR|52=20250716-12:12:25.342|56=ACCUMULATOR|10=038|8=FIX.4.4|9=65|35=0|34=265|49=GENERATOR|52=20250716-12:12:55.592|56=ACCUMULATOR|10=049|8=FIX.4.4|9=65|35=0|34=266|49=GENERATOR|52=20250716-12:13:25.864|56=ACCUMULATOR|10=050|8=FIX.4.4|9=65|35=0|34=267|49=GENERATOR|52=20250716-12:13:56.123|56=ACCUMULATOR|10=043|8=FIX.4.4|9=65|35=0|34=268|49=GENERATOR|52=20250716-12:14:26.406|56=ACCUMULATOR|10=046|8=FIX.4.4|9=65|35=0|34=269|49=GENERATOR|52=20250716-12:14:56.638|56=ACCUMULATOR|10=057|8=FIX.4.4|9=65|35=0|34=270|49=GENERATOR|52=20250716-12:15:26.881|56=ACCUMULATOR|10=047|8=FIX.4.4|9=65|35=0|34=271|49=GENERATOR|52=20250716-12:15:57.112|56=ACCUMULATOR|10=039|8=FIX.4.4|9=65|35=0|34=272|49=GENERATOR|52=20250716-12:16:27.335|56=ACCUMULATOR|10=045|8=FIX.4.4|9=65|35=0|34=273|49=GENERATOR|52=20250716-12:16:57.592|56=ACCUMULATOR|10=054|8=FIX.4.4|9=65|35=0|34=274|49=GENERATOR|52=20250716-12:17:27.790|56=ACCUMULATOR|10=053|8=FIX.4.4|9=65|35=0|34=275|49=GENERATOR|52=20250716-12:17:58.042|56=ACCUMULATOR|10=048|8=FIX.4.4|9=65|35=0|34=276|49=GENERATOR|52=20250716-12:18:28.293|56=ACCUMULATOR|10=055|8=FIX.4.4|9=65|35=0|34=277|49=GENERATOR|52=20250716-12:18:58.538|56=ACCUMULATOR|10=061|8=FIX.4.4|9=65|35=0|34=278|49=GENERATOR|52=20250716-12:19:28.799|56=ACCUMULATOR|10=069|8=FIX.4.4|9=65|35=0|34=279|49=GENERATOR|52=20250716-12:19:59.016|56=ACCUMULATOR|10=056|8=FIX.4.4|9=65|35=0|34=280|49=GENERATOR|52=20250716-12:20:29.274|56=ACCUMULATOR|10=043|8=FIX.4.4|9=65|35=0|34=281|49=GENERATOR|52=20250716-12:20:59.498|56=ACCUMULATOR|10=055|8=FIX.4.4|9=65|35=0|34=282|49=GENERATOR|52=20250716-12:21:29.720|56=ACCUMULATOR|10=042|8=FIX.4.4|9=65|35=0|34=283|49=GENERATOR|52=20250716-12:21:59.997|56=ACCUMULATOR|10=062|8=FIX.4.4|9=65|35=0|34=284|49=GENERATOR|52=20250716-12:22:30.251|56=ACCUMULATOR|10=036|8=FIX.4.4|9=65|35=0|34=285|49=GENERATOR|52=20250716-12:23:00.510|56=ACCUMULATOR|10=033|8=FIX.4.4|9=65|35=0|34=286|49=GENERATOR|52=20250716-12:23:30.771|56=ACCUMULATOR|10=046|8=FIX.4.4|9=65|35=0|34=287|49=GENERATOR|52=20250716-12:24:01.023|56=ACCUMULATOR|10=036|8=FIX.4.4|9=65|35=0|34=288|49=GENERATOR|52=20250716-12:24:31.267|56=ACCUMULATOR|10=050|8=FIX.4.4|9=65|35=0|34=289|49=GENERATOR|52=20250716-12:25:01.539|56=ACCUMULATOR|10=051|8=FIX.4.4|9=65|35=0|34=290|49=GENERATOR|52=20250716-12:25:31.775|56=ACCUMULATOR|10=048|8=FIX.4.4|9=65|35=0|34=291|49=GENERATOR|52=20250716-12:26:01.993|56=ACCUMULATOR|10=049|8=FIX.4.4|9=65|35=0|34=292|49=GENERATOR|52=20250716-12:26:32.225|56=ACCUMULATOR|10=042|8=FIX.4.4|9=65|35=0|34=293|49=GENERATOR|52=20250716-12:27:02.486|56=ACCUMULATOR|10=050|8=FIX.4.4|9=65|35=0|34=294|49=GENERATOR|52=20250716-12:27:32.750|56=ACCUMULATOR|10=048|8=FIX.4.4|9=65|35=0|34=295|49=GENERATOR|52=20250716-12:28:03.005|56=ACCUMULATOR|10=041|8=FIX.4.4|9=65|35=0|34=296|49=GENERATOR|52=20250716-12:28:33.256|56=ACCUMULATOR|10=053|8=FIX.4.4|9=65|35=0|34=297|49=GENERATOR|52=20250716-12:29:03.497|56=ACCUMULATOR|10=059|8=FIX.4.4|9=65|35=0|34=298|49=GENERATOR|52=20250716-12:29:33.758|56=ACCUMULATOR|10=063|8=FIX.4.4|9=65|35=0|34=299|49=GENERATOR|52=20250716-12:30:03.954|56=ACCUMULATOR|10=051|8=FIX.4.4|9=65|35=0|34=300|49=GENERATOR|52=20250716-12:30:34.226|56=ACCUMULATOR|10=030|8=FIX.4.4|9=65|35=0|34=301|49=GENERATOR|52=20250716-12:31:04.448|56=ACCUMULATOR|10=035|8=FIX.4.4|9=65|35=0|34=302|49=GENERATOR|52=20250716-12:31:34.650|56=ACCUMULATOR|10=034|8=FIX.4.4|9=65|35=0|34=303|49=GENERATOR|52=20250716-12:32:04.846|56=ACCUMULATOR|10=040|8=FIX.4.4|9=65|35=0|34=304|49=GENERATOR|52=20250716-12:32:35.068|56=ACCUMULATOR|10=041|8=FIX.4.4|9=65|35=0|34=305|49=GENERATOR|52=20250716-12:33:05.322|56=ACCUMULATOR|10=033|8=FIX.4.4|9=65|35=0|34=306|49=GENERATOR|52=20250716-12:33:35.566|56=ACCUMULATOR|10=047|8=FIX.4.4|9=65|35=0|34=307|49=GENERATOR|52=20250716-12:34:05.872|56=ACCUMULATOR|10=046|8=FIX.4.4|9=65|35=0|34=308|49=GENERATOR|52=20250716-12:34:36.145|56=ACCUMULATOR|10=044|8=FIX.4.4|9=65|35=0|34=309|49=GENERATOR|52=20250716-12:35:06.415|56=ACCUMULATOR|10=043|8=FIX.4.4|9=65|35=0|34=310|49=GENERATOR|52=20250716-12:35:36.708|56=ACCUMULATOR|10=043|8=FIX.4.4|9=65|35=0|34=311|49=GENERATOR|52=20250716-12:36:07.019|56=ACCUMULATOR|10=038|8=FIX.4.4|9=65|35=0|34=312|49=GENERATOR|52=20250716-12:36:37.315|56=ACCUMULATOR|10=041|8=FIX.4.4|9=65|35=0|34=313|49=GENERATOR|52=20250716-12:37:07.665|56=ACCUMULATOR|10=048|8=FIX.4.4|9=65|35=0|34=314|49=GENERATOR|52=20250716-12:37:37.993|56=ACCUMULATOR|10=056|8=FIX.4.4|9=65|35=0|34=315|49=GENERATOR|52=20250716-12:38:08.297|56=ACCUMULATOR|10=053|8=FIX.4.4|9=65|35=0|34=316|49=GENERATOR|52=20250716-12:38:38.551|56=ACCUMULATOR|10=050|8=FIX.4.4|9=65|35=0|34=317|49=GENERATOR|52=20250716-12:39:08.848|56=ACCUMULATOR|10=058|8=FIX.4.4|9=65|35=0|34=318|49=GENERATOR|52=20250716-12:39:39.132|56=ACCUMULATOR|10=049|8=FIX.4.4|9=65|35=0|34=319|49=GENERATOR|52=20250716-12:40:09.426|56=ACCUMULATOR|10=045|8=FIX.4.4|9=65|35=0|34=320|49=GENERATOR|52=20250716-12:40:39.741|56=ACCUMULATOR|10=040|8=FIX.4.4|9=65|35=0|34=321|49=GENERATOR|52=20250716-12:41:10.008|56=ACCUMULATOR|10=027|8=FIX.4.4|9=65|35=0|34=322|49=GENERATOR|52=20250716-12:41:40.258|56=ACCUMULATOR|10=038|8=FIX.4.4|9=65|35=0|34=323|49=GENERATOR|52=20250716-12:42:10.548|56=ACCUMULATOR|10=039|8=FIX.4.4|9=65|35=0|34=324|49=GENERATOR|52=20250716-12:42:40.849|56=ACCUMULATOR|10=047|8=FIX.4.4|9=65|35=0|34=325|49=GENERATOR|52=20250716-12:43:11.133|56=ACCUMULATOR|10=033|8=FIX.4.4|9=65|35=0|34=326|49=GENERATOR|52=20250716-12:43:41.484|56=ACCUMULATOR|10=046|8=FIX.4.4|9=65|35=0|34=327|49=GENERATOR|52=20250716-12:44:11.906|56=ACCUMULATOR|10=044|8=FIX.4.4|9=65|35=0|34=328|49=GENERATOR|52=20250716-12:44:42.181|56=ACCUMULATOR|10=044|8=FIX.4.4|9=65|35=0|34=329|49=GENERATOR|52=20250716-12:45:12.514|56=ACCUMULATOR|10=043|8=FIX.4.4|9=65|35=0|34=330|49=GENERATOR|52=20250716-12:45:42.838|56=ACCUMULATOR|10=047|8=FIX.4.4|9=65|35=0|34=331|49=GENERATOR|52=20250716-12:46:13.126|56=ACCUMULATOR|10=037|8=FIX.4.4|9=65|35=0|34=332|49=GENERATOR|52=20250716-12:46:43.426|56=ACCUMULATOR|10=044|8=FIX.4.4|9=65|35=0|34=333|49=GENERATOR|52=20250716-12:47:13.772|56=ACCUMULATOR|10=047|8=FIX.4.4|9=65|35=0|34=334|49=GENERATOR|52=20250716-12:47:44.016|56=ACCUMULATOR|10=043|8=FIX.4.4|9=65|35=0|34=335|49=GENERATOR|52=20250716-12:48:14.295|56=ACCUMULATOR|10=051|8=FIX.4.4|9=65|35=0|34=336|49=GENERATOR|52=20250716-12:48:44.576|56=ACCUMULATOR|10=057|8=FIX.4.4|9=65|35=0|34=337|49=GENERATOR|52=20250716-12:49:14.872|56=ACCUMULATOR|10=055|8=FIX.4.4|9=65|35=0|34=338|49=GENERATOR|52=20250716-12:49:45.219|56=ACCUMULATOR|10=055|8=FIX.4.4|9=65|35=0|34=339|49=GENERATOR|52=20250716-12:50:15.560|56=ACCUMULATOR|10=044|8=FIX.4.4|9=65|35=0|34=340|49=GENERATOR|52=20250716-12:50:45.775|56=ACCUMULATOR|10=047|8=FIX.4.4|9=65|35=0|34=341|49=GENERATOR|52=20250716-12:51:16.133|56=ACCUMULATOR|10=035|8=FIX.4.4|9=65|35=0|34=342|49=GENERATOR|52=20250716-12:51:46.526|56=ACCUMULATOR|10=045|8=FIX.4.4|9=65|35=0|34=343|49=GENERATOR|52=20250716-12:52:16.819|56=ACCUMULATOR|10=049|8=FIX.4.4|9=65|35=0|34=344|49=GENERATOR|52=20250716-12:52:47.094|56=ACCUMULATOR|10=049|8=FIX.4.4|9=65|35=0|34=345|49=GENERATOR|52=20250716-12:53:17.390|56=ACCUMULATOR|10=047|8=FIX.4.4|9=65|35=0|34=346|49=GENERATOR|52=20250716-12:53:47.694|56=ACCUMULATOR|10=058|8=FIX.4.4|9=65|35=0|34=347|49=GENERATOR|52=20250716-12:54:17.996|56=ACCUMULATOR|10=062|8=FIX.4.4|9=65|35=0|34=348|49=GENERATOR|52=20250716-12:54:48.273|56=ACCUMULATOR|10=055|8=FIX.4.4|9=65|35=0|34=349|49=GENERATOR|52=20250716-12:55:18.583|56=ACCUMULATOR|10=058|8=FIX.4.4|9=65|35=0|34=350|49=GENERATOR|52=20250716-12:55:48.891|56=ACCUMULATOR|10=055|8=FIX.4.4|9=65|35=0|34=351|49=GENERATOR|52=20250716-12:56:19.155|56=ACCUMULATOR|10=048|8=FIX.4.4|9=65|35=0|34=352|49=GENERATOR|52=20250716-12:56:49.417|56=ACCUMULATOR|10=053|8=FIX.4.4|9=65|35=0|34=353|49=GENERATOR|52=20250716-12:57:19.758|56=ACCUMULATOR|10=060|8=FIX.4.4|9=65|35=0|34=354|49=GENERATOR|52=20250716-12:57:50.048|56=ACCUMULATOR|10=048|8=FIX.4.4|9=65|35=0|34=355|49=GENERATOR|52=20250716-12:58:20.368|56=ACCUMULATOR|10=052|8=FIX.4.4|9=65|35=0|34=356|49=GENERATOR|52=20250716-12:58:50.649|56=ACCUMULATOR|10=058|8=FIX.4.4|9=65|35=0|34=357|49=GENERATOR|52=20250716-12:59:20.894|56=ACCUMULATOR|10=059|8=FIX.4.4|9=65|35=0|34=358|49=GENERATOR|52=20250716-12:59:51.194|56=ACCUMULATOR|10=057|8=FIX.4.4|9=65|35=0|34=359|49=GENERATOR|52=20250716-13:00:21.430|56=ACCUMULATOR|10=035|8=FIX.4.4|9=65|35=0|34=360|49=GENERATOR|52=20250716-13:00:51.716|56=ACCUMULATOR|10=037|8=FIX.4.4|9=65|35=0|34=361|49=GENERATOR|52=20250716-13:01:22.088|56=ACCUMULATOR|10=039|8=FIX.4.4|9=65|35=0|34=362|49=GENERATOR|52=20250716-13:01:52.359|56=ACCUMULATOR|10=044|8=FIX.4.4|9=65|35=0|34=363|49=GENERATOR|52=20250716-13:02:22.670|56=ACCUMULATOR|10=039|8=FIX.4.4|9=65|35=0|34=364|49=GENERATOR|52=20250716-13:02:52.979|56=ACCUMULATOR|10=055|8=FIX.4.4|9=65|35=0|34=365|49=GENERATOR|52=20250716-13:03:23.199|56=ACCUMULATOR|10=049|8=FIX.4.4|9=65|35=0|34=366|49=GENERATOR|52=20250716-13:03:53.509|56=ACCUMULATOR|10=048|8=FIX.4.4|9=65|35=0|34=367|49=GENERATOR|52=20250716-13:04:23.824|56=ACCUMULATOR|10=047|8=FIX.4.4|9=65|35=0|34=368|49=GENERATOR|52=20250716-13:04:54.064|56=ACCUMULATOR|10=048|8=FIX.4.4|9=65|35=0|34=369|49=GENERATOR|52=20250716-13:05:24.355|56=ACCUMULATOR|10=050|8=FIX.4.4|9=65|35=0|34=370|49=GENERATOR|52=20250716-13:05:54.618|56=ACCUMULATOR|10=047|8=FIX.4.4|9=65|35=0|34=371|49=GENERATOR|52=20250716-13:06:24.935|56=ACCUMULATOR|10=048|8=FIX.4.4|9=65|35=0|34=372|49=GENERATOR|52=20250716-13:06:55.229|56=ACCUMULATOR|10=049|8=FIX.4.4|9=65|35=0|34=373|49=GENERATOR|52=20250716-13:07:25.477|56=ACCUMULATOR|10=053|8=FIX.4.4|9=65|35=0|34=374|49=GENERATOR|52=20250716-13:07:55.745|56=ACCUMULATOR|10=055|8=FIX.4.4|9=65|35=0|34=375|49=GENERATOR|52=20250716-13:08:26.005|56=ACCUMULATOR|10=044|8=FIX.4.4|9=65|35=0|34=376|49=GENERATOR|52=20250716-13:08:56.276|56=ACCUMULATOR|10=058|8=FIX.4.4|9=65|35=0|34=377|49=GENERATOR|52=20250716-13:09:26.587|56=ACCUMULATOR|10=062|8=FIX.4.4|9=65|35=0|34=378|49=GENERATOR|52=20250716-13:09:56.824|56=ACCUMULATOR|10=060|8=FIX.4.4|9=65|35=0|34=379|49=GENERATOR|52=20250716-13:10:27.036|56=ACCUMULATOR|10=046|8=FIX.4.4|9=65|35=0|34=380|49=GENERATOR|52=20250716-13:10:57.303|56=ACCUMULATOR|10=038|8=FIX.4.4|9=65|35=0|34=381|49=GENERATOR|52=20250716-13:11:27.555|56=ACCUMULATOR|10=046|8=FIX.4.4|9=65|35=0|34=382|49=GENERATOR|52=20250716-13:11:57.846|56=ACCUMULATOR|10=053|8=FIX.4.4|9=65|35=0|34=383|49=GENERATOR|52=20250716-13:12:28.098|56=ACCUMULATOR|10=052|8=FIX.4.4|9=65|35=0|34=384|49=GENERATOR|52=20250716-13:12:58.357|56=ACCUMULATOR|10=054|8=FIX.4.4|9=65|35=0|34=385|49=GENERATOR|52=20250716-13:13:28.617|56=ACCUMULATOR|10=052|8=FIX.4.4|9=65|35=0|34=386|49=GENERATOR|52=20250716-13:13:58.855|56=ACCUMULATOR|10=060|8=FIX.4.4|9=65|35=0|34=387|49=GENERATOR|52=20250716-13:14:29.090|56=ACCUMULATOR|10=051|8=FIX.4.4|9=65|35=0|34=388|49=GENERATOR|52=20250716-13:14:59.340|56=ACCUMULATOR|10=053|8=FIX.4.4|9=65|35=0|34=389|49=GENERATOR|52=20250716-13:15:29.614|56=ACCUMULATOR|10=056|8=FIX.4.4|9=65|35=0|34=390|49=GENERATOR|52=20250716-13:15:59.887|56=ACCUMULATOR|10=063|8=FIX.4.4|9=65|35=0|34=391|49=GENERATOR|52=20250716-13:16:30.144|56=ACCUMULATOR|10=040|8=FIX.4.4|9=65|35=0|34=392|49=GENERATOR|52=20250716-13:17:00.398|56=ACCUMULATOR|10=050|8=FIX.4.4|9=65|35=0|34=393|49=GENERATOR|52=20250716-13:17:30.675|56=ACCUMULATOR|10=052|8=FIX.4.4|9=65|35=0|34=394|49=GENERATOR|52=20250716-13:18:00.970|56=ACCUMULATOR|10=049|8=FIX.4.4|9=65|35=0|34=395|49=GENERATOR|52=20250716-13:18:31.217|56=ACCUMULATOR|10=048|8=FIX.4.4|9=65|35=0|34=396|49=GENERATOR|52=20250716-13:19:01.460|56=ACCUMULATOR|10=047|8=FIX.4.4|9=65|35=0|34=397|49=GENERATOR|52=20250716-13:19:31.732|56=ACCUMULATOR|10=053|8=FIX.4.4|9=65|35=0|34=398|49=GENERATOR|52=20250716-13:20:02.008|56=ACCUMULATOR|10=040|8=FIX.4.4|9=65|35=0|34=399|49=GENERATOR|52=20250716-13:20:32.246|56=ACCUMULATOR|10=048|8=FIX.4.4|9=65|35=0|34=400|49=GENERATOR|52=20250716-13:21:02.536|56=ACCUMULATOR|10=031|8=FIX.4.4|9=65|35=0|34=401|49=GENERATOR|52=20250716-13:21:32.789|56=ACCUMULATOR|10=045|8=FIX.4.4|9=65|35=0|34=402|49=GENERATOR|52=20250716-13:22:03.017|56=ACCUMULATOR|10=029|8=FIX.4.4|9=65|35=0|34=403|49=GENERATOR|52=20250716-13:22:33.268|56=ACCUMULATOR|10=041|8=FIX.4.4|9=65|35=0|34=404|49=GENERATOR|52=20250716-13:23:03.529|56=ACCUMULATOR|10=040|8=FIX.4.4|9=65|35=0|34=405|49=GENERATOR|52=20250716-13:23:33.781|56=ACCUMULATOR|10=044|8=FIX.4.4|9=65|35=0|34=406|49=GENERATOR|52=20250716-13:24:04.070|56=ACCUMULATOR|10=035|8=FIX.4.4|9=65|35=0|34=407|49=GENERATOR|52=20250716-13:24:34.328|56=ACCUMULATOR|10=045|8=FIX.4.4|9=65|35=0|34=408|49=GENERATOR|52=20250716-13:25:04.551|56=ACCUMULATOR|10=042|8=FIX.4.4|9=65|35=0|34=409|49=GENERATOR|52=20250716-13:25:34.772|56=ACCUMULATOR|10=051|8=FIX.4.4|9=65|35=0|34=410|49=GENERATOR|52=20250716-13:26:05.021|56=ACCUMULATOR|10=029|8=FIX.4.4|9=65|35=0|34=411|49=GENERATOR|52=20250716-13:26:35.270|56=ACCUMULATOR|10=039|8=FIX.4.4|9=65|35=0|34=412|49=GENERATOR|52=20250716-13:27:05.527|56=ACCUMULATOR|10=043|8=FIX.4.4|9=65|35=0|34=413|49=GENERATOR|52=20250716-13:27:35.796|56=ACCUMULATOR|10=055|8=FIX.4.4|9=65|35=0|34=414|49=GENERATOR|52=20250716-13:28:06.081|56=ACCUMULATOR|10=042|8=FIX.4.4|9=65|35=0|34=415|49=GENERATOR|52=20250716-13:28:36.324|56=ACCUMULATOR|10=046|8=FIX.4.4|9=65|35=0|34=416|49=GENERATOR|52=20250716-13:29:06.547|56=ACCUMULATOR|10=052|8=FIX.4.4|9=65|35=0|34=417|49=GENERATOR|52=20250716-13:29:36.822|56=ACCUMULATOR|10=052|8=FIX.4.4|9=65|35=0|34=418|49=GENERATOR|52=20250716-13:30:07.048|56=ACCUMULATOR|10=043|8=FIX.4.4|9=65|35=0|34=419|49=GENERATOR|52=20250716-13:30:37.326|56=ACCUMULATOR|10=046|8=FIX.4.4|9=65|35=0|34=420|49=GENERATOR|52=20250716-13:31:07.585|56=ACCUMULATOR|10=043|8=FIX.4.4|9=65|35=0|34=421|49=GENERATOR|52=20250716-13:31:37.887|56=ACCUMULATOR|10=052|8=FIX.4.4|9=65|35=0|34=422|49=GENERATOR|52=20250716-13:32:08.173|56=ACCUMULATOR|10=040|8=FIX.4.4|9=65|35=0|34=423|49=GENERATOR|52=20250716-13:32:38.392|56=ACCUMULATOR|10=047|8=FIX.4.4|9=65|35=0|34=424|49=GENERATOR|52=20250716-13:33:08.648|56=ACCUMULATOR|10=050|8=FIX.4.4|9=65|35=0|34=425|49=GENERATOR|52=20250716-13:33:38.909|56=ACCUMULATOR|10=054|8=FIX.4.4|9=65|35=0|34=426|49=GENERATOR|52=20250716-13:34:09.139|56=ACCUMULATOR|10=049|8=FIX.4.4|9=65|35=0|34=427|49=GENERATOR|52=20250716-13:34:39.380|56=ACCUMULATOR|10=051|8=FIX.4.4|9=65|35=0|34=428|49=GENERATOR|52=20250716-13:35:09.626|56=ACCUMULATOR|10=053|8=FIX.4.4|9=65|35=0|34=429|49=GENERATOR|52=20250716-13:35:39.867|56=ACCUMULATOR|10=064|8=FIX.4.4|9=65|35=0|34=430|49=GENERATOR|52=20250716-13:36:10.103|56=ACCUMULATOR|10=029|8=FIX.4.4|9=65|35=0|34=431|49=GENERATOR|52=20250716-13:36:40.375|56=ACCUMULATOR|10=044|8=FIX.4.4|9=65|35=0|34=432|49=GENERATOR|52=20250716-13:37:10.649|56=ACCUMULATOR|10=047|8=FIX.4.4|9=65|35=0|34=433|49=GENERATOR|52=20250716-13:37:40.886|56=ACCUMULATOR|10=054|8=FIX.4.4|9=65|35=0|34=434|49=GENERATOR|52=20250716-13:38:11.136|56=ACCUMULATOR|10=042|8=FIX.4.4|9=65|35=0|34=435|49=GENERATOR|52=20250716-13:38:41.416|56=ACCUMULATOR|10=047|8=FIX.4.4|9=65|35=0|34=436|49=GENERATOR|52=20250716-13:39:11.651|56=ACCUMULATOR|10=047|8=FIX.4.4|9=65|35=0|34=437|49=GENERATOR|52=20250716-13:39:41.901|56=ACCUMULATOR|10=049|8=FIX.4.4|9=65|35=0|34=438|49=GENERATOR|52=20250716-13:40:12.121|56=ACCUMULATOR|10=034|8=FIX.4.4|9=65|35=0|34=439|49=GENERATOR|52=20250716-13:40:42.408|56=ACCUMULATOR|10=046|8=FIX.4.4|9=65|35=0|34=440|49=GENERATOR|52=20250716-13:41:12.654|56=ACCUMULATOR|10=039|8=FIX.4.4|9=65|35=0|34=441|49=GENERATOR|52=20250716-13:41:42.916|56=ACCUMULATOR|10=044|8=FIX.4.4|9=65|35=0|34=442|49=GENERATOR|52=20250716-13:42:13.147|56=ACCUMULATOR|10=040|8=FIX.4.4|9=65|35=0|34=443|49=GENERATOR|52=20250716-13:42:43.416|56=ACCUMULATOR|10=043|8=FIX.4.4|9=65|35=0|34=444|49=GENERATOR|52=20250716-13:43:13.686|56=ACCUMULATOR|10=051|8=FIX.4.4|9=65|35=0|34=445|49=GENERATOR|52=20250716-13:43:43.991|56=ACCUMULATOR|10=054|8=FIX.4.4|9=65|35=0|34=446|49=GENERATOR|52=20250716-13:44:14.245|56=ACCUMULATOR|10=046|8=FIX.4.4|9=65|35=0|34=447|49=GENERATOR|52=20250716-13:44:44.536|56=ACCUMULATOR|10=053|8=FIX.4.4|9=65|35=0|34=448|49=GENERATOR|52=20250716-13:45:14.791|56=ACCUMULATOR|10=055|8=FIX.4.4|9=65|35=0|34=449|49=GENERATOR|52=20250716-13:45:45.044|56=ACCUMULATOR|10=051|8=FIX.4.4|9=65|35=0|34=450|49=GENERATOR|52=20250716-13:46:15.333|56=ACCUMULATOR|10=042|8=FIX.4.4|9=65|35=0|34=451|49=GENERATOR|52=20250716-13:46:45.616|56=ACCUMULATOR|10=050|8=FIX.4.4|9=65|35=0|34=452|49=GENERATOR|52=20250716-13:47:15.853|56=ACCUMULATOR|10=052|8=FIX.4.4|9=65|35=0|34=453|49=GENERATOR|52=20250716-13:47:46.103|56=ACCUMULATOR|10=045|8=FIX.4.4|9=65|35=0|34=454|49=GENERATOR|52=20250716-13:48:16.370|56=ACCUMULATOR|10=050|8=FIX.4.4|9=65|35=0|34=455|49=GENERATOR|52=20250716-13:48:46.593|56=ACCUMULATOR|10=061|8=FIX.4.4|9=65|35=0|34=456|49=GENERATOR|52=20250716-13:49:16.893|56=ACCUMULATOR|10=063|8=FIX.4.4|9=65|35=0|34=457|49=GENERATOR|52=20250716-13:49:47.179|56=ACCUMULATOR|10=065|8=FIX.4.4|9=65|35=0|34=458|49=GENERATOR|52=20250716-13:50:17.454|56=ACCUMULATOR|10=051|8=FIX.4.4|9=65|35=0|34=459|49=GENERATOR|52=20250716-13:50:47.696|56=ACCUMULATOR|10=063|8=FIX.4.4|9=65|35=0|34=460|49=GENERATOR|52=20250716-13:51:17.975|56=ACCUMULATOR|10=053|8=FIX.4.4|9=65|35=0|34=461|49=GENERATOR|52=20250716-13:51:48.284|56=ACCUMULATOR|10=051|8=FIX.4.4|9=65|35=0|34=462|49=GENERATOR|52=20250716-13:52:18.536|56=ACCUMULATOR|10=050|8=FIX.4.4|9=65|35=0|34=463|49=GENERATOR|52=20250716-13:52:48.811|56=ACCUMULATOR|10=050|8=FIX.4.4|9=65|35=0|34=464|49=GENERATOR|52=20250716-13:53:19.065|56=ACCUMULATOR|10=051|8=FIX.4.4|9=65|35=0|34=465|49=GENERATOR|52=20250716-13:53:49.308|56=ACCUMULATOR|10=055|8=FIX.4.4|9=65|35=0|34=466|49=GENERATOR|52=20250716-13:54:19.557|56=ACCUMULATOR|10=060|8=FIX.4.4|9=65|35=0|34=467|49=GENERATOR|52=20250716-13:54:49.813|56=ACCUMULATOR|10=059|8=FIX.4.4|9=65|35=0|34=468|49=GENERATOR|52=20250716-13:55:20.079|56=ACCUMULATOR|10=054|8=FIX.4.4|9=65|35=0|34=469|49=GENERATOR|52=20250716-13:55:50.356|56=ACCUMULATOR|10=056|8=FIX.4.4|9=65|35=0|34=470|49=GENERATOR|52=20250716-13:56:20.636|56=ACCUMULATOR|10=047|8=FIX.4.4|9=65|35=0|34=471|49=GENERATOR|52=20250716-13:56:50.867|56=ACCUMULATOR|10=057|8=FIX.4.4|9=65|35=0|34=472|49=GENERATOR|52=20250716-13:57:21.142|56=ACCUMULATOR|10=043|8=FIX.4.4|9=65|35=0|34=473|49=GENERATOR|52=20250716-13:57:51.388|56=ACCUMULATOR|10=059|8=FIX.4.4|9=65|35=0|34=474|49=GENERATOR|52=20250716-13:58:21.658|56=ACCUMULATOR|10=058|8=FIX.4.4|9=65|35=0|34=475|49=GENERATOR|52=20250716-13:58:51.911|56=ACCUMULATOR|10=054|8=FIX.4.4|9=65|35=0|34=476|49=GENERATOR|52=20250716-13:59:22.200|56=ACCUMULATOR|10=045|8=FIX.4.4|9=65|35=0|34=477|49=GENERATOR|52=20250716-13:59:52.445|56=ACCUMULATOR|10=060|8=FIX.4.4|9=65|35=0|34=478|49=GENERATOR|52=20250716-14:00:22.741|56=ACCUMULATOR|10=044|8=FIX.4.4|9=65|35=0|34=479|49=GENERATOR|52=20250716-14:00:53.006|56=ACCUMULATOR|10=043|8=FIX.4.4|9=65|35=0|34=480|49=GENERATOR|52=20250716-14:01:23.247|56=ACCUMULATOR|10=040|8=FIX.4.4|9=65|35=0|34=481|49=GENERATOR|52=20250716-14:01:53.475|56=ACCUMULATOR|10=047|8=FIX.4.4|9=65|35=0|34=482|49=GENERATOR|52=20250716-14:02:23.724|56=ACCUMULATOR|10=043|8=FIX.4.4|9=65|35=0|34=483|49=GENERATOR|52=20250716-14:02:53.987|56=ACCUMULATOR|10=058|8=FIX.4.4|9=65|35=0|34=484|49=GENERATOR|52=20250716-14:03:24.252|56=ACCUMULATOR|10=043|8=FIX.4.4|9=65|35=0|34=485|49=GENERATOR|52=20250716-14:03:54.534|56=ACCUMULATOR|10=050|8=FIX.4.4|9=65|35=0|34=486|49=GENERATOR|52=20250716-14:04:24.827|56=ACCUMULATOR|10=054|8=FIX.4.4|9=65|35=0|34=487|49=GENERATOR|52=20250716-14:04:55.108|56=ACCUMULATOR|10=051|8=FIX.4.4|9=65|35=0|34=488|49=GENERATOR|52=20250716-14:05:25.363|56=ACCUMULATOR|10=053|8=FIX.4.4|9=65|35=0|34=489|49=GENERATOR|52=20250716-14:05:55.602|56=ACCUMULATOR|10=053|8=FIX.4.4|9=65|35=0|34=490|49=GENERATOR|52=20250716-14:06:25.841|56=ACCUMULATOR|10=048|8=FIX.4.4|9=65|35=0|34=491|49=GENERATOR|52=20250716-14:06:56.113|56=ACCUMULATOR|10=045|8=FIX.4.4|9=65|35=0|34=492|49=GENERATOR|52=20250716-14:07:26.384|56=ACCUMULATOR|10=054|8=FIX.4.4|9=65|35=0|34=493|49=GENERATOR|52=20250716-14:07:56.651|56=ACCUMULATOR|10=055|8=FIX.4.4|9=65|35=0|34=494|49=GENERATOR|52=20250716-14:08:26.897|56=ACCUMULATOR|10=066|8=FIX.4.4|9=65|35=0|34=495|49=GENERATOR|52=20250716-14:08:57.136|56=ACCUMULATOR|10=057|8=FIX.4.4|9=65|35=0|34=496|49=GENERATOR|52=20250716-14:09:27.405|56=ACCUMULATOR|10=055|8=FIX.4.4|9=65|35=0|34=497|49=GENERATOR|52=20250716-14:09:57.685|56=ACCUMULATOR|10=069|8=FIX.4.4|9=65|35=0|34=498|49=GENERATOR|52=20250716-14:10:27.966|56=ACCUMULATOR|10=061|8=FIX.4.4|9=65|35=0|34=499|49=GENERATOR|52=20250716-14:10:58.253|56=ACCUMULATOR|10=055|8=FIX.4.4|9=65|35=0|34=500|49=GENERATOR|52=20250716-14:11:28.573|56=ACCUMULATOR|10=041|8=FIX.4.4|9=65|35=0|34=501|49=GENERATOR|52=20250716-14:11:58.860|56=ACCUMULATOR|10=044|8=FIX.4.4|9=65|35=0|34=502|49=GENERATOR|52=20250716-14:12:29.119|56=ACCUMULATOR|10=041|8=FIX.4.4|9=65|35=0|34=503|49=GENERATOR|52=20250716-14:12:59.383|56=ACCUMULATOR|10=048|8=FIX.4.4|9=65|35=0|34=504|49=GENERATOR|52=20250716-14:13:29.650|56=ACCUMULATOR|10=044|8=FIX.4.4|9=65|35=0|34=505|49=GENERATOR|52=20250716-14:13:59.908|56=ACCUMULATOR|10=054|8=FIX.4.4|9=65|35=0|34=506|49=GENERATOR|52=20250716-14:14:30.148|56=ACCUMULATOR|10=041|8=FIX.4.4|9=65|35=0|34=507|49=GENERATOR|52=20250716-14:15:00.380|56=ACCUMULATOR|10=038|8=FIX.4.4|9=65|35=0|34=508|49=GENERATOR|52=20250716-14:15:30.581|56=ACCUMULATOR|10=045|8=FIX.4.4|9=65|35=0|34=509|49=GENERATOR|52=20250716-14:16:00.826|56=ACCUMULATOR|10=046|8=FIX.4.4|9=65|35=0|34=510|49=GENERATOR|52=20250716-14:16:31.093|56=ACCUMULATOR|10=038|8=FIX.4.4|9=65|35=0|34=511|49=GENERATOR|52=20250716-14:17:01.318|56=ACCUMULATOR|10=037|8=FIX.4.4|9=65|35=0|34=512|49=GENERATOR|52=20250716-14:17:31.568|56=ACCUMULATOR|10=048|8=FIX.4.4|9=65|35=0|34=513|49=GENERATOR|52=20250716-14:18:01.836|56=ACCUMULATOR|10=045|8=FIX.4.4|9=65|35=0|34=514|49=GENERATOR|52=20250716-14:18:32.086|56=ACCUMULATOR|10=047|8=FIX.4.4|9=65|35=0|34=515|49=GENERATOR|52=20250716-14:19:02.334|56=ACCUMULATOR|10=042|8=FIX.4.4|9=65|35=0|34=516|49=GENERATOR|52=20250716-14:19:32.558|56=ACCUMULATOR|10=054|8=FIX.4.4|9=65|35=0|34=517|49=GENERATOR|52=20250716-14:20:02.779|56=ACCUMULATOR|10=049|8=FIX.4.4|9=65|35=0|34=518|49=GENERATOR|52=20250716-14:20:33.050|56=ACCUMULATOR|10=036|8=FIX.4.4|9=65|35=0|34=519|49=GENERATOR|52=20250716-14:21:03.310|56=ACCUMULATOR|10=034|8=FIX.4.4|9=65|35=0|34=520|49=GENERATOR|52=20250716-14:21:33.596|56=ACCUMULATOR|10=045|8=FIX.4.4|9=65|35=0|34=521|49=GENERATOR|52=20250716-14:22:03.875|56=ACCUMULATOR|10=044|8=FIX.4.4|9=65|35=0|34=522|49=GENERATOR|52=20250716-14:22:34.154|56=ACCUMULATOR|10=039|8=FIX.4.4|9=65|35=0|34=523|49=GENERATOR|52=20250716-14:23:04.402|56=ACCUMULATOR|10=034|8=FIX.4.4|9=65|35=0|34=524|49=GENERATOR|52=20250716-14:23:34.673|56=ACCUMULATOR|10=048|8=FIX.4.4|9=65|35=0|34=525|49=GENERATOR|52=20250716-14:24:04.934|56=ACCUMULATOR|10=047|8=FIX.4.4|9=65|35=0|34=526|49=GENERATOR|52=20250716-14:24:35.261|56=ACCUMULATOR|10=045|8=FIX.4.4|9=65|35=0|34=527|49=GENERATOR|52=20250716-14:25:05.521|56=ACCUMULATOR|10=043|8=FIX.4.4|9=65|35=0|34=528|49=GENERATOR|52=20250716-14:25:35.756|56=ACCUMULATOR|10=057|8=FIX.4.4|9=65|35=0|34=529|49=GENERATOR|52=20250716-14:26:05.986|56=ACCUMULATOR|10=061|8=FIX.4.4|9=65|35=0|34=530|49=GENERATOR|52=20250716-14:26:36.241|56=ACCUMULATOR|10=041|8=FIX.4.4|9=65|35=0|34=531|49=GENERATOR|52=20250716-14:27:06.515|56=ACCUMULATOR|10=044|8=FIX.4.4|9=65|35=0|34=532|49=GENERATOR|52=20250716-14:27:36.780|56=ACCUMULATOR|10=052|8=FIX.4.4|9=65|35=0|34=533|49=GENERATOR|52=20250716-14:28:07.022|56=ACCUMULATOR|10=041|8=FIX.4.4|9=65|35=0|34=534|49=GENERATOR|52=20250716-14:28:37.311|56=ACCUMULATOR|10=046|8=FIX.4.4|9=65|35=0|34=535|49=GENERATOR|52=20250716-14:29:07.523|56=ACCUMULATOR|10=050|8=FIX.4.4|9=65|35=0|34=536|49=GENERATOR|52=20250716-14:29:37.777|56=ACCUMULATOR|10=065|8=FIX.4.4|9=65|35=0|34=537|49=GENERATOR|52=20250716-14:30:08.038|56=ACCUMULATOR|10=046|8=FIX.4.4|9=65|35=0|34=538|49=GENERATOR|52=20250716-14:30:38.318|56=ACCUMULATOR|10=051|8=FIX.4.4|9=65|35=0|34=539|49=GENERATOR|52=20250716-14:31:08.558|56=ACCUMULATOR|10=056|8=FIX.4.4|9=65|35=0|34=540|49=GENERATOR|52=20250716-14:31:38.802|56=ACCUMULATOR|10=043|8=FIX.4.4|9=65|35=0|34=541|49=GENERATOR|52=20250716-14:32:09.061|56=ACCUMULATOR|10=040|8=FIX.4.4|9=65|35=0|34=542|49=GENERATOR|52=20250716-14:32:39.308|56=ACCUMULATOR|10=048|8=FIX.4.4|9=65|35=0|34=543|49=GENERATOR|52=20250716-14:33:09.562|56=ACCUMULATOR|10=049|8=FIX.4.4|9=65|35=0|34=544|49=GENERATOR|52=20250716-14:33:39.830|56=ACCUMULATOR|10=051|8=FIX.4.4|9=65|35=0|34=545|49=GENERATOR|52=20250716-14:34:10.103|56=ACCUMULATOR|10=035|8=FIX.4.4|9=65|35=0|34=546|49=GENERATOR|52=20250716-14:34:40.398|56=ACCUMULATOR|10=055|8=FIX.4.4|9=65|35=0|34=547|49=GENERATOR|52=20250716-14:35:10.715|56=ACCUMULATOR|10=047|8=FIX.4.4|9=65|35=0|34=548|49=GENERATOR|52=20250716-14:35:40.984|56=ACCUMULATOR|10=059|8=FIX.4.4|9=65|35=0|34=549|49=GENERATOR|52=20250716-14:36:11.256|56=ACCUMULATOR|10=051|8=FIX.4.4|9=65|35=0|34=550|49=GENERATOR|52=20250716-14:36:41.507|56=ACCUMULATOR|10=045|8=FIX.4.4|9=65|35=0|34=551|49=GENERATOR|52=20250716-14:37:11.753|56=ACCUMULATOR|10=047|8=FIX.4.4|9=65|35=0|34=552|49=GENERATOR|52=20250716-14:37:41.984|56=ACCUMULATOR|10=057|8=FIX.4.4|9=65|35=0|34=553|49=GENERATOR|52=20250716-14:38:12.257|56=ACCUMULATOR|10=050|8=FIX.4.4|9=65|35=0|34=554|49=GENERATOR|52=20250716-14:38:42.559|56=ACCUMULATOR|10=059|8=FIX.4.4|9=65|35=0|34=555|49=GENERATOR|52=20250716-14:39:12.800|56=ACCUMULATOR|10=047|8=FIX.4.4|9=65|35=0|34=556|49=GENERATOR|52=20250716-14:39:43.062|56=ACCUMULATOR|10=052|8=FIX.4.4|9=65|35=0|34=557|49=GENERATOR|52=20250716-14:40:13.360|56=ACCUMULATOR|10=043|8=FIX.4.4|9=65|35=0|34=558|49=GENERATOR|52=20250716-14:40:43.648|56=ACCUMULATOR|10=056|8=FIX.4.4|9=65|35=0|34=559|49=GENERATOR|52=20250716-14:41:13.888|56=ACCUMULATOR|10=061|8=FIX.4.4|9=65|35=0|34=560|49=GENERATOR|52=20250716-14:41:44.149|56=ACCUMULATOR|10=047|8=FIX.4.4|9=65|35=0|34=561|49=GENERATOR|52=20250716-14:42:14.407|56=ACCUMULATOR|10=043|8=FIX.4.4|9=65|35=0|34=562|49=GENERATOR|52=20250716-14:42:44.690|56=ACCUMULATOR|10=051|8=FIX.4.4|9=65|35=0|34=563|49=GENERATOR|52=20250716-14:43:14.974|56=ACCUMULATOR|10=055|8=FIX.4.4|9=65|35=0|34=564|49=GENERATOR|52=20250716-14:43:45.243|56=ACCUMULATOR|10=049|8=FIX.4.4|9=65|35=0|34=565|49=GENERATOR|52=20250716-14:44:15.462|56=ACCUMULATOR|10=051|8=FIX.4.4|9=65|35=0|34=566|49=GENERATOR|52=20250716-14:44:45.732|56=ACCUMULATOR|10=055|8=FIX.4.4|9=65|35=0|34=567|49=GENERATOR|52=20250716-14:45:15.996|56=ACCUMULATOR|10=066|8=FIX.4.4|9=65|35=0|34=568|49=GENERATOR|52=20250716-14:45:46.243|56=ACCUMULATOR|10=056|8=FIX.4.4|9=65|35=0|34=569|49=GENERATOR|52=20250716-14:46:16.529|56=ACCUMULATOR|10=062|8=FIX.4.4|9=65|35=0|34=570|49=GENERATOR|52=20250716-14:46:46.785|56=ACCUMULATOR|10=061|8=FIX.4.4|9=65|35=0|34=571|49=GENERATOR|52=20250716-14:47:17.011|56=ACCUMULATOR|10=043|8=FIX.4.4|9=65|35=0|34=572|49=GENERATOR|52=20250716-14:47:47.272|56=ACCUMULATOR|10=056|8=FIX.4.4|9=65|35=0|34=573|49=GENERATOR|52=20250716-14:48:17.579|56=ACCUMULATOR|10=065|8=FIX.4.4|9=65|35=0|34=574|49=GENERATOR|52=20250716-14:48:47.830|56=ACCUMULATOR|10=059|8=FIX.4.4|9=65|35=0|34=575|49=GENERATOR|52=20250716-14:49:18.095|56=ACCUMULATOR|10=062|8=FIX.4.4|9=65|35=0|34=576|49=GENERATOR|52=20250716-14:49:48.378|56=ACCUMULATOR|10=070|8=FIX.4.4|9=65|35=0|34=577|49=GENERATOR|52=20250716-14:50:18.616|56=ACCUMULATOR|10=055|8=FIX.4.4|9=65|35=0|34=578|49=GENERATOR|52=20250716-14:50:48.866|56=ACCUMULATOR|10=066|8=FIX.4.4|9=65|35=0|34=579|49=GENERATOR|52=20250716-14:51:19.163|56=ACCUMULATOR|10=056|8=FIX.4.4|9=65|35=0|34=580|49=GENERATOR|52=20250716-14:51:49.437|56=ACCUMULATOR|10=055|8=FIX.4.4|9=65|35=0|34=581|49=GENERATOR|52=20250716-14:52:19.705|56=ACCUMULATOR|10=052|8=FIX.4.4|9=65|35=0|34=582|49=GENERATOR|52=20250716-14:52:49.983|56=ACCUMULATOR|10=064|8=FIX.4.4|9=65|35=0|34=583|49=GENERATOR|52=20250716-14:53:20.229|56=ACCUMULATOR|10=048|8=FIX.4.4|9=65|35=0|34=584|49=GENERATOR|52=20250716-14:53:50.490|56=ACCUMULATOR|10=052|8=FIX.4.4|9=65|35=0|34=585|49=GENERATOR|52=20250716-14:54:20.795|56=ACCUMULATOR|10=059|8=FIX.4.4|9=65|35=0|34=586|49=GENERATOR|52=20250716-14:54:51.081|56=ACCUMULATOR|10=052|8=FIX.4.4|9=65|35=0|34=587|49=GENERATOR|52=20250716-14:55:21.329|56=ACCUMULATOR|10=056|8=FIX.4.4|9=65|35=0|34=588|49=GENERATOR|52=20250716-14:55:51.589|56=ACCUMULATOR|10=068|8=FIX.4.4|9=65|35=0|34=589|49=GENERATOR|52=20250716-14:56:21.797|56=ACCUMULATOR|10=068|8=FIX.4.4|9=65|35=0|34=590|49=GENERATOR|52=20250716-14:56:52.046|56=ACCUMULATOR|10=051|8=FIX.4.4|9=65|35=0|34=591|49=GENERATOR|52=20250716-14:57:22.293|56=ACCUMULATOR|10=054|8=FIX.4.4|9=65|35=0|34=592|49=GENERATOR|52=20250716-14:57:52.538|56=ACCUMULATOR|10=060|8=FIX.4.4|9=65|35=0|34=593|49=GENERATOR|52=20250716-14:58:22.817|56=ACCUMULATOR|10=059|8=FIX.4.4|9=65|35=0|34=594|49=GENERATOR|52=20250716-14:58:53.057|56=ACCUMULATOR|10=060|8=FIX.4.4|9=65|35=0|34=595|49=GENERATOR|52=20250716-14:59:23.316|56=ACCUMULATOR|10=057|8=FIX.4.4|9=65|35=0|34=596|49=GENERATOR|52=20250716-14:59:53.545|56=ACCUMULATOR|10=065|8=FIX.4.4|9=65|35=0|34=597|49=GENERATOR|52=20250716-15:00:23.807|56=ACCUMULATOR|10=051|8=FIX.4.4|9=65|35=0|34=598|49=GENERATOR|52=20250716-15:00:54.061|56=ACCUMULATOR|10=048|8=FIX.4.4|9=65|35=0|34=599|49=GENERATOR|52=20250716-15:01:24.304|56=ACCUMULATOR|10=047|8=FIX.4.4|9=65|35=0|34=600|49=GENERATOR|52=20250716-15:01:54.545|56=ACCUMULATOR|10=040|8=FIX.4.4|9=65|35=0|34=601|49=GENERATOR|52=20250716-15:02:24.792|56=ACCUMULATOR|10=043|8=FIX.4.4|9=65|35=0|34=602|49=GENERATOR|52=20250716-15:02:55.027|56=ACCUMULATOR|10=039|8=FIX.4.4|9=65|35=0|34=603|49=GENERATOR|52=20250716-15:03:25.254|56=ACCUMULATOR|10=040|8=FIX.4.4|9=65|35=0|34=604|49=GENERATOR|52=20250716-15:03:55.523|56=ACCUMULATOR|10=043|8=FIX.4.4|9=65|35=0|34=605|49=GENERATOR|52=20250716-15:04:25.728|56=ACCUMULATOR|10=049|8=FIX.4.4|9=65|35=0|34=606|49=GENERATOR|52=20250716-15:04:55.975|56=ACCUMULATOR|10=057|8=FIX.4.4|9=65|35=0|34=607|49=GENERATOR|52=20250716-15:05:26.204|56=ACCUMULATOR|10=042|8=FIX.4.4|9=65|35=0|34=608|49=GENERATOR|52=20250716-15:05:56.420|56=ACCUMULATOR|10=046|8=FIX.4.4|9=65|35=0|34=609|49=GENERATOR|52=20250716-15:06:26.679|56=ACCUMULATOR|10=061|8=FIX.4.4|9=65|35=0|34=610|49=GENERATOR|52=20250716-15:06:56.924|56=ACCUMULATOR|10=049|8=FIX.4.4|9=65|35=0|34=611|49=GENERATOR|52=20250716-15:07:27.118|56=ACCUMULATOR|10=044|8=FIX.4.4|9=65|35=0|34=612|49=GENERATOR|52=20250716-15:07:57.355|56=ACCUMULATOR|10=051|8=FIX.4.4|9=65|35=0|34=613|49=GENERATOR|52=20250716-15:08:27.568|56=ACCUMULATOR|10=056|8=FIX.4.4|9=65|35=0|34=614|49=GENERATOR|52=20250716-15:08:57.841|56=ACCUMULATOR|10=054|8=FIX.4.4|9=65|35=0|34=615|49=GENERATOR|52=20250716-15:09:28.087|56=ACCUMULATOR|10=056|8=FIX.4.4|9=65|35=0|34=616|49=GENERATOR|52=20250716-15:09:58.318|56=ACCUMULATOR|10=057|8=FIX.4.4|9=65|35=0|34=617|49=GENERATOR|52=20250716-15:10:28.576|56=ACCUMULATOR|10=053|8=FIX.4.4|9=65|35=0|34=618|49=GENERATOR|52=20250716-15:10:58.818|56=ACCUMULATOR|10=056|8=FIX.4.4|9=65|35=0|34=619|49=GENERATOR|52=20250716-15:11:29.073|56=ACCUMULATOR|10=049|8=FIX.4.4|9=65|35=0|34=620|49=GENERATOR|52=20250716-15:11:59.272|56=ACCUMULATOR|10=045|8=FIX.4.4|9=65|35=0|34=621|49=GENERATOR|52=20250716-15:12:29.546|56=ACCUMULATOR|10=048|8=FIX.4.4|9=65|35=0|34=622|49=GENERATOR|52=20250716-15:12:59.811|56=ACCUMULATOR|10=047|8=FIX.4.4|9=65|35=0|34=623|49=GENERATOR|52=20250716-15:13:30.019|56=ACCUMULATOR|10=038|8=FIX.4.4|9=65|35=0|34=624|49=GENERATOR|52=20250716-15:14:00.250|56=ACCUMULATOR|10=034|8=FIX.4.4|9=65|35=0|34=625|49=GENERATOR|52=20250716-15:14:30.519|56=ACCUMULATOR|10=046|8=FIX.4.4|9=65|35=0|34=626|49=GENERATOR|52=20250716-15:15:00.787|56=ACCUMULATOR|10=052|8=FIX.4.4|9=65|35=0|34=627|49=GENERATOR|52=20250716-15:15:31.025|56=ACCUMULATOR|10=042|8=FIX.4.4|9=65|35=0|34=628|49=GENERATOR|52=20250716-15:16:01.287|56=ACCUMULATOR|10=051|8=FIX.4.4|9=65|35=0|34=629|49=GENERATOR|52=20250716-15:16:31.525|56=ACCUMULATOR|10=050|8=FIX.4.4|9=65|35=0|34=630|49=GENERATOR|52=20250716-15:17:01.757|56=ACCUMULATOR|10=047|8=FIX.4.4|9=65|35=0|34=631|49=GENERATOR|52=20250716-15:17:31.985|56=ACCUMULATOR|10=054|8=FIX.4.4|9=65|35=0|34=632|49=GENERATOR|52=20250716-15:18:02.229|56=ACCUMULATOR|10=045|8=FIX.4.4|9=65|35=0|34=633|49=GENERATOR|52=20250716-15:18:32.459|56=ACCUMULATOR|10=054|8=FIX.4.4|9=65|35=0|34=634|49=GENERATOR|52=20250716-15:19:02.714|56=ACCUMULATOR|10=047|8=FIX.4.4|9=65|35=0|34=635|49=GENERATOR|52=20250716-15:19:32.953|56=ACCUMULATOR|10=056|8=FIX.4.4|9=65|35=0|34=636|49=GENERATOR|52=20250716-15:20:03.207|56=ACCUMULATOR|10=039|8=FIX.4.4|9=65|35=0|34=637|49=GENERATOR|52=20250716-15:20:33.444|56=ACCUMULATOR|10=046|8=FIX.4.4|9=65|35=0|34=638|49=GENERATOR|52=20250716-15:21:03.644|56=ACCUMULATOR|10=047|8=FIX.4.4|9=65|35=0|34=639|49=GENERATOR|52=20250716-15:21:33.860|56=ACCUMULATOR|10=051|8=FIX.4.4|9=65|35=0|34=640|49=GENERATOR|52=20250716-15:22:04.087|56=ACCUMULATOR|10=043|8=FIX.4.4|9=65|35=0|34=641|49=GENERATOR|52=20250716-15:22:34.357|56=ACCUMULATOR|10=047|8=FIX.4.4|9=65|35=0|34=642|49=GENERATOR|52=20250716-15:23:04.585|56=ACCUMULATOR|10=049|8=FIX.4.4|9=65|35=0|34=643|49=GENERATOR|52=20250716-15:23:34.827|56=ACCUMULATOR|10=052|8=FIX.4.4|9=65|35=0|34=644|49=GENERATOR|52=20250716-15:24:05.086|56=ACCUMULATOR|10=049|8=FIX.4.4|9=65|35=0|34=645|49=GENERATOR|52=20250716-15:24:35.371|56=ACCUMULATOR|10=050|8=FIX.4.4|9=65|35=0|34=646|49=GENERATOR|52=20250716-15:25:05.633|56=ACCUMULATOR|10=050|8=FIX.4.4|9=65|35=0|34=647|49=GENERATOR|52=20250716-15:25:35.863|56=ACCUMULATOR|10=059|8=FIX.4.4|9=65|35=0|34=648|49=GENERATOR|52=20250716-15:26:06.119|56=ACCUMULATOR|10=053|8=FIX.4.4|9=65|35=0|34=649|49=GENERATOR|52=20250716-15:26:36.378|56=ACCUMULATOR|10=064|8=FIX.4.4|9=65|35=0|34=650|49=GENERATOR|52=20250716-15:27:06.647|56=ACCUMULATOR|10=053|8=FIX.4.4|9=65|35=0|34=651|49=GENERATOR|52=20250716-15:27:36.929|56=ACCUMULATOR|10=060|8=FIX.4.4|9=65|35=0|34=652|49=GENERATOR|52=20250716-15:28:07.202|56=ACCUMULATOR|10=044|8=FIX.4.4|9=65|35=0|34=653|49=GENERATOR|52=20250716-15:28:37.430|56=ACCUMULATOR|10=051|8=FIX.4.4|9=65|35=0|34=654|49=GENERATOR|52=20250716-15:29:07.694|56=ACCUMULATOR|10=062|8=FIX.4.4|9=65|35=0|34=655|49=GENERATOR|52=20250716-15:29:37.998|56=ACCUMULATOR|10=073|8=FIX.4.4|9=65|35=0|34=656|49=GENERATOR|52=20250716-15:30:08.244|56=ACCUMULATOR|10=048|8=FIX.4.4|9=65|35=0|34=657|49=GENERATOR|52=20250716-15:30:38.489|56=ACCUMULATOR|10=063|8=FIX.4.4|9=65|35=0|34=658|49=GENERATOR|52=20250716-15:31:08.752|56=ACCUMULATOR|10=055|8=FIX.4.4|9=65|35=0|34=659|49=GENERATOR|52=20250716-15:31:38.999|56=ACCUMULATOR|10=072|8=FIX.4.4|9=65|35=0|34=660|49=GENERATOR|52=20250716-15:32:09.288|56=ACCUMULATOR|10=054|8=FIX.4.4|9=65|35=0|34=661|49=GENERATOR|52=20250716-15:32:39.533|56=ACCUMULATOR|10=051|8=FIX.4.4|9=65|35=0|34=662|49=GENERATOR|52=20250716-15:33:09.756|56=ACCUMULATOR|10=057|8=FIX.4.4|9=65|35=0|34=663|49=GENERATOR|52=20250716-15:33:39.980|56=ACCUMULATOR|10=060|8=FIX.4.4|9=65|35=0|34=664|49=GENERATOR|52=20250716-15:34:10.229|56=ACCUMULATOR|10=047|8=FIX.4.4|9=65|35=0|34=665|49=GENERATOR|52=20250716-15:34:40.492|56=ACCUMULATOR|10=053|8=FIX.4.4|9=65|35=0|34=666|49=GENERATOR|52=20250716-15:35:10.787|56=ACCUMULATOR|10=059|8=FIX.4.4|9=65|35=0|34=667|49=GENERATOR|52=20250716-15:35:41.021|56=ACCUMULATOR|10=045|8=FIX.4.4|9=65|35=0|34=668|49=GENERATOR|52=20250716-15:36:11.254|56=ACCUMULATOR|10=052|8=FIX.4.4|9=65|35=0|34=669|49=GENERATOR|52=20250716-15:36:41.490|56=ACCUMULATOR|10=058|8=FIX.4.4|9=65|35=0|34=670|49=GENERATOR|52=20250716-15:37:11.733|56=ACCUMULATOR|10=048|8=FIX.4.4|9=77|35=A|34=671|49=GENERATOR|52=20250716-16:14:43.044|56=ACCUMULATOR|98=0|108=30|10=090|8=FIX.4.4|9=65|35=0|34=672|49=GENERATOR|52=20250716-16:15:13.251|56=ACCUMULATOR|10=044|8=FIX.4.4|9=65|35=0|34=673|49=GENERATOR|52=20250716-16:15:43.454|56=ACCUMULATOR|10=053|8=FIX.4.4|9=65|35=0|34=674|49=GENERATOR|52=20250716-16:16:13.660|56=ACCUMULATOR|10=051|8=FIX.4.4|9=65|35=0|34=675|49=GENERATOR|52=20250716-16:16:43.896|56=ACCUMULATOR|10=066|8=FIX.4.4|9=65|35=0|34=676|49=GENERATOR|52=20250716-16:17:14.143|56=ACCUMULATOR|10=051|8=FIX.4.4|9=65|35=0|34=677|49=GENERATOR|52=20250716-16:17:44.385|56=ACCUMULATOR|10=063|8=FIX.4.4|9=65|35=0|34=678|49=GENERATOR|52=20250716-16:18:14.579|56=ACCUMULATOR|10=067|8=FIX.4.4|9=65|35=0|34=679|49=GENERATOR|52=20250716-16:18:44.875|56=ACCUMULATOR|10=070|8=FIX.4.4|9=65|35=0|34=680|49=GENERATOR|52=20250716-16:19:15.108|56=ACCUMULATOR|10=050|8=FIX.4.4|9=65|35=0|34=681|49=GENERATOR|52=20250716-16:19:45.336|56=ACCUMULATOR|10=057|8=FIX.4.4|9=65|35=0|34=682|49=GENERATOR|52=20250716-16:20:15.573|56=ACCUMULATOR|10=050|8=FIX.4.4|9=65|35=0|34=683|49=GENERATOR|52=20250716-16:20:45.810|56=ACCUMULATOR|10=048|8=FIX.4.4|9=65|35=0|34=684|49=GENERATOR|52=20250716-16:21:16.027|56=ACCUMULATOR|10=048|8=FIX.4.4|9=65|35=0|34=685|49=GENERATOR|52=20250716-16:21:46.254|56=ACCUMULATOR|10=054|8=FIX.4.4|9=65|35=0|34=686|49=GENERATOR|52=20250716-16:22:16.500|56=ACCUMULATOR|10=047|8=FIX.4.4|9=65|35=0|34=687|49=GENERATOR|52=20250716-16:22:46.742|56=ACCUMULATOR|10=059|8=FIX.4.4|9=65|35=0|34=688|49=GENERATOR|52=20250716-16:23:17.020|56=ACCUMULATOR|10=048|8=FIX.4.4|9=65|35=0|34=689|49=GENERATOR|52=20250716-16:23:47.262|56=ACCUMULATOR|10=060|8=FIX.4.4|9=65|35=0|34=690|49=GENERATOR|52=20250716-16:24:17.482|56=ACCUMULATOR|10=054|8=FIX.4.4|9=65|35=0|34=691|49=GENERATOR|52=20250716-16:24:47.682|56=ACCUMULATOR|10=060|8=FIX.4.4|9=65|35=0|34=692|49=GENERATOR|52=20250716-16:25:17.945|56=ACCUMULATOR|10=061|8=FIX.4.4|9=65|35=0|34=693|49=GENERATOR|52=20250716-16:25:48.149|56=ACCUMULATOR|10=062|8=FIX.4.4|9=65|35=0|34=694|49=GENERATOR|52=20250716-16:26:18.422|56=ACCUMULATOR|10=055|8=FIX.4.4|9=65|35=0|34=695|49=GENERATOR|52=20250716-16:26:48.703|56=ACCUMULATOR|10=061|8=FIX.4.4|9=65|35=0|34=696|49=GENERATOR|52=20250716-16:27:18.963|56=ACCUMULATOR|10=068|8=FIX.4.4|9=65|35=0|34=697|49=GENERATOR|52=20250716-16:27:49.176|56=ACCUMULATOR|10=069|8=FIX.4.4|9=65|35=0|34=698|49=GENERATOR|52=20250716-16:28:19.404|56=ACCUMULATOR|10=062|8=FIX.4.4|9=65|35=0|34=699|49=GENERATOR|52=20250716-16:28:49.649|56=ACCUMULATOR|10=077|8=FIX.4.4|9=65|35=0|34=700|49=GENERATOR|52=20250716-16:29:19.916|56=ACCUMULATOR|10=055|8=FIX.4.4|9=65|35=0|34=701|49=GENERATOR|52=20250716-16:29:50.137|56=ACCUMULATOR|10=046|8=FIX.4.4|9=65|35=0|34=702|49=GENERATOR|52=20250716-16:30:20.342|56=ACCUMULATOR|10=034|8=FIX.4.4|9=65|35=0|34=703|49=GENERATOR|52=20250716-16:30:50.621|56=ACCUMULATOR|10=038|8=FIX.4.4|9=65|35=0|34=704|49=GENERATOR|52=20250716-16:31:20.853|56=ACCUMULATOR|10=044|8=FIX.4.4|9=65|35=0|34=705|49=GENERATOR|52=20250716-16:31:51.132|56=ACCUMULATOR|10=039|8=FIX.4.4|9=65|35=0|34=706|49=GENERATOR|52=20250716-16:32:21.369|56=ACCUMULATOR|10=050|8=FIX.4.4|9=65|35=0|34=707|49=GENERATOR|52=20250716-16:32:51.614|56=ACCUMULATOR|10=047|8=FIX.4.4|9=65|35=0|34=708|49=GENERATOR|52=20250716-16:33:21.863|56=ACCUMULATOR|10=052|8=FIX.4.4|9=65|35=0|34=709|49=GENERATOR|52=20250716-16:33:52.091|56=ACCUMULATOR|10=050|8=FIX.4.4|9=65|35=0|34=710|49=GENERATOR|52=20250716-16:34:22.330|56=ACCUMULATOR|10=036|8=FIX.4.4|9=65|35=0|34=711|49=GENERATOR|52=20250716-16:34:52.598|56=ACCUMULATOR|10=056|8=FIX.4.4|9=65|35=0|34=712|49=GENERATOR|52=20250716-16:35:22.861|56=ACCUMULATOR|10=048|8=FIX.4.4|9=65|35=0|34=713|49=GENERATOR|52=20250716-16:35:53.109|56=ACCUMULATOR|10=048|8=FIX.4.4|9=65|35=0|34=714|49=GENERATOR|52=20250716-16:36:23.363|56=ACCUMULATOR|10=049|8=FIX.4.4|9=65|35=0|34=715|49=GENERATOR|52=20250716-16:36:53.635|56=ACCUMULATOR|10=055|8=FIX.4.4|9=65|35=0|34=716|49=GENERATOR|52=20250716-16:37:23.904|56=ACCUMULATOR|10=053|8=FIX.4.4|9=65|35=0|34=717|49=GENERATOR|52=20250716-16:37:54.142|56=ACCUMULATOR|10=052|8=FIX.4.4|9=65|35=0|34=718|49=GENERATOR|52=20250716-16:38:24.384|56=ACCUMULATOR|10=059|8=FIX.4.4|9=65|35=0|34=719|49=GENERATOR|52=20250716-16:38:54.621|56=ACCUMULATOR|10=057|8=FIX.4.4|9=65|35=0|34=720|49=GENERATOR|52=20250716-16:39:24.836|56=ACCUMULATOR|10=055|8=FIX.4.4|9=65|35=0|34=721|49=GENERATOR|52=20250716-16:39:55.136|56=ACCUMULATOR|10=053|8=FIX.4.4|9=65|35=0|34=722|49=GENERATOR|52=20250716-16:40:25.329|56=ACCUMULATOR|10=047|8=FIX.4.4|9=65|35=0|34=723|49=GENERATOR|52=20250716-16:40:55.552|56=ACCUMULATOR|10=049|8=FIX.4.4|9=65|35=0|34=724|49=GENERATOR|52=20250716-16:41:25.813|56=ACCUMULATOR|10=048|8=FIX.4.4|9=65|35=0|34=725|49=GENERATOR|52=20250716-16:41:56.065|56=ACCUMULATOR|10=052|8=FIX.4.4|9=65|35=0|34=726|49=GENERATOR|52=20250716-16:42:26.283|56=ACCUMULATOR|10=053|8=FIX.4.4|9=65|35=0|34=727|49=GENERATOR|52=20250716-16:42:56.514|56=ACCUMULATOR|10=054|8=FIX.4.4|9=65|35=0|34=728|49=GENERATOR|52=20250716-16:43:26.782|56=ACCUMULATOR|10=060|8=FIX.4.4|9=65|35=0|34=729|49=GENERATOR|52=20250716-16:43:56.982|56=ACCUMULATOR|10=066|8=FIX.4.4|9=65|35=0|34=730|49=GENERATOR|52=20250716-16:44:27.226|56=ACCUMULATOR|10=048|8=FIX.4.4|9=65|35=0|34=731|49=GENERATOR|52=20250716-16:44:57.434|56=ACCUMULATOR|10=053|8=FIX.4.4|9=77|35=A|34=732|49=GENERATOR|52=20250716-17:05:09.005|56=ACCUMULATOR|98=0|108=30|10=088|8=FIX.4.4|9=65|35=0|34=733|49=GENERATOR|52=20250716-17:05:39.293|56=ACCUMULATOR|10=056|8=FIX.4.4|9=65|35=0|34=734|49=GENERATOR|52=20250716-17:06:09.543|56=ACCUMULATOR|10=053|8=FIX.4.4|9=65|35=0|34=735|49=GENERATOR|52=20250716-17:06:39.783|56=ACCUMULATOR|10=063|8=FIX.4.4|9=65|35=0|34=736|49=GENERATOR|52=20250716-17:07:10.067|56=ACCUMULATOR|10=049|8=FIX.4.4|9=65|35=0|34=737|49=GENERATOR|52=20250716-17:07:40.406|56=ACCUMULATOR|10=050|8=FIX.4.4|9=65|35=0|34=738|49=GENERATOR|52=20250716-17:08:10.713|56=ACCUMULATOR|10=050|8=FIX.4.4|9=65|35=0|34=739|49=GENERATOR|52=20250716-17:08:41.058|56=ACCUMULATOR|10=057|8=FIX.4.4|9=65|35=0|34=740|49=GENERATOR|52=20250716-17:09:11.335|56=ACCUMULATOR|10=045|8=FIX.4.4|9=65|35=0|34=741|49=GENERATOR|52=20250716-17:09:41.638|56=ACCUMULATOR|10=055|8=FIX.4.4|9=65|35=0|34=742|49=GENERATOR|52=20250716-17:10:11.950|56=ACCUMULATOR|10=042|8=FIX.4.4|9=65|35=0|34=743|49=GENERATOR|52=20250716-17:10:42.293|56=ACCUMULATOR|10=047|8=FIX.4.4|9=65|35=0|34=744|49=GENERATOR|52=20250716-17:11:12.578|56=ACCUMULATOR|10=052|8=FIX.4.4|9=65|35=0|34=745|49=GENERATOR|52=20250716-17:11:42.890|56=ACCUMULATOR|10=053|8=FIX.4.4|9=65|35=0|34=746|49=GENERATOR|52=20250716-17:12:13.197|56=ACCUMULATOR|10=053|8=FIX.4.4|9=65|35=0|34=747|49=GENERATOR|52=20250716-17:12:43.503|56=ACCUMULATOR|10=048|8=FIX.4.4|9=65|35=0|34=748|49=GENERATOR|52=20250716-17:13:13.838|56=ACCUMULATOR|10=058|8=FIX.4.4|9=65|35=0|34=749|49=GENERATOR|52=20250716-17:13:44.143|56=ACCUMULATOR|10=052|8=FIX.4.4|9=65|35=0|34=750|49=GENERATOR|52=20250716-17:14:14.456|56=ACCUMULATOR|10=049|8=FIX.4.4|9=65|35=0|34=751|49=GENERATOR|52=20250716-17:14:44.761|56=ACCUMULATOR|10=052|8=FIX.4.4|9=65|35=0|34=752|49=GENERATOR|52=20250716-17:15:15.042|56=ACCUMULATOR|10=044|8=FIX.4.4|9=65|35=0|34=753|49=GENERATOR|52=20250716-17:15:45.341|56=ACCUMULATOR|10=050|8=FIX.4.4|9=65|35=0|34=754|49=GENERATOR|52=20250716-17:16:15.697|56=ACCUMULATOR|10=063|8=FIX.4.4|9=65|35=0|34=755|49=GENERATOR|52=20250716-17:16:45.987|56=ACCUMULATOR|10=069|8=FIX.4.4|9=65|35=0|34=756|49=GENERATOR|52=20250716-17:17:16.354|56=ACCUMULATOR|10=057|8=FIX.4.4|9=65|35=0|34=757|49=GENERATOR|52=20250716-17:17:46.622|56=ACCUMULATOR|10=059|8=FIX.4.4|9=65|35=0|34=758|49=GENERATOR|52=20250716-17:18:16.896|56=ACCUMULATOR|10=071|8=FIX.4.4|9=65|35=0|34=759|49=GENERATOR|52=20250716-17:18:47.196|56=ACCUMULATOR|10=069|8=FIX.4.4|9=65|35=0|34=760|49=GENERATOR|52=20250716-17:19:17.513|56=ACCUMULATOR|10=052|8=FIX.4.4|9=65|35=0|34=761|49=GENERATOR|52=20250716-17:19:47.817|56=ACCUMULATOR|10=063|8=FIX.4.4|9=65|35=0|34=762|49=GENERATOR|52=20250716-17:20:18.108|56=ACCUMULATOR|10=047|8=FIX.4.4|9=65|35=0|34=763|49=GENERATOR|52=20250716-17:20:48.433|56=ACCUMULATOR|10=052|8=FIX.4.4|9=65|35=0|34=764|49=GENERATOR|52=20250716-17:21:18.700|56=ACCUMULATOR|10=048|8=FIX.4.4|9=65|35=0|34=765|49=GENERATOR|52=20250716-17:21:49.025|56=ACCUMULATOR|10=053|8=FIX.4.4|9=65|35=0|34=766|49=GENERATOR|52=20250716-17:22:19.286|56=ACCUMULATOR|10=061|8=FIX.4.4|9=65|35=0|34=767|49=GENERATOR|52=20250716-17:22:49.594|56=ACCUMULATOR|10=067|8=FIX.4.4|9=65|35=0|34=768|49=GENERATOR|52=20250716-17:23:19.954|56=ACCUMULATOR|10=066|8=FIX.4.4|9=65|35=0|34=769|49=GENERATOR|52=20250716-17:23:50.211|56=ACCUMULATOR|10=048|8=FIX.4.4|9=65|35=0|34=770|49=GENERATOR|52=20250716-17:24:20.528|56=ACCUMULATOR|10=049|8=FIX.4.4|9=65|35=0|34=771|49=GENERATOR|52=20250716-17:24:50.829|56=ACCUMULATOR|10=057|8=FIX.4.4|9=65|35=0|34=772|49=GENERATOR|52=20250716-17:25:21.151|56=ACCUMULATOR|10=045|8=FIX.4.4|9=65|35=0|34=773|49=GENERATOR|52=20250716-17:25:51.423|56=ACCUMULATOR|10=051|8=FIX.4.4|9=65|35=0|34=774|49=GENERATOR|52=20250716-17:26:21.755|56=ACCUMULATOR|10=058|8=FIX.4.4|9=65|35=0|34=775|49=GENERATOR|52=20250716-17:26:52.072|56=ACCUMULATOR|10=055|8=FIX.4.4|9=65|35=0|34=776|49=GENERATOR|52=20250716-17:27:22.386|56=ACCUMULATOR|10=062|8=FIX.4.4|9=65|35=0|34=777|49=GENERATOR|52=20250716-17:27:52.707|56=ACCUMULATOR|10=063|8=FIX.4.4|9=65|35=0|34=778|49=GENERATOR|52=20250716-17:28:22.941|56=ACCUMULATOR|10=062|8=FIX.4.4|9=65|35=0|34=779|49=GENERATOR|52=20250716-17:28:53.248|56=ACCUMULATOR|10=067|8=FIX.4.4|9=65|35=0|34=780|49=GENERATOR|52=20250716-17:29:23.586|56=ACCUMULATOR|10=062|8=FIX.4.4|9=65|35=0|34=781|49=GENERATOR|52=20250716-17:29:53.869|56=ACCUMULATOR|10=070|8=FIX.4.4|9=65|35=0|34=782|49=GENERATOR|52=20250716-17:30:24.124|56=ACCUMULATOR|10=045|8=FIX.4.4|9=65|35=0|34=783|49=GENERATOR|52=20250716-17:30:54.417|56=ACCUMULATOR|10=054|8=FIX.4.4|9=65|35=0|34=784|49=GENERATOR|52=20250716-17:31:24.655|56=ACCUMULATOR|10=057|8=FIX.4.4|9=65|35=0|34=785|49=GENERATOR|52=20250716-17:31:54.987|56=ACCUMULATOR|10=069|8=FIX.4.4|9=65|35=0|34=786|49=GENERATOR|52=20250716-17:32:25.274|56=ACCUMULATOR|10=058|8=FIX.4.4|9=65|35=0|34=787|49=GENERATOR|52=20250716-17:32:55.570|56=ACCUMULATOR|10=061|8=FIX.4.4|9=65|35=0|34=788|49=GENERATOR|52=20250716-17:33:25.865|56=ACCUMULATOR|10=067|8=FIX.4.4|9=65|35=0|34=789|49=GENERATOR|52=20250716-17:33:56.104|56=ACCUMULATOR|10=058|8=FIX.4.4|9=65|35=0|34=790|49=GENERATOR|52=20250716-17:34:26.381|56=ACCUMULATOR|10=055|8=FIX.4.4|9=65|35=0|34=791|49=GENERATOR|52=20250716-17:34:56.641|56=ACCUMULATOR|10=058|8=FIX.4.4|9=65|35=0|34=792|49=GENERATOR|52=20250716-17:35:26.929|56=ACCUMULATOR|10=066|8=FIX.4.4|9=65|35=0|34=793|49=GENERATOR|52=20250716-17:35:57.185|56=ACCUMULATOR|10=065|8=FIX.4.4|9=65|35=0|34=794|49=GENERATOR|52=20250716-17:36:27.510|56=ACCUMULATOR|10=056|8=FIX.4.4|9=65|35=0|34=795|49=GENERATOR|52=20250716-17:36:57.780|56=ACCUMULATOR|10=069|8=FIX.4.4|9=65|35=0|34=796|49=GENERATOR|52=20250716-17:37:28.099|56=ACCUMULATOR|10=072|8=FIX.4.4|9=65|35=0|34=797|49=GENERATOR|52=20250716-17:37:58.423|56=ACCUMULATOR|10=067|8=FIX.4.4|9=65|35=0|34=798|49=GENERATOR|52=20250716-17:38:28.688|56=ACCUMULATOR|10=079|8=FIX.4.4|9=65|35=0|34=799|49=GENERATOR|52=20250716-17:38:58.963|56=ACCUMULATOR|10=079|8=FIX.4.4|9=65|35=0|34=800|49=GENERATOR|52=20250716-17:39:29.250|56=ACCUMULATOR|10=050|8=FIX.4.4|9=65|35=0|34=801|49=GENERATOR|52=20250716-17:39:59.531|56=ACCUMULATOR|10=056|8=FIX.4.4|9=65|35=0|34=802|49=GENERATOR|52=20250716-17:40:29.858|56=ACCUMULATOR|10=058|8=FIX.4.4|9=65|35=0|34=803|49=GENERATOR|52=20250716-17:41:00.165|56=ACCUMULATOR|10=040|8=FIX.4.4|9=65|35=0|34=804|49=GENERATOR|52=20250716-17:41:30.460|56=ACCUMULATOR|10=042|8=FIX.4.4|9=65|35=0|34=805|49=GENERATOR|52=20250716-17:42:00.788|56=ACCUMULATOR|10=054|8=FIX.4.4|9=65|35=0|34=806|49=GENERATOR|52=20250716-17:42:31.087|56=ACCUMULATOR|10=051|8=FIX.4.4|9=65|35=0|34=807|49=GENERATOR|52=20250716-17:43:01.404|56=ACCUMULATOR|10=043|8=FIX.4.4|9=65|35=0|34=808|49=GENERATOR|52=20250716-17:43:31.729|56=ACCUMULATOR|10=057|8=FIX.4.4|9=65|35=0|34=809|49=GENERATOR|52=20250716-17:44:01.987|56=ACCUMULATOR|10=062|8=FIX.4.4|9=65|35=0|34=810|49=GENERATOR|52=20250716-17:44:32.263|56=ACCUMULATOR|10=045|8=FIX.4.4|9=65|35=0|34=811|49=GENERATOR|52=20250716-17:45:02.563|56=ACCUMULATOR|10=047|8=FIX.4.4|9=65|35=0|34=812|49=GENERATOR|52=20250716-17:45:32.824|56=ACCUMULATOR|10=051|8=FIX.4.4|9=65|35=0|34=813|49=GENERATOR|52=20250716-17:46:03.134|56=ACCUMULATOR|10=045|8=FIX.4.4|9=65|35=0|34=814|49=GENERATOR|52=20250716-17:46:33.400|56=ACCUMULATOR|10=045|8=FIX.4.4|9=65|35=0|34=815|49=GENERATOR|52=20250716-17:47:03.670|56=ACCUMULATOR|10=053|8=FIX.4.4|9=65|35=0|34=816|49=GENERATOR|52=20250716-17:47:33.995|56=ACCUMULATOR|10=067|8=FIX.4.4|9=65|35=0|34=817|49=GENERATOR|52=20250716-17:48:04.298|56=ACCUMULATOR|10=063|8=FIX.4.4|9=65|35=0|34=818|49=GENERATOR|52=20250716-17:48:34.602|56=ACCUMULATOR|10=056|8=FIX.4.4|9=65|35=0|34=819|49=GENERATOR|52=20250716-17:49:04.923|56=ACCUMULATOR|10=061|8=FIX.4.4|9=65|35=0|34=820|49=GENERATOR|52=20250716-17:49:35.202|56=ACCUMULATOR|10=047|8=FIX.4.4|9=65|35=0|34=821|49=GENERATOR|52=20250716-17:50:05.527|56=ACCUMULATOR|10=047|8=FIX.4.4|9=65|35=0|34=822|49=GENERATOR|52=20250716-17:50:35.871|56=ACCUMULATOR|10=053|8=FIX.4.4|9=65|35=0|34=823|49=GENERATOR|52=20250716-17:51:06.140|56=ACCUMULATOR|10=042|8=FIX.4.4|9=65|35=0|34=824|49=GENERATOR|52=20250716-17:51:36.502|56=ACCUMULATOR|10=048|8=FIX.4.4|9=65|35=0|34=825|49=GENERATOR|52=20250716-17:52:06.796|56=ACCUMULATOR|10=062|8=FIX.4.4|9=65|35=0|34=826|49=GENERATOR|52=20250716-17:52:37.077|56=ACCUMULATOR|10=059|8=FIX.4.4|9=65|35=0|34=827|49=GENERATOR|52=20250716-17:53:07.410|56=ACCUMULATOR|10=049|8=FIX.4.4|9=65|35=0|34=828|49=GENERATOR|52=20250716-17:53:37.738|56=ACCUMULATOR|10=066|8=FIX.4.4|9=65|35=0|34=829|49=GENERATOR|52=20250716-17:54:07.966|56=ACCUMULATOR|10=068|8=FIX.4.4|9=65|35=0|34=830|49=GENERATOR|52=20250716-17:54:38.269|56=ACCUMULATOR|10=060|8=FIX.4.4|9=65|35=0|34=831|49=GENERATOR|52=20250716-17:55:08.570|56=ACCUMULATOR|10=054|8=FIX.4.4|9=65|35=0|34=832|49=GENERATOR|52=20250716-17:55:38.856|56=ACCUMULATOR|10=065|8=FIX.4.4|9=65|35=0|34=833|49=GENERATOR|52=20250716-17:56:09.155|56=ACCUMULATOR|10=057|8=FIX.4.4|9=65|35=0|34=834|49=GENERATOR|52=20250716-17:56:39.488|56=ACCUMULATOR|10=070|8=FIX.4.4|9=65|35=0|34=835|49=GENERATOR|52=20250716-17:57:09.784|56=ACCUMULATOR|10=068|8=FIX.4.4|9=65|35=0|34=836|49=GENERATOR|52=20250716-17:57:40.075|56=ACCUMULATOR|10=057|8=FIX.4.4|9=65|35=0|34=837|49=GENERATOR|52=20250716-17:58:10.405|56=ACCUMULATOR|10=053|8=FIX.4.4|9=65|35=0|34=838|49=GENERATOR|52=20250716-17:58:40.691|56=ACCUMULATOR|10=064|8=FIX.4.4|9=65|35=0|34=839|49=GENERATOR|52=20250716-17:59:11.001|56=ACCUMULATOR|10=049|8=FIX.4.4|9=65|35=0|34=840|49=GENERATOR|52=20250716-17:59:41.305|56=ACCUMULATOR|10=051|8=FIX.4.4|9=65|35=0|34=841|49=GENERATOR|52=20250716-18:00:11.644|56=ACCUMULATOR|10=042|8=FIX.4.4|9=65|35=0|34=842|49=GENERATOR|52=20250716-18:00:41.953|56=ACCUMULATOR|10=049|8=FIX.4.4|9=65|35=0|34=843|49=GENERATOR|52=20250716-18:01:12.277|56=ACCUMULATOR|10=048|8=FIX.4.4|9=65|35=0|34=844|49=GENERATOR|52=20250716-18:01:42.596|56=ACCUMULATOR|10=056|8=FIX.4.4|9=65|35=0|34=845|49=GENERATOR|52=20250716-18:02:12.900|56=ACCUMULATOR|10=044|8=FIX.4.4|9=65|35=0|34=846|49=GENERATOR|52=20250716-18:02:43.228|56=ACCUMULATOR|10=052|8=FIX.4.4|9=65|35=0|34=847|49=GENERATOR|52=20250716-18:03:13.481|56=ACCUMULATOR|10=052|8=FIX.4.4|9=65|35=0|34=848|49=GENERATOR|52=20250716-18:03:43.727|56=ACCUMULATOR|10=059|8=FIX.4.4|9=65|35=0|34=849|49=GENERATOR|52=20250716-18:04:14.001|56=ACCUMULATOR|10=044|8=FIX.4.4|9=65|35=0|34=850|49=GENERATOR|52=20250716-18:04:44.261|56=ACCUMULATOR|10=047|8=FIX.4.4|9=65|35=0|34=851|49=GENERATOR|52=20250716-18:05:14.535|56=ACCUMULATOR|10=050|8=FIX.4.4|9=65|35=0|34=852|49=GENERATOR|52=20250716-18:05:44.779|56=ACCUMULATOR|10=064|8=FIX.4.4|9=65|35=0|34=853|49=GENERATOR|52=20250716-18:06:15.058|56=ACCUMULATOR|10=054|8=FIX.4.4|9=65|35=0|34=854|49=GENERATOR|52=20250716-18:06:45.329|56=ACCUMULATOR|10=059|8=FIX.4.4|9=65|35=0|34=855|49=GENERATOR|52=20250716-18:07:15.589|56=ACCUMULATOR|10=066|8=FIX.4.4|9=65|35=0|34=856|49=GENERATOR|52=20250716-18:07:45.874|56=ACCUMULATOR|10=067|8=FIX.4.4|9=65|35=0|34=857|49=GENERATOR|52=20250716-18:08:16.121|56=ACCUMULATOR|10=052|8=FIX.4.4|9=65|35=0|34=858|49=GENERATOR|52=20250716-18:08:46.411|56=ACCUMULATOR|10=058|8=FIX.4.4|9=65|35=0|34=859|49=GENERATOR|52=20250716-18:09:16.678|56=ACCUMULATOR|10=072|8=FIX.4.4|9=65|35=0|34=860|49=GENERATOR|52=20250716-18:09:46.918|56=ACCUMULATOR|10=064|8=FIX.4.4|9=65|35=0|34=861|49=GENERATOR|52=20250716-18:10:17.184|56=ACCUMULATOR|10=050|8=FIX.4.4|9=65|35=0|34=862|49=GENERATOR|52=20250716-18:10:47.438|56=ACCUMULATOR|10=056|8=FIX.4.4|9=65|35=0|34=863|49=GENERATOR|52=20250716-18:11:17.710|56=ACCUMULATOR|10=048|8=FIX.4.4|9=65|35=0|34=864|49=GENERATOR|52=20250716-18:11:48.014|56=ACCUMULATOR|10=050|8=FIX.4.4|9=65|35=0|34=865|49=GENERATOR|52=20250716-18:12:18.284|56=ACCUMULATOR|10=058|8=FIX.4.4|9=65|35=0|34=866|49=GENERATOR|52=20250716-18:12:48.520|56=ACCUMULATOR|10=055|8=FIX.4.4|9=65|35=0|34=867|49=GENERATOR|52=20250716-18:13:18.860|56=ACCUMULATOR|10=061|8=FIX.4.4|9=65|35=0|34=868|49=GENERATOR|52=20250716-18:13:49.075|56=ACCUMULATOR|10=064|8=FIX.4.4|9=65|35=0|34=869|49=GENERATOR|52=20250716-18:14:19.390|56=ACCUMULATOR|10=063|8=FIX.4.4|9=65|35=0|34=870|49=GENERATOR|52=20250716-18:14:49.700|56=ACCUMULATOR|10=053|8=FIX.4.4|9=65|35=0|34=871|49=GENERATOR|52=20250716-18:15:19.939|56=ACCUMULATOR|10=066|8=FIX.4.4|9=65|35=0|34=872|49=GENERATOR|52=20250716-18:15:50.255|56=ACCUMULATOR|10=053|8=FIX.4.4|9=65|35=0|34=873|49=GENERATOR|52=20250716-18:16:20.485|56=ACCUMULATOR|10=057|8=FIX.4.4|9=65|35=0|34=874|49=GENERATOR|52=20250716-18:16:50.829|56=ACCUMULATOR|10=063|8=FIX.4.4|9=65|35=0|34=875|49=GENERATOR|52=20250716-18:17:21.103|56=ACCUMULATOR|10=048|8=FIX.4.4|9=65|35=0|34=876|49=GENERATOR|52=20250716-18:17:51.392|56=ACCUMULATOR|10=062|8=FIX.4.4|9=65|35=0|34=877|49=GENERATOR|52=20250716-18:18:21.646|56=ACCUMULATOR|10=063|8=FIX.4.4|9=65|35=0|34=878|49=GENERATOR|52=20250716-18:18:51.906|56=ACCUMULATOR|10=066|8=FIX.4.4|9=65|35=0|34=879|49=GENERATOR|52=20250716-18:19:22.173|56=ACCUMULATOR|10=062|8=FIX.4.4|9=65|35=0|34=880|49=GENERATOR|52=20250716-18:19:52.459|56=ACCUMULATOR|10=064|8=FIX.4.4|9=65|35=0|34=881|49=GENERATOR|52=20250716-18:20:22.660|56=ACCUMULATOR|10=048|8=FIX.4.4|9=65|35=0|34=882|49=GENERATOR|52=20250716-18:20:52.989|56=ACCUMULATOR|10=066|8=FIX.4.4|9=65|35=0|34=883|49=GENERATOR|52=20250716-18:21:23.277|56=ACCUMULATOR|10=056|8=FIX.4.4|9=65|35=0|34=884|49=GENERATOR|52=20250716-18:21:53.529|56=ACCUMULATOR|10=060|8=FIX.4.4|9=65|35=0|34=885|49=GENERATOR|52=20250716-18:22:23.799|56=ACCUMULATOR|10=068|8=FIX.4.4|9=65|35=0|34=886|49=GENERATOR|52=20250716-18:22:54.035|56=ACCUMULATOR|10=056|8=FIX.4.4|9=65|35=0|34=887|49=GENERATOR|52=20250716-18:23:24.313|56=ACCUMULATOR|10=054|8=FIX.4.4|9=65|35=0|34=888|49=GENERATOR|52=20250716-18:23:54.601|56=ACCUMULATOR|10=058|8=FIX.4.4|9=65|35=0|34=889|49=GENERATOR|52=20250716-18:24:24.875|56=ACCUMULATOR|10=070|8=FIX.4.4|9=65|35=0|34=890|49=GENERATOR|52=20250716-18:24:55.166|56=ACCUMULATOR|10=059|8=FIX.4.4|9=65|35=0|34=891|49=GENERATOR|52=20250716-18:25:25.441|56=ACCUMULATOR|10=054|8=FIX.4.4|9=65|35=0|34=892|49=GENERATOR|52=20250716-18:25:55.689|56=ACCUMULATOR|10=072|8=FIX.4.4|9=65|35=0|34=893|49=GENERATOR|52=20250716-18:26:25.975|56=ACCUMULATOR|10=069|8=FIX.4.4|9=65|35=0|34=894|49=GENERATOR|52=20250716-18:26:56.224|56=ACCUMULATOR|10=061|8=FIX.4.4|9=65|35=0|34=895|49=GENERATOR|52=20250716-18:27:26.503|56=ACCUMULATOR|10=060|8=FIX.4.4|9=65|35=0|34=896|49=GENERATOR|52=20250716-18:27:56.769|56=ACCUMULATOR|10=078|8=FIX.4.4|9=65|35=0|34=897|49=GENERATOR|52=20250716-18:28:27.027|56=ACCUMULATOR|10=065|8=FIX.4.4|9=65|35=0|34=898|49=GENERATOR|52=20250716-18:28:57.314|56=ACCUMULATOR|10=068|8=FIX.4.4|9=65|35=0|34=899|49=GENERATOR|52=20250716-18:29:27.584|56=ACCUMULATOR|10=076|8=FIX.4.4|9=65|35=0|34=900|49=GENERATOR|52=20250716-18:29:57.802|56=ACCUMULATOR|10=055|8=FIX.4.4|9=65|35=0|34=901|49=GENERATOR|52=20250716-18:30:28.083|56=ACCUMULATOR|10=047|8=FIX.4.4|9=65|35=0|34=902|49=GENERATOR|52=20250716-18:30:58.335|56=ACCUMULATOR|10=051|8=FIX.4.4|9=65|35=0|34=903|49=GENERATOR|52=20250716-18:31:28.687|56=ACCUMULATOR|10=060|8=FIX.4.4|9=65|35=0|34=904|49=GENERATOR|52=20250716-18:31:58.976|56=ACCUMULATOR|10=065|8=FIX.4.4|9=65|35=0|34=905|49=GENERATOR|52=20250716-18:32:29.183|56=ACCUMULATOR|10=055|8=FIX.4.4|9=65|35=0|34=906|49=GENERATOR|52=20250716-18:32:59.468|56=ACCUMULATOR|10=065|8=FIX.4.4|9=65|35=0|34=907|49=GENERATOR|52=20250716-18:33:29.716|56=ACCUMULATOR|10=060|8=FIX.4.4|9=65|35=0|34=908|49=GENERATOR|52=20250716-18:33:59.964|56=ACCUMULATOR|10=069|8=FIX.4.4|9=65|35=0|34=909|49=GENERATOR|52=20250716-18:34:30.247|56=ACCUMULATOR|10=054|8=FIX.4.4|9=65|35=0|34=910|49=GENERATOR|52=20250716-18:35:00.524|56=ACCUMULATOR|10=042|8=FIX.4.4|9=65|35=0|34=911|49=GENERATOR|52=20250716-18:35:30.820|56=ACCUMULATOR|10=045|8=FIX.4.4|9=65|35=0|34=912|49=GENERATOR|52=20250716-18:36:01.089|56=ACCUMULATOR|10=052|8=FIX.4.4|9=65|35=0|34=913|49=GENERATOR|52=20250716-18:36:31.335|56=ACCUMULATOR|10=050|8=FIX.4.4|9=65|35=0|34=914|49=GENERATOR|52=20250716-18:37:01.611|56=ACCUMULATOR|10=046|8=FIX.4.4|9=65|35=0|34=915|49=GENERATOR|52=20250716-18:37:31.890|56=ACCUMULATOR|10=059|8=FIX.4.4|9=65|35=0|34=916|49=GENERATOR|52=20250716-18:38:02.123|56=ACCUMULATOR|10=048|8=FIX.4.4|9=65|35=0|34=917|49=GENERATOR|52=20250716-18:38:32.373|56=ACCUMULATOR|10=059|8=FIX.4.4|9=65|35=0|34=918|49=GENERATOR|52=20250716-18:39:02.611|56=ACCUMULATOR|10=053|8=FIX.4.4|9=65|35=0|34=919|49=GENERATOR|52=20250716-18:39:32.895|56=ACCUMULATOR|10=071|8=FIX.4.4|9=65|35=0|34=920|49=GENERATOR|52=20250716-18:40:03.130|56=ACCUMULATOR|10=035|8=FIX.4.4|9=65|35=0|34=921|49=GENERATOR|52=20250716-18:40:33.393|56=ACCUMULATOR|10=050|8=FIX.4.4|9=65|35=0|34=922|49=GENERATOR|52=20250716-18:41:03.670|56=ACCUMULATOR|10=047|8=FIX.4.4|9=65|35=0|34=923|49=GENERATOR|52=20250716-18:41:33.878|56=ACCUMULATOR|10=061|8=FIX.4.4|9=65|35=0|34=924|49=GENERATOR|52=20250716-18:42:04.123|56=ACCUMULATOR|10=044|8=FIX.4.4|9=65|35=0|34=925|49=GENERATOR|52=20250716-18:42:34.396|56=ACCUMULATOR|10=060|8=FIX.4.4|9=65|35=0|34=926|49=GENERATOR|52=20250716-18:43:04.616|56=ACCUMULATOR|10=054|8=FIX.4.4|9=65|35=0|34=927|49=GENERATOR|52=20250716-18:43:34.888|56=ACCUMULATOR|10=069|8=FIX.4.4|9=65|35=0|34=928|49=GENERATOR|52=20250716-18:44:05.173|56=ACCUMULATOR|10=056|8=FIX.4.4|9=65|35=0|34=929|49=GENERATOR|52=20250716-18:44:35.451|56=ACCUMULATOR|10=059|8=FIX.4.4|9=65|35=0|34=930|49=GENERATOR|52=20250716-18:45:05.739|56=ACCUMULATOR|10=058|8=FIX.4.4|9=65|35=0|34=931|49=GENERATOR|52=20250716-18:45:35.998|56=ACCUMULATOR|10=069|8=FIX.4.4|9=65|35=0|34=932|49=GENERATOR|52=20250716-18:46:06.296|56=ACCUMULATOR|10=060|8=FIX.4.4|9=65|35=0|34=933|49=GENERATOR|52=20250716-18:46:36.587|56=ACCUMULATOR|10=067|8=FIX.4.4|9=65|35=0|34=934|49=GENERATOR|52=20250716-18:47:06.855|56=ACCUMULATOR|10=064|8=FIX.4.4|9=65|35=0|34=935|49=GENERATOR|52=20250716-18:47:37.097|56=ACCUMULATOR|10=067|8=FIX.4.4|9=65|35=0|34=936|49=GENERATOR|52=20250716-18:48:07.357|56=ACCUMULATOR|10=065|8=FIX.4.4|9=65|35=0|34=937|49=GENERATOR|52=20250716-18:48:37.645|56=ACCUMULATOR|10=069|8=FIX.4.4|9=65|35=0|34=938|49=GENERATOR|52=20250716-18:49:07.917|56=ACCUMULATOR|10=070|8=FIX.4.4|9=65|35=0|34=939|49=GENERATOR|52=20250716-18:49:38.151|56=ACCUMULATOR|10=065|8=FIX.4.4|9=65|35=0|34=940|49=GENERATOR|52=20250716-18:50:08.406|56=ACCUMULATOR|10=049|8=FIX.4.4|9=65|35=0|34=941|49=GENERATOR|52=20250716-18:50:38.680|56=ACCUMULATOR|10=057|8=FIX.4.4|9=65|35=0|34=942|49=GENERATOR|52=20250716-18:51:08.947|56=ACCUMULATOR|10=062|8=FIX.4.4|9=65|35=0|34=943|49=GENERATOR|52=20250716-18:51:39.200|56=ACCUMULATOR|10=049|8=FIX.4.4|9=65|35=0|34=944|49=GENERATOR|52=20250716-18:52:09.411|56=ACCUMULATOR|10=052|8=FIX.4.4|9=65|35=0|34=945|49=GENERATOR|52=20250716-18:52:39.718|56=ACCUMULATOR|10=066|8=FIX.4.4|9=65|35=0|34=946|49=GENERATOR|52=20250716-18:53:09.996|56=ACCUMULATOR|10=073|8=FIX.4.4|9=65|35=0|34=947|49=GENERATOR|52=20250716-18:53:40.211|56=ACCUMULATOR|10=049|8=FIX.4.4|9=65|35=0|34=948|49=GENERATOR|52=20250716-18:54:10.472|56=ACCUMULATOR|10=057|8=FIX.4.4|9=65|35=0|34=949|49=GENERATOR|52=20250716-18:54:40.735|56=ACCUMULATOR|10=063|8=FIX.4.4|9=65|35=0|34=950|49=GENERATOR|52=20250716-18:55:11.045|56=ACCUMULATOR|10=048|8=FIX.4.4|9=65|35=0|34=951|49=GENERATOR|52=20250716-18:55:41.325|56=ACCUMULATOR|10=053|8=FIX.4.4|9=65|35=0|34=952|49=GENERATOR|52=20250716-18:56:11.575|56=ACCUMULATOR|10=059|8=FIX.4.4|9=65|35=0|34=953|49=GENERATOR|52=20250716-18:56:41.773|56=ACCUMULATOR|10=063|8=FIX.4.4|9=65|35=0|34=954|49=GENERATOR|52=20250716-18:57:12.037|56=ACCUMULATOR|10=056|8=FIX.4.4|9=65|35=0|34=955|49=GENERATOR|52=20250716-18:57:42.260|56=ACCUMULATOR|10=058|8=FIX.4.4|9=65|35=0|34=956|49=GENERATOR|52=20250716-18:58:12.545|56=ACCUMULATOR|10=063|8=FIX.4.4|9=65|35=0|34=957|49=GENERATOR|52=20250716-18:58:42.802|56=ACCUMULATOR|10=063|8=FIX.4.4|9=65|35=0|34=958|49=GENERATOR|52=20250716-18:59:13.069|56=ACCUMULATOR|10=068|8=FIX.4.4|9=65|35=0|34=959|49=GENERATOR|52=20250716-18:59:43.328|56=ACCUMULATOR|10=070|8=FIX.4.4|9=65|35=0|34=960|49=GENERATOR|52=20250716-19:00:13.564|56=ACCUMULATOR|10=048|8=FIX.4.4|9=65|35=0|34=961|49=GENERATOR|52=20250716-19:00:43.851|56=ACCUMULATOR|10=051|8=FIX.4.4|9=65|35=0|34=962|49=GENERATOR|52=20250716-19:01:14.150|56=ACCUMULATOR|10=043|8=FIX.4.4|9=65|35=0|34=963|49=GENERATOR|52=20250716-19:01:44.375|56=ACCUMULATOR|10=056|8=FIX.4.4|9=65|35=0|34=964|49=GENERATOR|52=20250716-19:02:14.670|56=ACCUMULATOR|10=053|8=FIX.4.4|9=65|35=0|34=965|49=GENERATOR|52=20250716-19:02:44.932|56=ACCUMULATOR|10=058|8=FIX.4.4|9=65|35=0|34=966|49=GENERATOR|52=20250716-19:03:15.228|56=ACCUMULATOR|10=056|8=FIX.4.4|9=65|35=0|34=967|49=GENERATOR|52=20250716-19:03:45.532|56=ACCUMULATOR|10=058|8=FIX.4.4|9=65|35=0|34=968|49=GENERATOR|52=20250716-19:04:15.746|56=ACCUMULATOR|10=064|8=FIX.4.4|9=65|35=0|34=969|49=GENERATOR|52=20250716-19:04:46.029|56=ACCUMULATOR|10=063|8=FIX.4.4|9=65|35=0|34=970|49=GENERATOR|52=20250716-19:05:16.279|56=ACCUMULATOR|10=060|8=FIX.4.4|9=65|35=0|34=971|49=GENERATOR|52=20250716-19:05:46.523|56=ACCUMULATOR|10=056|8=FIX.4.4|9=65|35=0|34=972|49=GENERATOR|52=20250716-19:06:16.822|56=ACCUMULATOR|10=057|8=FIX.4.4|9=65|35=0|34=973|49=GENERATOR|52=20250716-19:06:47.070|56=ACCUMULATOR|10=057|8=FIX.4.4|9=65|35=0|34=974|49=GENERATOR|52=20250716-19:07:17.330|56=ACCUMULATOR|10=055|8=FIX.4.4|9=65|35=0|34=975|49=GENERATOR|52=20250716-19:07:47.619|56=ACCUMULATOR|10=069|8=FIX.4.4|9=65|35=0|34=976|49=GENERATOR|52=20250716-19:08:17.862|56=ACCUMULATOR|10=068|8=FIX.4.4|9=65|35=0|34=977|49=GENERATOR|52=20250716-19:08:48.148|56=ACCUMULATOR|10=070|8=FIX.4.4|9=65|35=0|34=978|49=GENERATOR|52=20250716-19:09:18.431|56=ACCUMULATOR|10=064|8=FIX.4.4|9=65|35=0|34=979|49=GENERATOR|52=20250716-19:09:48.687|56=ACCUMULATOR|10=081|8=FIX.4.4|9=65|35=0|34=980|49=GENERATOR|52=20250716-19:10:18.951|56=ACCUMULATOR|10=056|8=FIX.4.4|9=65|35=0|34=981|49=GENERATOR|52=20250716-19:10:49.215|56=ACCUMULATOR|10=054|8=FIX.4.4|9=65|35=0|34=982|49=GENERATOR|52=20250716-19:11:19.497|56=ACCUMULATOR|10=065|8=FIX.4.4|9=65|35=0|34=983|49=GENERATOR|52=20250716-19:11:49.788|56=ACCUMULATOR|10=072|8=FIX.4.4|9=65|35=0|34=984|49=GENERATOR|52=20250716-19:12:20.025|56=ACCUMULATOR|10=047|8=FIX.4.4|9=65|35=0|34=985|49=GENERATOR|52=20250716-19:12:50.291|56=ACCUMULATOR|10=056|8=FIX.4.4|9=65|35=0|34=986|49=GENERATOR|52=20250716-19:13:20.534|56=ACCUMULATOR|10=055|8=FIX.4.4|9=65|35=0|34=987|49=GENERATOR|52=20250716-19:13:50.804|56=ACCUMULATOR|10=059|8=FIX.4.4|9=65|35=0|34=988|49=GENERATOR|52=20250716-19:14:21.055|56=ACCUMULATOR|10=057|8=FIX.4.4|9=65|35=0|34=989|49=GENERATOR|52=20250716-19:14:51.319|56=ACCUMULATOR|10=064|8=FIX.4.4|9=65|35=0|34=990|49=GENERATOR|52=20250716-19:15:21.618|56=ACCUMULATOR|10=056|8=FIX.4.4|9=65|35=0|34=991|49=GENERATOR|52=20250716-19:15:51.896|56=ACCUMULATOR|10=068|8=FIX.4.4|9=65|35=0|34=992|49=GENERATOR|52=20250716-19:16:22.117|56=ACCUMULATOR|10=054|8=FIX.4.4|9=65|35=0|34=993|49=GENERATOR|52=20250716-19:16:52.383|56=ACCUMULATOR|10=063|8=FIX.4.4|9=65|35=0|34=994|49=GENERATOR|52=20250716-19:17:22.640|56=ACCUMULATOR|10=058|8=FIX.4.4|9=65|35=0|34=995|49=GENERATOR|52=20250716-19:17:52.876|56=ACCUMULATOR|10=073|8=FIX.4.4|9=65|35=0|34=996|49=GENERATOR|52=20250716-19:18:23.208|56=ACCUMULATOR|10=062|8=FIX.4.4|9=65|35=0|34=997|49=GENERATOR|52=20250716-19:18:53.444|56=ACCUMULATOR|10=068|8=FIX.4.4|9=65|35=0|34=998|49=GENERATOR|52=20250716-19:19:23.729|56=ACCUMULATOR|10=073|8=FIX.4.4|9=65|35=0|34=999|49=GENERATOR|52=20250716-19:19:53.998|56=ACCUMULATOR|10=085|8=FIX.4.4|9=66|35=0|34=1000|49=GENERATOR|52=20250716-19:20:24.204|56=ACCUMULATOR|10=078|8=FIX.4.4|9=66|35=0|34=1001|49=GENERATOR|52=20250716-19:20:54.506|56=ACCUMULATOR|10=087|8=FIX.4.4|9=66|35=0|34=1002|49=GENERATOR|52=20250716-19:21:24.706|56=ACCUMULATOR|10=088|8=FIX.4.4|9=66|35=0|34=1003|49=GENERATOR|52=20250716-19:21:54.975|56=ACCUMULATOR|10=100|8=FIX.4.4|9=66|35=0|34=1004|49=GENERATOR|52=20250716-19:22:25.265|56=ACCUMULATOR|10=092|8=FIX.4.4|9=66|35=0|34=1005|49=GENERATOR|52=20250716-19:22:55.565|56=ACCUMULATOR|10=099|8=FIX.4.4|9=66|35=0|34=1006|49=GENERATOR|52=20250716-19:23:25.865|56=ACCUMULATOR|10=101|8=FIX.4.4|9=66|35=0|34=1007|49=GENERATOR|52=20250716-19:23:56.121|56=ACCUMULATOR|10=091|8=FIX.4.4|9=66|35=0|34=1008|49=GENERATOR|52=20250716-19:24:26.400|56=ACCUMULATOR|10=090|8=FIX.4.4|9=66|35=0|34=1009|49=GENERATOR|52=20250716-19:24:56.657|56=ACCUMULATOR|10=108|8=FIX.4.4|9=66|35=0|34=1010|49=GENERATOR|52=20250716-19:25:26.889|56=ACCUMULATOR|10=105|8=FIX.4.4|9=66|35=0|34=1011|49=GENERATOR|52=20250716-19:25:57.209|56=ACCUMULATOR|10=096|8=FIX.4.4|9=66|35=0|34=1012|49=GENERATOR|52=20250716-19:26:27.504|56=ACCUMULATOR|10=093|8=FIX.4.4|9=66|35=0|34=1013|49=GENERATOR|52=20250716-19:26:57.754|56=ACCUMULATOR|10=104|8=FIX.4.4|9=66|35=0|34=1014|49=GENERATOR|52=20250716-19:27:28.050|56=ACCUMULATOR|10=093|8=FIX.4.4|9=66|35=0|34=1015|49=GENERATOR|52=20250716-19:27:58.269|56=ACCUMULATOR|10=109|8=FIX.4.4|9=66|35=0|34=1016|49=GENERATOR|52=20250716-19:28:28.512|56=ACCUMULATOR|10=099|8=FIX.4.4|9=66|35=0|34=1017|49=GENERATOR|52=20250716-19:28:58.779|56=ACCUMULATOR|10=118|8=FIX.4.4|9=66|35=0|34=1018|49=GENERATOR|52=20250716-19:29:29.061|56=ACCUMULATOR|10=102|8=FIX.4.4|9=66|35=0|34=1019|49=GENERATOR|52=20250716-19:29:59.358|56=ACCUMULATOR|10=115|8=FIX.4.4|9=66|35=0|34=1020|49=GENERATOR|52=20250716-19:30:29.586|56=ACCUMULATOR|10=099|8=FIX.4.4|9=66|35=0|34=1021|49=GENERATOR|52=20250716-19:30:59.884|56=ACCUMULATOR|10=104|8=FIX.4.4|9=66|35=0|34=1022|49=GENERATOR|52=20250716-19:31:30.155|56=ACCUMULATOR|10=086|8=FIX.4.4|9=66|35=0|34=1023|49=GENERATOR|52=20250716-19:32:00.390|56=ACCUMULATOR|10=086|8=FIX.4.4|9=66|35=0|34=1024|49=GENERATOR|52=20250716-19:32:30.696|56=ACCUMULATOR|10=099|8=FIX.4.4|9=66|35=0|34=1025|49=GENERATOR|52=20250716-19:33:00.965|56=ACCUMULATOR|10=097|8=FIX.4.4|9=66|35=0|34=1026|49=GENERATOR|52=20250716-19:33:31.231|56=ACCUMULATOR|10=088|8=FIX.4.4|9=66|35=0|34=1027|49=GENERATOR|52=20250716-19:34:01.499|56=ACCUMULATOR|10=103|8=FIX.4.4|9=66|35=0|34=1028|49=GENERATOR|52=20250716-19:34:31.728|56=ACCUMULATOR|10=102|8=FIX.4.4|9=66|35=0|34=1029|49=GENERATOR|52=20250716-19:35:02.010|56=ACCUMULATOR|10=086|8=FIX.4.4|9=66|35=0|34=1030|49=GENERATOR|52=20250716-19:35:32.303|56=ACCUMULATOR|10=086|8=FIX.4.4|9=66|35=0|34=1031|49=GENERATOR|52=20250716-19:36:02.497|56=ACCUMULATOR|10=099|8=FIX.4.4|9=66|35=0|34=1032|49=GENERATOR|52=20250716-19:36:32.760|56=ACCUMULATOR|10=096|8=FIX.4.4|9=66|35=0|34=1033|49=GENERATOR|52=20250716-19:37:03.009|56=ACCUMULATOR|10=092|8=FIX.4.4|9=66|35=0|34=1034|49=GENERATOR|52=20250716-19:37:33.308|56=ACCUMULATOR|10=098|8=FIX.4.4|9=66|35=0|34=1035|49=GENERATOR|52=20250716-19:38:03.619|56=ACCUMULATOR|10=102|8=FIX.4.4|9=66|35=0|34=1036|49=GENERATOR|52=20250716-19:38:33.871|56=ACCUMULATOR|10=106|8=FIX.4.4|9=66|35=0|34=1037|49=GENERATOR|52=20250716-19:39:04.150|56=ACCUMULATOR|10=096|8=FIX.4.4|9=66|35=0|34=1038|49=GENERATOR|52=20250716-19:39:34.438|56=ACCUMULATOR|10=109|8=FIX.4.4|9=66|35=0|34=1039|49=GENERATOR|52=20250716-19:40:04.682|56=ACCUMULATOR|10=100|8=FIX.4.4|9=66|35=0|34=1040|49=GENERATOR|52=20250716-19:40:34.984|56=ACCUMULATOR|10=100|8=FIX.4.4|9=66|35=0|34=1041|49=GENERATOR|52=20250716-19:41:05.254|56=ACCUMULATOR|10=090|8=FIX.4.4|9=66|35=0|34=1042|49=GENERATOR|52=20250716-19:41:35.526|56=ACCUMULATOR|10=096|8=FIX.4.4|9=66|35=0|34=1043|49=GENERATOR|52=20250716-19:42:05.784|56=ACCUMULATOR|10=101|8=FIX.4.4|9=66|35=0|34=1044|49=GENERATOR|52=20250716-19:42:36.021|56=ACCUMULATOR|10=090|8=FIX.4.4|9=66|35=0|34=1045|49=GENERATOR|52=20250716-19:43:06.307|56=ACCUMULATOR|10=096|8=FIX.4.4|9=66|35=0|34=1046|49=GENERATOR|52=20250716-19:43:36.585|56=ACCUMULATOR|10=108|8=FIX.4.4|9=66|35=0|34=1047|49=GENERATOR|52=20250716-19:44:06.879|56=ACCUMULATOR|10=113|8=FIX.4.4|9=66|35=0|34=1048|49=GENERATOR|52=20250716-19:44:37.132|56=ACCUMULATOR|10=100|8=FIX.4.4|9=66|35=0|34=1049|49=GENERATOR|52=20250716-19:45:07.398|56=ACCUMULATOR|10=113|8=FIX.4.4|9=66|35=0|34=1050|49=GENERATOR|52=20250716-19:45:37.690|56=ACCUMULATOR|10=103|8=FIX.4.4|9=66|35=0|34=1051|49=GENERATOR|52=20250716-19:46:07.989|56=ACCUMULATOR|10=113|8=FIX.4.4|9=66|35=0|34=1052|49=GENERATOR|52=20250716-19:46:38.217|56=ACCUMULATOR|10=102|8=FIX.4.4|9=66|35=0|34=1053|49=GENERATOR|52=20250716-19:47:08.504|56=ACCUMULATOR|10=100|8=FIX.4.4|9=66|35=0|34=1054|49=GENERATOR|52=20250716-19:47:38.766|56=ACCUMULATOR|10=114|8=FIX.4.4|9=66|35=0|34=1055|49=GENERATOR|52=20250716-19:48:08.992|56=ACCUMULATOR|10=114|8=FIX.4.4|9=66|35=0|34=1056|49=GENERATOR|52=20250716-19:48:39.253|56=ACCUMULATOR|10=109|8=FIX.4.4|9=66|35=0|34=1057|49=GENERATOR|52=20250716-19:49:09.545|56=ACCUMULATOR|10=112|8=FIX.4.4|9=66|35=0|34=1058|49=GENERATOR|52=20250716-19:49:39.919|56=ACCUMULATOR|10=121|8=FIX.4.4|9=66|35=0|34=1059|49=GENERATOR|52=20250716-19:50:10.212|56=ACCUMULATOR|10=089|8=FIX.4.4|9=66|35=0|34=1060|49=GENERATOR|52=20250716-19:50:40.435|56=ACCUMULATOR|10=091|8=FIX.4.4|9=66|35=0|34=1061|49=GENERATOR|52=20250716-19:51:10.687|56=ACCUMULATOR|10=099|8=FIX.4.4|9=66|35=0|34=1062|49=GENERATOR|52=20250716-19:51:40.952|56=ACCUMULATOR|10=098|8=FIX.4.4|9=66|35=0|34=1063|49=GENERATOR|52=20250716-19:52:11.222|56=ACCUMULATOR|10=088|8=FIX.4.4|9=66|35=0|34=1064|49=GENERATOR|52=20250716-19:52:41.608|56=ACCUMULATOR|10=100|8=FIX.4.4|9=66|35=0|34=1065|49=GENERATOR|52=20250716-19:53:11.807|56=ACCUMULATOR|10=100|8=FIX.4.4|9=66|35=0|34=1066|49=GENERATOR|52=20250716-19:53:42.127|56=ACCUMULATOR|10=100|8=FIX.4.4|9=66|35=0|34=1067|49=GENERATOR|52=20250716-19:54:12.347|56=ACCUMULATOR|10=103|8=FIX.4.4|9=66|35=0|34=1068|49=GENERATOR|52=20250716-19:54:42.631|56=ACCUMULATOR|10=103|8=FIX.4.4|9=66|35=0|34=1069|49=GENERATOR|52=20250716-19:55:12.932|56=ACCUMULATOR|10=106|8=FIX.4.4|9=66|35=0|34=1070|49=GENERATOR|52=20250716-19:55:43.177|56=ACCUMULATOR|10=103|8=FIX.4.4|9=66|35=0|34=1071|49=GENERATOR|52=20250716-19:56:13.460|56=ACCUMULATOR|10=097|8=FIX.4.4|9=66|35=0|34=1072|49=GENERATOR|52=20250716-19:56:43.776|56=ACCUMULATOR|10=111|8=FIX.4.4|9=66|35=0|34=1073|49=GENERATOR|52=20250716-19:57:14.070|56=ACCUMULATOR|10=098|8=FIX.4.4|9=66|35=0|34=1074|49=GENERATOR|52=20250716-19:57:44.382|56=ACCUMULATOR|10=108|8=FIX.4.4|9=66|35=0|34=1075|49=GENERATOR|52=20250716-19:58:14.634|56=ACCUMULATOR|10=107|8=FIX.4.4|9=66|35=0|34=1076|49=GENERATOR|52=20250716-19:58:44.925|56=ACCUMULATOR|10=114|8=FIX.4.4|9=66|35=0|34=1077|49=GENERATOR|52=20250716-19:59:15.149|56=ACCUMULATOR|10=112|8=FIX.4.4|9=66|35=0|34=1078|49=GENERATOR|52=20250716-19:59:45.381|56=ACCUMULATOR|10=114|8=FIX.4.4|9=66|35=0|34=1079|49=GENERATOR|52=20250716-20:00:15.672|56=ACCUMULATOR|10=093|8=FIX.4.4|9=66|35=0|34=1080|49=GENERATOR|52=20250716-20:00:45.939|56=ACCUMULATOR|10=094|8=FIX.4.4|9=66|35=0|34=1081|49=GENERATOR|52=20250716-20:01:16.193|56=ACCUMULATOR|10=086|8=FIX.4.4|9=66|35=0|34=1082|49=GENERATOR|52=20250716-20:01:46.497|56=ACCUMULATOR|10=097|8=FIX.4.4|9=66|35=0|34=1083|49=GENERATOR|52=20250716-20:02:16.758|56=ACCUMULATOR|10=096|8=FIX.4.4|9=66|35=0|34=1084|49=GENERATOR|52=20250716-20:02:47.074|56=ACCUMULATOR|10=092|8=FIX.4.4|9=66|35=0|34=1085|49=GENERATOR|52=20250716-20:03:17.323|56=ACCUMULATOR|10=088|8=FIX.4.4|9=66|35=0|34=1086|49=GENERATOR|52=20250716-20:03:47.537|56=ACCUMULATOR|10=099|8=FIX.4.4|9=66|35=0|34=1087|49=GENERATOR|52=20250716-20:04:17.846|56=ACCUMULATOR|10=101|8=FIX.4.4|9=66|35=0|34=1088|49=GENERATOR|52=20250716-20:04:48.112|56=ACCUMULATOR|10=092|8=FIX.4.4|9=66|35=0|34=1089|49=GENERATOR|52=20250716-20:05:18.348|56=ACCUMULATOR|10=102|8=FIX.4.4|9=66|35=0|34=1090|49=GENERATOR|52=20250716-20:05:48.585|56=ACCUMULATOR|10=100|8=FIX.4.4|9=66|35=0|34=1091|49=GENERATOR|52=20250716-20:06:18.809|56=ACCUMULATOR|10=098|8=FIX.4.4|9=66|35=0|34=1092|49=GENERATOR|52=20250716-20:06:49.103|56=ACCUMULATOR|10=090|8=FIX.4.4|9=66|35=0|34=1093|49=GENERATOR|52=20250716-20:07:19.390|56=ACCUMULATOR|10=097|8=FIX.4.4|9=66|35=0|34=1094|49=GENERATOR|52=20250716-20:07:49.618|56=ACCUMULATOR|10=104|8=FIX.4.4|9=66|35=0|34=1095|49=GENERATOR|52=20250716-20:08:19.909|56=ACCUMULATOR|10=106|8=FIX.4.4|9=66|35=0|34=1096|49=GENERATOR|52=20250716-20:08:50.188|56=ACCUMULATOR|10=101|8=FIX.4.4|9=66|35=0|34=1097|49=GENERATOR|52=20250716-20:09:20.446|56=ACCUMULATOR|10=097|8=FIX.4.4|9=66|35=0|34=1098|49=GENERATOR|52=20250716-20:09:50.713|56=ACCUMULATOR|10=098|8=FIX.4.4|9=66|35=0|34=1099|49=GENERATOR|52=20250716-20:10:20.974|56=ACCUMULATOR|10=097|8=FIX.4.4|9=66|35=0|34=1100|49=GENERATOR|52=20250716-20:10:51.243|56=ACCUMULATOR|10=073|8=FIX.4.4|9=66|35=0|34=1101|49=GENERATOR|52=20250716-20:11:21.537|56=ACCUMULATOR|10=078|8=FIX.4.4|9=66|35=0|34=1102|49=GENERATOR|52=20250716-20:11:51.786|56=ACCUMULATOR|10=088|8=FIX.4.4|9=66|35=0|34=1103|49=GENERATOR|52=20250716-20:12:22.091|56=ACCUMULATOR|10=077|8=FIX.4.4|9=66|35=0|34=1104|49=GENERATOR|52=20250716-20:12:52.397|56=ACCUMULATOR|10=090|8=FIX.4.4|9=66|35=0|34=1105|49=GENERATOR|52=20250716-20:13:22.649|56=ACCUMULATOR|10=089|8=FIX.4.4|9=66|35=0|34=1106|49=GENERATOR|52=20250716-20:13:52.941|56=ACCUMULATOR|10=088|8=FIX.4.4|9=66|35=0|34=1107|49=GENERATOR|52=20250716-20:14:23.191|56=ACCUMULATOR|10=085|8=FIX.4.4|9=66|35=0|34=1108|49=GENERATOR|52=20250716-20:14:53.491|56=ACCUMULATOR|10=092|8=FIX.4.4|9=66|35=0|34=1109|49=GENERATOR|52=20250716-20:15:23.786|56=ACCUMULATOR|10=098|8=FIX.4.4|9=66|35=0|34=1110|49=GENERATOR|52=20250716-20:15:54.027|56=ACCUMULATOR|10=082|8=FIX.4.4|9=66|35=0|34=1111|49=GENERATOR|52=20250716-20:16:24.293|56=ACCUMULATOR|10=086|8=FIX.4.4|9=66|35=0|34=1112|49=GENERATOR|52=20250716-20:16:54.559|56=ACCUMULATOR|10=095|8=FIX.4.4|9=66|35=0|34=1113|49=GENERATOR|52=20250716-20:17:24.833|56=ACCUMULATOR|10=089|8=FIX.4.4|9=66|35=0|34=1114|49=GENERATOR|52=20250716-20:17:55.127|56=ACCUMULATOR|10=090|8=FIX.4.4|9=66|35=0|34=1115|49=GENERATOR|52=20250716-20:18:25.368|56=ACCUMULATOR|10=096|8=FIX.4.4|9=66|35=0|34=1116|49=GENERATOR|52=20250716-20:18:55.675|56=ACCUMULATOR|10=101|8=FIX.4.4|9=66|35=0|34=1117|49=GENERATOR|52=20250716-20:19:25.957|56=ACCUMULATOR|10=103|8=FIX.4.4|9=66|35=0|34=1118|49=GENERATOR|52=20250716-20:19:56.217|56=ACCUMULATOR|10=097|8=FIX.4.4|9=66|35=0|34=1119|49=GENERATOR|52=20250716-20:20:26.492|56=ACCUMULATOR|10=092|8=FIX.4.4|9=66|35=0|34=1120|49=GENERATOR|52=20250716-20:20:56.750|56=ACCUMULATOR|10=084|8=FIX.4.4|9=66|35=0|34=1121|49=GENERATOR|52=20250716-20:21:27.024|56=ACCUMULATOR|10=078|8=FIX.4.4|9=66|35=0|34=1122|49=GENERATOR|52=20250716-20:21:57.310|56=ACCUMULATOR|10=080|8=FIX.4.4|9=66|35=0|34=1123|49=GENERATOR|52=20250716-20:22:27.565|56=ACCUMULATOR|10=091|8=FIX.4.4|9=66|35=0|34=1124|49=GENERATOR|52=20250716-20:22:57.846|56=ACCUMULATOR|10=097|8=FIX.4.4|9=66|35=0|34=1125|49=GENERATOR|52=20250716-20:23:28.099|56=ACCUMULATOR|10=097|8=FIX.4.4|9=66|35=0|34=1126|49=GENERATOR|52=20250716-20:23:58.369|56=ACCUMULATOR|10=101|8=FIX.4.4|9=66|35=0|34=1127|49=GENERATOR|52=20250716-20:24:28.660|56=ACCUMULATOR|10=094|8=FIX.4.4|9=66|35=0|34=1128|49=GENERATOR|52=20250716-20:24:58.917|56=ACCUMULATOR|10=103|8=FIX.4.4|9=66|35=0|34=1129|49=GENERATOR|52=20250716-20:25:29.194|56=ACCUMULATOR|10=100|8=FIX.4.4|9=66|35=0|34=1130|49=GENERATOR|52=20250716-20:25:59.433|56=ACCUMULATOR|10=091|8=FIX.4.4|9=66|35=0|34=1131|49=GENERATOR|52=20250716-20:26:29.686|56=ACCUMULATOR|10=100|8=FIX.4.4|9=66|35=0|34=1132|49=GENERATOR|52=20250716-20:26:59.990|56=ACCUMULATOR|10=102|8=FIX.4.4|9=66|35=0|34=1133|49=GENERATOR|52=20250716-20:27:30.222|56=ACCUMULATOR|10=081|8=FIX.4.4|9=66|35=0|34=1134|49=GENERATOR|52=20250716-20:28:00.524|56=ACCUMULATOR|10=085|8=FIX.4.4|9=66|35=0|34=1135|49=GENERATOR|52=20250716-20:28:30.830|56=ACCUMULATOR|10=089|8=FIX.4.4|9=66|35=0|34=1136|49=GENERATOR|52=20250716-20:29:01.080|56=ACCUMULATOR|10=086|8=FIX.4.4|9=66|35=0|34=1137|49=GENERATOR|52=202