8=FIX.4.4|9=75|35=A|34=1|49=GENERATOR|52=20250717-15:06:10.630|56=ACCUMULATOR|98=0|108=30|10=231|8=FIX.4.4|9=63|35=0|34=2|49=GENERATOR|52=20250717-15:06:41.597|56=ACCUMULATOR|10=203|8=FIX.4.4|9=63|35=0|34=3|49=GENERATOR|52=20250717-15:07:12.482|56=ACCUMULATOR|10=196|8=FIX.4.4|9=63|35=0|34=4|49=GENERATOR|52=20250717-15:07:42.777|56=ACCUMULATOR|10=207|8=FIX.4.4|9=63|35=0|34=5|49=GENERATOR|52=20250717-15:08:13.245|56=ACCUMULATOR|10=197|8=FIX.4.4|9=63|35=0|34=6|49=GENERATOR|52=20250717-15:08:43.634|56=ACCUMULATOR|10=203|8=FIX.4.4|9=63|35=0|34=7|49=GENERATOR|52=20250717-15:09:14.134|56=ACCUMULATOR|10=198|8=FIX.4.4|9=63|35=0|34=8|49=GENERATOR|52=20250717-15:09:44.512|56=ACCUMULATOR|10=202|8=FIX.4.4|9=63|35=0|34=9|49=GENERATOR|52=20250717-15:10:14.936|56=ACCUMULATOR|10=202|8=FIX.4.4|9=64|35=0|34=10|49=GENERATOR|52=20250717-15:10:45.278|56=ACCUMULATOR|10=246|8=FIX.4.4|9=64|35=0|34=11|49=GENERATOR|52=20250717-15:11:15.555|56=ACCUMULATOR|10=243|8=FIX.4.4|9=64|35=0|34=12|49=GENERATOR|52=20250717-15:11:46.332|56=ACCUMULATOR|10=241|8=FIX.4.4|9=64|35=0|34=13|49=GENERATOR|52=20250717-15:12:16.586|56=ACCUMULATOR|10=251|8=FIX.4.4|9=64|35=0|34=14|49=GENERATOR|52=20250717-15:12:47.065|56=ACCUMULATOR|10=248|8=FIX.4.4|9=64|35=0|34=15|49=GENERATOR|52=20250717-15:13:17.801|56=ACCUMULATOR|10=245|8=FIX.4.4|9=64|35=0|34=16|49=GENERATOR|52=20250717-15:13:48.145|56=ACCUMULATOR|10=251|8=FIX.4.4|9=64|35=0|34=17|49=GENERATOR|52=20250717-15:14:18.400|56=ACCUMULATOR|10=244|8=FIX.4.4|9=64|35=0|34=18|49=GENERATOR|52=20250717-15:14:48.654|56=ACCUMULATOR|10=003|8=FIX.4.4|9=64|35=0|34=19|49=GENERATOR|52=20250717-15:15:18.855|56=ACCUMULATOR|10=005|8=FIX.4.4|9=64|35=0|34=20|49=GENERATOR|52=20250717-15:15:49.051|56=ACCUMULATOR|10=245|8=FIX.4.4|9=64|35=0|34=21|49=GENERATOR|52=20250717-15:16:19.649|56=ACCUMULATOR|10=001|8=FIX.4.4|9=64|35=0|34=22|49=GENERATOR|52=20250717-15:16:50.323|56=ACCUMULATOR|10=242|8=FIX.4.4|9=64|35=0|34=23|49=GENERATOR|52=20250717-15:17:21.234|56=ACCUMULATOR|10=243|8=FIX.4.4|9=76|35=A|34=24|49=GENERATOR|52=20250717-15:20:22.557|56=ACCUMULATOR|98=0|108=30|10=036|8=FIX.4.4|9=64|35=0|34=25|49=GENERATOR|52=20250717-15:20:53.031|56=ACCUMULATOR|10=239|8=FIX.4.4|9=64|35=0|34=26|49=GENERATOR|52=20250717-15:21:23.281|56=ACCUMULATOR|10=245|8=FIX.4.4|9=64|35=0|34=27|49=GENERATOR|52=20250717-15:21:53.518|56=ACCUMULATOR|10=252|8=FIX.4.4|9=64|35=0|34=28|49=GENERATOR|52=20250717-15:22:23.721|56=ACCUMULATOR|10=247|8=FIX.4.4|9=76|35=A|34=29|49=GENERATOR|52=20250717-15:23:27.465|56=ACCUMULATOR|98=0|108=30|10=047|8=FIX.4.4|9=64|35=0|34=30|49=GENERATOR|52=20250717-15:23:58.163|56=ACCUMULATOR|10=249|8=FIX.4.4|9=64|35=0|34=31|49=GENERATOR|52=20250717-15:24:28.468|56=ACCUMULATOR|10=000|8=FIX.4.4|9=64|35=0|34=32|49=GENERATOR|52=20250717-15:24:58.934|56=ACCUMULATOR|10=002|8=FIX.4.4|9=162|35=D|34=33|49=GENERATOR|52=20250717-15:25:04.826|56=ACCUMULATOR|11=cf37f21b-315f-44cd-bec6-841146dcc462|38=100|40=2|44=999|54=1|55=VALE3|60=20250717-15:25:04.740|10=141|8=FIX.4.4|9=64|35=0|34=34|49=GENERATOR|52=20250717-15:25:34.884|56=ACCUMULATOR|10=003|8=FIX.4.4|9=64|35=0|34=35|49=GENERATOR|52=20250717-15:26:05.209|56=ACCUMULATOR|10=250|8=FIX.4.4|9=64|35=0|34=36|49=GENERATOR|52=20250717-15:26:35.484|56=ACCUMULATOR|10=003|8=FIX.4.4|9=64|35=0|34=37|49=GENERATOR|52=20250717-15:27:05.685|56=ACCUMULATOR|10=005|8=FIX.4.4|9=76|35=A|34=38|49=GENERATOR|52=20250717-15:27:42.081|56=ACCUMULATOR|98=0|108=30|10=042|8=FIX.4.4|9=64|35=0|34=39|49=GENERATOR|52=20250717-15:28:12.943|56=ACCUMULATOR|10=003|8=FIX.4.4|9=64|35=0|34=40|49=GENERATOR|52=20250717-15:28:43.154|56=ACCUMULATOR|10=249|8=FIX.4.4|9=64|35=0|34=41|49=GENERATOR|52=20250717-15:29:13.532|56=ACCUMULATOR|10=248|8=FIX.4.4|9=64|35=0|34=42|49=GENERATOR|52=20250717-15:29:43.917|56=ACCUMULATOR|10=003|8=FIX.4.4|9=163|35=D|34=43|49=GENERATOR|52=20250717-15:30:08.163|56=ACCUMULATOR|11=d1a1de76-432b-49b2-bcb9-1af14ad53283|38=150|40=2|44=45.6|54=2|55=VIIA4|60=20250717-15:30:08.139|10=171|8=FIX.4.4|9=164|35=D|34=44|49=GENERATOR|52=20250717-15:30:32.769|56=ACCUMULATOR|11=d11f303f-1eb1-4baf-92b8-9b4b505be6ac|38=99999|40=2|44=999|54=1|55=VIIA4|60=20250717-15:30:32.769|10=127|8=FIX.4.4|9=164|35=D|34=45|49=GENERATOR|52=20250717-15:30:45.273|56=ACCUMULATOR|11=7de9aae0-5581-482d-9560-43d0bbf18bb6|38=99999|40=2|44=999|54=1|55=VIIA4|60=20250717-15:30:45.273|10=246|8=FIX.4.4|9=64|35=0|34=46|49=GENERATOR|52=20250717-15:31:15.555|56=ACCUMULATOR|10=253|8=FIX.4.4|9=64|35=0|34=47|49=GENERATOR|52=20250717-15:31:45.759|56=ACCUMULATOR|10=007|8=FIX.4.4|9=64|35=0|34=48|49=GENERATOR|52=20250717-15:32:15.993|56=ACCUMULATOR|10=006|8=FIX.4.4|9=64|35=0|34=49|49=GENERATOR|52=20250717-15:32:46.302|56=ACCUMULATOR|10=251|8=FIX.4.4|9=64|35=0|34=50|49=GENERATOR|52=20250717-15:33:16.533|56=ACCUMULATOR|10=247|8=FIX.4.4|9=64|35=0|34=51|49=GENERATOR|52=20250717-15:33:46.793|56=ACCUMULATOR|10=003|8=FIX.4.4|9=64|35=0|34=52|49=GENERATOR|52=20250717-15:34:17.004|56=ACCUMULATOR|10=244|8=FIX.4.4|9=64|35=0|34=53|49=GENERATOR|52=20250717-15:34:47.211|56=ACCUMULATOR|10=248|8=FIX.4.4|9=64|35=0|34=54|49=GENERATOR|52=20250717-15:35:17.478|56=ACCUMULATOR|10=006|8=FIX.4.4|9=64|35=0|34=55|49=GENERATOR|52=20250717-15:35:47.713|56=ACCUMULATOR|10=002|8=FIX.4.4|9=64|35=0|34=56|49=GENERATOR|52=20250717-15:36:17.950|56=ACCUMULATOR|10=004|8=FIX.4.4|9=64|35=0|34=57|49=GENERATOR|52=20250717-15:36:48.181|56=ACCUMULATOR|10=005|8=FIX.4.4|9=64|35=0|34=58|49=GENERATOR|52=20250717-15:37:18.373|56=ACCUMULATOR|10=007|8=FIX.4.4|9=64|35=0|34=59|49=GENERATOR|52=20250717-15:37:48.579|56=ACCUMULATOR|10=019|8=FIX.4.4|9=64|35=0|34=60|49=GENERATOR|52=20250717-15:38:18.779|56=ACCUMULATOR|10=011|8=FIX.4.4|9=64|35=0|34=61|49=GENERATOR|52=20250717-15:38:48.971|56=ACCUMULATOR|10=009|8=FIX.4.4|9=64|35=0|34=62|49=GENERATOR|52=20250717-15:39:19.249|56=ACCUMULATOR|10=007|8=FIX.4.4|9=64|35=0|34=63|49=GENERATOR|52=20250717-15:39:49.476|56=ACCUMULATOR|10=013|8=FIX.4.4|9=64|35=0|34=64|49=GENERATOR|52=20250717-15:40:19.675|56=ACCUMULATOR|10=004|8=FIX.4.4|9=64|35=0|34=65|49=GENERATOR|52=20250717-15:40:49.882|56=ACCUMULATOR|10=008|8=FIX.4.4|9=64|35=0|34=66|49=GENERATOR|52=20250717-15:41:20.159|56=ACCUMULATOR|10=252|8=FIX.4.4|9=64|35=0|34=67|49=GENERATOR|52=20250717-15:41:50.425|56=ACCUMULATOR|10=252|8=FIX.4.4|9=162|35=D|34=68|49=GENERATOR|52=20250717-15:42:06.150|56=ACCUMULATOR|11=eff0a195-1102-48af-bb31-7a2f647b1b24|38=1|40=2|44=999.9|54=1|55=VALE3|60=20250717-15:42:06.150|10=081|8=FIX.4.4|9=64|35=0|34=69|49=GENERATOR|52=20250717-15:42:36.339|56=ACCUMULATOR|10=007|