8=FIX.4.4|9=75|35=A|34=1|49=GENERATOR|52=20250716-00:00:00.841|56=ACCUMULATOR|98=0|108=30|10=221|8=FIX.4.4|9=63|35=0|34=2|49=GENERATOR|52=20250716-00:00:31.102|56=ACCUMULATOR|10=171|8=FIX.4.4|9=63|35=0|34=3|49=GENERATOR|52=20250716-00:01:01.320|56=ACCUMULATOR|10=172|8=FIX.4.4|9=63|35=0|34=4|49=GENERATOR|52=20250716-00:01:31.587|56=ACCUMULATOR|10=191|8=FIX.4.4|9=161|35=D|34=5|49=GENERATOR|52=20250716-00:01:59.269|56=ACCUMULATOR|11=b0ac987c-c54b-4db7-856f-c01f1a2e8974|38=4|40=2|44=15.44|54=2|55=VIIA4|60=20250716-00:01:59.269|10=097|8=FIX.4.4|9=63|35=0|34=6|49=GENERATOR|52=20250716-00:02:29.479|56=ACCUMULATOR|10=201|8=FIX.4.4|9=163|35=D|34=7|49=GENERATOR|52=20250716-00:02:39.899|56=ACCUMULATOR|11=efdf0d6f-c1f5-4a72-a5b5-df8972953869|38=100|40=2|44=13.44|54=2|55=VIIA4|60=20250716-00:02:39.899|10=227|8=FIX.4.4|9=63|35=0|34=8|49=GENERATOR|52=20250716-00:03:10.169|56=ACCUMULATOR|10=190|8=FIX.4.4|9=63|35=0|34=9|49=GENERATOR|52=20250716-00:03:40.424|56=ACCUMULATOR|10=188|8=FIX.4.4|9=64|35=0|34=10|49=GENERATOR|52=20250716-00:04:10.644|56=ACCUMULATOR|10=231|8=FIX.4.4|9=64|35=0|34=11|49=GENERATOR|52=20250716-00:04:40.873|56=ACCUMULATOR|10=239|8=FIX.4.4|9=64|35=0|34=12|49=GENERATOR|52=20250716-00:05:11.101|56=ACCUMULATOR|10=223|8=FIX.4.4|9=64|35=0|34=13|49=GENERATOR|52=20250716-00:05:41.343|56=ACCUMULATOR|10=235|8=FIX.4.4|9=64|35=0|34=14|49=GENERATOR|52=20250716-00:06:11.568|56=ACCUMULATOR|10=243|8=FIX.4.4|9=64|35=0|34=15|49=GENERATOR|52=20250716-00:06:41.787|56=ACCUMULATOR|10=250|8=FIX.4.4|9=64|35=0|34=16|49=GENERATOR|52=20250716-00:07:12.049|56=ACCUMULATOR|10=241|8=FIX.4.4|9=64|35=0|34=17|49=GENERATOR|52=20250716-00:07:42.256|56=ACCUMULATOR|10=245|8=FIX.4.4|9=64|35=0|34=18|49=GENERATOR|52=20250716-00:08:12.514|56=ACCUMULATOR|10=241|8=FIX.4.4|9=64|35=0|34=19|49=GENERATOR|52=20250716-00:08:42.753|56=ACCUMULATOR|10=250|8=FIX.4.4|9=64|35=0|34=20|49=GENERATOR|52=20250716-00:09:12.966|56=ACCUMULATOR|10=246|8=FIX.4.4|9=64|35=0|34=21|49=GENERATOR|52=20250716-00:09:43.193|56=ACCUMULATOR|10=243|8=FIX.4.4|9=64|35=0|34=22|49=GENERATOR|52=20250716-00:10:13.439|56=ACCUMULATOR|10=236|8=FIX.4.4|9=64|35=0|34=23|49=GENERATOR|52=20250716-00:10:43.648|56=ACCUMULATOR|10=242|