8=FIX.4.4|9=75|35=A|34=1|49=GENERATOR|52=20250713-01:34:35.568|56=ACCUMULATOR|98=0|108=30|10=240|8=FIX.4.4|9=75|35=A|34=2|49=GENERATOR|52=20250713-01:35:53.850|56=ACCUMULATOR|98=0|108=30|10=236|8=FIX.4.4|9=72|35=2|34=3|49=GENERATOR|52=20250713-01:36:00.912|56=ACCUMULATOR|7=1|16=0|10=053|8=FIX.4.4|9=159|35=D|34=4|49=GENERATOR|52=20250713-01:36:25.226|56=ACCUMULATOR|11=89aeca2f-a594-4d06-b6bb-85d75386ca5a|38=1|40=2|44=5.5|54=1|55=VALE3|60=20250712-22:36:21.022|10=021|8=FIX.4.4|9=72|35=1|34=5|49=GENERATOR|52=20250713-01:36:40.681|56=ACCUMULATOR|112=TEST|10=212|8=FIX.4.4|9=63|35=0|34=6|49=GENERATOR|52=20250713-01:37:10.786|56=ACCUMULATOR|10=198|8=FIX.4.4|9=63|35=0|34=7|49=GENERATOR|52=20250713-01:37:41.029|56=ACCUMULATOR|10=193|8=FIX.4.4|9=63|35=0|34=8|49=GENERATOR|52=20250713-01:38:11.263|56=ACCUMULATOR|10=192|8=FIX.4.4|9=63|35=0|34=9|49=GENERATOR|52=20250713-01:38:41.524|56=ACCUMULATOR|10=196|8=FIX.4.4|9=64|35=0|34=10|49=GENERATOR|52=20250713-01:39:11.811|56=ACCUMULATOR|10=234|8=FIX.4.4|9=64|35=0|34=11|49=GENERATOR|52=20250713-01:39:42.092|56=ACCUMULATOR|10=240|8=FIX.4.4|9=64|35=0|34=12|49=GENERATOR|52=20250713-01:40:12.294|56=ACCUMULATOR|10=234|8=FIX.4.4|9=76|35=A|34=13|49=GENERATOR|52=20250713-02:04:47.723|56=ACCUMULATOR|98=0|108=30|10=030|8=FIX.4.4|9=159|35=D|34=14|49=GENERATOR|52=20250713-02:04:58.940|56=ACCUMULATOR|11=4f4a6294-6f4e-4d99-907b-9e9388ece1f4|38=0|40=2|44=0|54=2|55=string|60=20250712-23:04:56.320|10=179|8=FIX.4.4|9=73|35=1|34=15|49=GENERATOR|52=20250713-02:05:28.750|56=ACCUMULATOR|112=TEST|10=006|8=FIX.4.4|9=76|35=A|34=16|49=GENERATOR|52=20250713-02:21:15.929|56=ACCUMULATOR|98=0|108=30|10=035|8=FIX.4.4|9=76|35=A|34=17|49=GENERATOR|52=20250713-02:22:34.579|56=ACCUMULATOR|98=0|108=30|10=039|8=FIX.4.4|9=76|35=A|34=18|49=GENERATOR|52=20250713-02:23:24.405|56=ACCUMULATOR|98=0|108=30|10=028|8=FIX.4.4|9=76|35=A|34=19|49=GENERATOR|52=20250713-03:51:43.723|56=ACCUMULATOR|98=0|108=30|10=035|8=FIX.4.4|9=114|35=5|34=20|49=GENERATOR|52=20250713-03:51:44.571|56=ACCUMULATOR|58=MsgSeqNum too low, expecting 19 but received 1|10=240|8=FIX.4.4|9=76|35=A|34=21|49=GENERATOR|52=20250713-03:51:48.374|56=ACCUMULATOR|98=0|108=30|10=035|8=FIX.4.4|9=114|35=5|34=22|49=GENERATOR|52=20250713-03:51:48.411|56=ACCUMULATOR|58=MsgSeqNum too low, expecting 19 but received 4|10=242|8=FIX.4.4|9=76|35=A|34=23|49=GENERATOR|52=20250713-03:51:53.755|56=ACCUMULATOR|98=0|108=30|10=036|8=FIX.4.4|9=114|35=5|34=24|49=GENERATOR|52=20250713-03:51:53.764|56=ACCUMULATOR|58=MsgSeqNum too low, expecting 19 but received 7|10=254|8=FIX.4.4|9=76|35=A|34=25|49=GENERATOR|52=20250713-03:51:58.789|56=ACCUMULATOR|98=0|108=30|10=050|8=FIX.4.4|9=115|35=5|34=26|49=GENERATOR|52=20250713-03:51:58.796|56=ACCUMULATOR|58=MsgSeqNum too low, expecting 19 but received 10|10=053|8=FIX.4.4|9=76|35=A|34=27|49=GENERATOR|52=20250713-03:52:03.822|56=ACCUMULATOR|98=0|108=30|10=031|8=FIX.4.4|9=115|35=5|34=28|49=GENERATOR|52=20250713-03:52:03.826|56=ACCUMULATOR|58=MsgSeqNum too low, expecting 19 but received 13|10=043|8=FIX.4.4|9=76|35=A|34=29|49=GENERATOR|52=20250713-03:52:11.224|56=ACCUMULATOR|98=0|108=30|10=028|8=FIX.4.4|9=115|35=5|34=30|49=GENERATOR|52=20250713-03:52:11.228|56=ACCUMULATOR|58=MsgSeqNum too low, expecting 19 but received 16|10=034|8=FIX.4.4|9=160|35=D|34=31|49=GENERATOR|52=20250713-03:52:13.839|56=ACCUMULATOR|11=a5f7c4d0-415a-4eb6-aa87-b0e49b2ac025|38=3|40=2|44=5.5|54=1|55=VALE3|60=20250713-00:52:11.221|10=039|8=FIX.4.4|9=76|35=A|34=32|49=GENERATOR|52=20250713-03:53:00.217|56=ACCUMULATOR|98=0|108=30|10=023|8=FIX.4.4|9=64|35=0|34=33|49=GENERATOR|52=20250713-03:53:32.566|56=ACCUMULATOR|10=247|8=FIX.4.4|9=64|35=0|34=34|49=GENERATOR|52=20250713-03:54:03.432|56=ACCUMULATOR|10=239|8=FIX.4.4|9=64|35=0|34=35|49=GENERATOR|52=20250713-03:54:33.713|56=ACCUMULATOR|10=245|8=FIX.4.4|9=64|35=0|34=36|49=GENERATOR|52=20250713-03:55:04.048|56=ACCUMULATOR|10=246|8=FIX.4.4|9=64|35=0|34=37|49=GENERATOR|52=20250713-03:55:34.275|56=ACCUMULATOR|10=252|8=FIX.4.4|9=64|35=0|34=38|49=GENERATOR|52=20250713-03:56:04.528|56=ACCUMULATOR|10=252|8=FIX.4.4|9=64|35=0|34=39|49=GENERATOR|52=20250713-03:56:34.763|56=ACCUMULATOR|10=001|8=FIX.4.4|9=64|35=0|34=40|49=GENERATOR|52=20250713-03:57:05.015|56=ACCUMULATOR|10=238|8=FIX.4.4|9=64|35=0|34=41|49=GENERATOR|52=20250713-03:57:35.265|56=ACCUMULATOR|10=249|8=FIX.4.4|9=64|35=0|34=42|49=GENERATOR|52=20250713-03:58:05.495|56=ACCUMULATOR|10=253|8=FIX.4.4|9=64|35=0|34=43|49=GENERATOR|52=20250713-03:58:35.687|56=ACCUMULATOR|10=004|8=FIX.4.4|9=64|35=0|34=44|49=GENERATOR|52=20250713-03:59:05.898|56=ACCUMULATOR|10=007|8=FIX.4.4|9=64|35=0|34=45|49=GENERATOR|52=20250713-03:59:36.142|56=ACCUMULATOR|10=250|8=FIX.4.4|9=64|35=0|34=46|49=GENERATOR|52=20250713-04:00:06.364|56=ACCUMULATOR|10=241|8=FIX.4.4|9=76|35=A|34=47|49=GENERATOR|52=20250713-04:14:25.220|56=ACCUMULATOR|98=0|108=30|10=028|8=FIX.4.4|9=64|35=0|34=48|49=GENERATOR|52=20250713-04:14:55.367|56=ACCUMULATOR|10=255|8=FIX.4.4|9=165|35=D|34=49|49=GENERATOR|52=20250713-04:15:18.978|56=ACCUMULATOR|11=6905c012-8274-4e32-99c5-21ef0448c503|38=900000|40=2|44=100|54=1|55=VALE3|60=20250713-01:15:15.407|10=201|8=FIX.4.4|9=64|35=0|34=50|49=GENERATOR|52=20250713-04:15:49.183|56=ACCUMULATOR|10=248|8=FIX.4.4|9=165|35=D|34=51|49=GENERATOR|52=20250713-04:16:15.979|56=ACCUMULATOR|11=e1d1f4c9-d8a7-4a35-ac98-1b627537cc18|38=200000|40=2|44=100|54=1|55=VALE3|60=20250713-01:16:15.979|10=240|8=FIX.4.4|9=64|35=0|34=52|49=GENERATOR|52=20250713-04:16:46.212|56=ACCUMULATOR|10=241|8=FIX.4.4|9=165|35=D|34=53|49=GENERATOR|52=20250713-04:16:50.819|56=ACCUMULATOR|11=c854fa7f-e11f-4ce9-a3b3-5f956b1eed6e|38=200000|40=2|44=100|54=1|55=VALE3|60=20250713-01:16:50.818|10=168|8=FIX.4.4|9=73|35=1|34=54|49=GENERATOR|52=20250713-04:17:38.812|56=ACCUMULATOR|112=TEST|10=014|8=FIX.4.4|9=73|35=0|34=55|49=GENERATOR|52=20250713-04:17:47.936|56=ACCUMULATOR|112=TEST|10=021|8=FIX.4.4|9=64|35=0|34=56|49=GENERATOR|52=20250713-04:18:18.132|56=ACCUMULATOR|10=247|8=FIX.4.4|9=64|35=0|34=57|49=GENERATOR|52=20250713-04:18:48.408|56=ACCUMULATOR|10=001|8=FIX.4.4|9=64|35=0|34=58|49=GENERATOR|52=20250713-04:19:18.599|56=ACCUMULATOR|10=011|8=FIX.4.4|9=64|35=0|34=59|49=GENERATOR|52=20250713-04:19:48.813|56=ACCUMULATOR|10=004|8=FIX.4.4|9=165|35=D|34=60|49=GENERATOR|52=20250713-04:19:51.317|56=ACCUMULATOR|11=940705e9-99ca-4632-b745-d98944a48f18|38=300000|40=2|44=500|54=1|55=VALE3|60=20250713-01:19:51.317|10=008|8=FIX.4.4|9=165|35=D|34=61|49=GENERATOR|52=20250713-04:20:16.004|56=ACCUMULATOR|11=e8feea27-c211-4960-bc13-8cb598e087da|38=300000|40=2|44=500|54=1|55=VALE3|60=20250713-01:20:16.004|10=243|