8=FIX.4.4|9=75|35=A|34=1|49=GENERATOR|52=20250713-01:34:35.568|56=ACCUMULATOR|98=0|108=30|10=240|8=FIX.4.4|9=75|35=A|34=2|49=GENERATOR|52=20250713-01:35:53.850|56=ACCUMULATOR|98=0|108=30|10=236|8=FIX.4.4|9=72|35=2|34=3|49=GENERATOR|52=20250713-01:36:00.912|56=ACCUMULATOR|7=1|16=0|10=053|8=FIX.4.4|9=159|35=D|34=4|49=GENERATOR|52=20250713-01:36:25.226|56=ACCUMULATOR|11=89aeca2f-a594-4d06-b6bb-85d75386ca5a|38=1|40=2|44=5.5|54=1|55=VALE3|60=20250712-22:36:21.022|10=021|8=FIX.4.4|9=72|35=1|34=5|49=GENERATOR|52=20250713-01:36:40.681|56=ACCUMULATOR|112=TEST|10=212|8=FIX.4.4|9=63|35=0|34=6|49=GENERATOR|52=20250713-01:37:10.786|56=ACCUMULATOR|10=198|8=FIX.4.4|9=63|35=0|34=7|49=GENERATOR|52=20250713-01:37:41.029|56=ACCUMULATOR|10=193|8=FIX.4.4|9=63|35=0|34=8|49=GENERATOR|52=20250713-01:38:11.263|56=ACCUMULATOR|10=192|8=FIX.4.4|9=63|35=0|34=9|49=GENERATOR|52=20250713-01:38:41.524|56=ACCUMULATOR|10=196|8=FIX.4.4|9=64|35=0|34=10|49=GENERATOR|52=20250713-01:39:11.811|56=ACCUMULATOR|10=234|8=FIX.4.4|9=64|35=0|34=11|49=GENERATOR|52=20250713-01:39:42.092|56=ACCUMULATOR|10=240|8=FIX.4.4|9=64|35=0|34=12|49=GENERATOR|52=20250713-01:40:12.294|56=ACCUMULATOR|10=234|8=FIX.4.4|9=76|35=A|34=13|49=GENERATOR|52=20250713-02:04:47.723|56=ACCUMULATOR|98=0|108=30|10=030|8=FIX.4.4|9=159|35=D|34=14|49=GENERATOR|52=20250713-02:04:58.940|56=ACCUMULATOR|11=4f4a6294-6f4e-4d99-907b-9e9388ece1f4|38=0|40=2|44=0|54=2|55=string|60=20250712-23:04:56.320|10=179|8=FIX.4.4|9=73|35=1|34=15|49=GENERATOR|52=20250713-02:05:28.750|56=ACCUMULATOR|112=TEST|10=006|8=FIX.4.4|9=76|35=A|34=16|49=GENERATOR|52=20250713-02:21:15.929|56=ACCUMULATOR|98=0|108=30|10=035|8=FIX.4.4|9=76|35=A|34=17|49=GENERATOR|52=20250713-02:22:34.579|56=ACCUMULATOR|98=0|108=30|10=039|8=FIX.4.4|9=76|35=A|34=18|49=GENERATOR|52=20250713-02:23:24.405|56=ACCUMULATOR|98=0|108=30|10=028|8=FIX.4.4|9=76|35=A|34=19|49=GENERATOR|52=20250713-03:51:43.723|56=ACCUMULATOR|98=0|108=30|10=035|8=FIX.4.4|9=114|35=5|34=20|49=GENERATOR|52=20250713-03:51:44.571|56=ACCUMULATOR|58=MsgSeqNum too low, expecting 19 but received 1|10=240|8=FIX.4.4|9=76|35=A|34=21|49=GENERATOR|52=20250713-03:51:48.374|56=ACCUMULATOR|98=0|108=30|10=035|8=FIX.4.4|9=114|35=5|34=22|49=GENERATOR|52=20250713-03:51:48.411|56=ACCUMULATOR|58=MsgSeqNum too low, expecting 19 but received 4|10=242|8=FIX.4.4|9=76|35=A|34=23|49=GENERATOR|52=20250713-03:51:53.755|56=ACCUMULATOR|98=0|108=30|10=036|8=FIX.4.4|9=114|35=5|34=24|49=GENERATOR|52=20250713-03:51:53.764|56=ACCUMULATOR|58=MsgSeqNum too low, expecting 19 but received 7|10=254|8=FIX.4.4|9=76|35=A|34=25|49=GENERATOR|52=20250713-03:51:58.789|56=ACCUMULATOR|98=0|108=30|10=050|8=FIX.4.4|9=115|35=5|34=26|49=GENERATOR|52=20250713-03:51:58.796|56=ACCUMULATOR|58=MsgSeqNum too low, expecting 19 but received 10|10=053|8=FIX.4.4|9=76|35=A|34=27|49=GENERATOR|52=20250713-03:52:03.822|56=ACCUMULATOR|98=0|108=30|10=031|8=FIX.4.4|9=115|35=5|34=28|49=GENERATOR|52=20250713-03:52:03.826|56=ACCUMULATOR|58=MsgSeqNum too low, expecting 19 but received 13|10=043|8=FIX.4.4|9=76|35=A|34=29|49=GENERATOR|52=20250713-03:52:11.224|56=ACCUMULATOR|98=0|108=30|10=028|8=FIX.4.4|9=115|35=5|34=30|49=GENERATOR|52=20250713-03:52:11.228|56=ACCUMULATOR|58=MsgSeqNum too low, expecting 19 but received 16|10=034|8=FIX.4.4|9=160|35=D|34=31|49=GENERATOR|52=20250713-03:52:13.839|56=ACCUMULATOR|11=a5f7c4d0-415a-4eb6-aa87-b0e49b2ac025|38=3|40=2|44=5.5|54=1|55=VALE3|60=20250713-00:52:11.221|10=039|8=FIX.4.4|9=76|35=A|34=32|49=GENERATOR|52=20250713-03:53:00.217|56=ACCUMULATOR|98=0|108=30|10=023|8=FIX.4.4|9=64|35=0|34=33|49=GENERATOR|52=20250713-03:53:32.566|56=ACCUMULATOR|10=247|8=FIX.4.4|9=64|35=0|34=34|49=GENERATOR|52=20250713-03:54:03.432|56=ACCUMULATOR|10=239|8=FIX.4.4|9=64|35=0|34=35|49=GENERATOR|52=20250713-03:54:33.713|56=ACCUMULATOR|10=245|8=FIX.4.4|9=64|35=0|34=36|49=GENERATOR|52=20250713-03:55:04.048|56=ACCUMULATOR|10=246|8=FIX.4.4|9=64|35=0|34=37|49=GENERATOR|52=20250713-03:55:34.275|56=ACCUMULATOR|10=252|8=FIX.4.4|9=64|35=0|34=38|49=GENERATOR|52=20250713-03:56:04.528|56=ACCUMULATOR|10=252|8=FIX.4.4|9=64|35=0|34=39|49=GENERATOR|52=20250713-03:56:34.763|56=ACCUMULATOR|10=001|8=FIX.4.4|9=64|35=0|34=40|49=GENERATOR|52=20250713-03:57:05.015|56=ACCUMULATOR|10=238|8=FIX.4.4|9=64|35=0|34=41|49=GENERATOR|52=20250713-03:57:35.265|56=ACCUMULATOR|10=249|8=FIX.4.4|9=64|35=0|34=42|49=GENERATOR|52=20250713-03:58:05.495|56=ACCUMULATOR|10=253|8=FIX.4.4|9=64|35=0|34=43|49=GENERATOR|52=20250713-03:58:35.687|56=ACCUMULATOR|10=004|8=FIX.4.4|9=64|35=0|34=44|49=GENERATOR|52=20250713-03:59:05.898|56=ACCUMULATOR|10=007|8=FIX.4.4|9=64|35=0|34=45|49=GENERATOR|52=20250713-03:59:36.142|56=ACCUMULATOR|10=250|8=FIX.4.4|9=64|35=0|34=46|49=GENERATOR|52=20250713-04:00:06.364|56=ACCUMULATOR|10=241|8=FIX.4.4|9=76|35=A|34=47|49=GENERATOR|52=20250713-04:14:25.220|56=ACCUMULATOR|98=0|108=30|10=028|8=FIX.4.4|9=64|35=0|34=48|49=GENERATOR|52=20250713-04:14:55.367|56=ACCUMULATOR|10=255|8=FIX.4.4|9=165|35=D|34=49|49=GENERATOR|52=20250713-04:15:18.978|56=ACCUMULATOR|11=6905c012-8274-4e32-99c5-21ef0448c503|38=900000|40=2|44=100|54=1|55=VALE3|60=20250713-01:15:15.407|10=201|8=FIX.4.4|9=64|35=0|34=50|49=GENERATOR|52=20250713-04:15:49.183|56=ACCUMULATOR|10=248|8=FIX.4.4|9=165|35=D|34=51|49=GENERATOR|52=20250713-04:16:15.979|56=ACCUMULATOR|11=e1d1f4c9-d8a7-4a35-ac98-1b627537cc18|38=200000|40=2|44=100|54=1|55=VALE3|60=20250713-01:16:15.979|10=240|8=FIX.4.4|9=64|35=0|34=52|49=GENERATOR|52=20250713-04:16:46.212|56=ACCUMULATOR|10=241|8=FIX.4.4|9=165|35=D|34=53|49=GENERATOR|52=20250713-04:16:50.819|56=ACCUMULATOR|11=c854fa7f-e11f-4ce9-a3b3-5f956b1eed6e|38=200000|40=2|44=100|54=1|55=VALE3|60=20250713-01:16:50.818|10=168|8=FIX.4.4|9=73|35=1|34=54|49=GENERATOR|52=20250713-04:17:38.812|56=ACCUMULATOR|112=TEST|10=014|8=FIX.4.4|9=73|35=0|34=55|49=GENERATOR|52=20250713-04:17:47.936|56=ACCUMULATOR|112=TEST|10=021|8=FIX.4.4|9=64|35=0|34=56|49=GENERATOR|52=20250713-04:18:18.132|56=ACCUMULATOR|10=247|8=FIX.4.4|9=64|35=0|34=57|49=GENERATOR|52=20250713-04:18:48.408|56=ACCUMULATOR|10=001|8=FIX.4.4|9=64|35=0|34=58|49=GENERATOR|52=20250713-04:19:18.599|56=ACCUMULATOR|10=011|8=FIX.4.4|9=64|35=0|34=59|49=GENERATOR|52=20250713-04:19:48.813|56=ACCUMULATOR|10=004|8=FIX.4.4|9=165|35=D|34=60|49=GENERATOR|52=20250713-04:19:51.317|56=ACCUMULATOR|11=940705e9-99ca-4632-b745-d98944a48f18|38=300000|40=2|44=500|54=1|55=VALE3|60=20250713-01:19:51.317|10=008|8=FIX.4.4|9=165|35=D|34=61|49=GENERATOR|52=20250713-04:20:16.004|56=ACCUMULATOR|11=e8feea27-c211-4960-bc13-8cb598e087da|38=300000|40=2|44=500|54=1|55=VALE3|60=20250713-01:20:16.004|10=243|8=FIX.4.4|9=76|35=A|34=62|49=GENERATOR|52=20250713-12:54:39.614|56=ACCUMULATOR|98=0|108=30|10=040|8=FIX.4.4|9=114|35=5|34=63|49=GENERATOR|52=20250713-12:54:40.141|56=ACCUMULATOR|58=MsgSeqNum too low, expecting 51 but received 1|10=235|8=FIX.4.4|9=76|35=A|34=64|49=GENERATOR|52=20250713-12:54:44.346|56=ACCUMULATOR|98=0|108=30|10=040|8=FIX.4.4|9=114|35=5|34=65|49=GENERATOR|52=20250713-12:54:44.352|56=ACCUMULATOR|58=MsgSeqNum too low, expecting 51 but received 4|10=248|8=FIX.4.4|9=76|35=A|34=66|49=GENERATOR|52=20250713-12:54:49.395|56=ACCUMULATOR|98=0|108=30|10=051|8=FIX.4.4|9=114|35=5|34=67|49=GENERATOR|52=20250713-12:54:49.415|56=ACCUMULATOR|58=MsgSeqNum too low, expecting 51 but received 7|10=002|8=FIX.4.4|9=76|35=A|34=68|49=GENERATOR|52=20250713-12:54:54.438|56=ACCUMULATOR|98=0|108=30|10=047|8=FIX.4.4|9=114|35=5|34=69|49=GENERATOR|52=20250713-12:54:54.444|56=ACCUMULATOR|58=MsgSeqNum too low, expecting 51 but received 9|10=004|8=FIX.4.4|9=76|35=A|34=70|49=GENERATOR|52=20250713-12:54:59.462|56=ACCUMULATOR|98=0|108=30|10=042|8=FIX.4.4|9=115|35=5|34=71|49=GENERATOR|52=20250713-12:54:59.467|56=ACCUMULATOR|58=MsgSeqNum too low, expecting 51 but received 12|10=050|8=FIX.4.4|9=76|35=A|34=72|49=GENERATOR|52=20250713-12:55:04.497|56=ACCUMULATOR|98=0|108=30|10=043|8=FIX.4.4|9=115|35=5|34=73|49=GENERATOR|52=20250713-12:55:04.503|56=ACCUMULATOR|58=MsgSeqNum too low, expecting 51 but received 15|10=037|8=FIX.4.4|9=76|35=A|34=74|49=GENERATOR|52=20250713-12:55:09.539|56=ACCUMULATOR|98=0|108=30|10=047|8=FIX.4.4|9=115|35=5|34=75|49=GENERATOR|52=20250713-12:55:09.544|56=ACCUMULATOR|58=MsgSeqNum too low, expecting 51 but received 18|10=052|8=FIX.4.4|9=148|35=D|34=76|49=GENERATOR|52=20250713-12:55:13.288|56=ACCUMULATOR|11=8acbc973-389c-4869-a62f-dbe7f0ca0baa|40=2|54=1|55=VIIA4|60=20250713-09:55:13.281|10=170|8=FIX.4.4|9=76|35=A|34=77|49=GENERATOR|52=20250713-12:55:14.581|56=ACCUMULATOR|98=0|108=30|10=043|8=FIX.4.4|9=115|35=5|34=78|49=GENERATOR|52=20250713-12:55:14.584|56=ACCUMULATOR|58=MsgSeqNum too low, expecting 51 but received 21|10=049|8=FIX.4.4|9=76|35=A|34=79|49=GENERATOR|52=20250713-12:55:19.620|56=ACCUMULATOR|98=0|108=30|10=044|8=FIX.4.4|9=115|35=5|34=80|49=GENERATOR|52=20250713-12:55:19.624|56=ACCUMULATOR|58=MsgSeqNum too low, expecting 51 but received 24|10=045|8=FIX.4.4|9=76|35=A|34=81|49=GENERATOR|52=20250713-12:55:24.657|56=ACCUMULATOR|98=0|108=30|10=043|8=FIX.4.4|9=115|35=5|34=82|49=GENERATOR|52=20250713-12:55:24.665|56=ACCUMULATOR|58=MsgSeqNum too low, expecting 51 but received 27|10=051|8=FIX.4.4|9=76|35=A|34=83|49=GENERATOR|52=20250713-12:55:29.707|56=ACCUMULATOR|98=0|108=30|10=046|8=FIX.4.4|9=115|35=5|34=84|49=GENERATOR|52=20250713-12:55:29.719|56=ACCUMULATOR|58=MsgSeqNum too low, expecting 51 but received 30|10=052|8=FIX.4.4|9=76|35=A|34=85|49=GENERATOR|52=20250713-12:55:34.727|56=ACCUMULATOR|98=0|108=30|10=046|8=FIX.4.4|9=115|35=5|34=86|49=GENERATOR|52=20250713-12:55:34.733|56=ACCUMULATOR|58=MsgSeqNum too low, expecting 51 but received 33|10=049|8=FIX.4.4|9=76|35=A|34=87|49=GENERATOR|52=20250713-12:55:39.770|56=ACCUMULATOR|98=0|108=30|10=051|8=FIX.4.4|9=115|35=5|34=88|49=GENERATOR|52=20250713-12:55:39.775|56=ACCUMULATOR|58=MsgSeqNum too low, expecting 51 but received 36|10=065|8=FIX.4.4|9=76|35=A|34=89|49=GENERATOR|52=20250713-12:55:44.793|56=ACCUMULATOR|98=0|108=30|10=054|8=FIX.4.4|9=115|35=5|34=90|49=GENERATOR|52=20250713-12:55:44.799|56=ACCUMULATOR|58=MsgSeqNum too low, expecting 51 but received 39|10=063|8=FIX.4.4|9=76|35=A|34=91|49=GENERATOR|52=20250713-12:58:46.719|56=ACCUMULATOR|98=0|108=30|10=050|8=FIX.4.4|9=115|35=5|34=92|49=GENERATOR|52=20250713-12:58:47.344|56=ACCUMULATOR|58=MsgSeqNum too low, expecting 51 but received 42|10=051|8=FIX.4.4|9=76|35=A|34=93|49=GENERATOR|52=20250713-12:58:51.495|56=ACCUMULATOR|98=0|108=30|10=049|8=FIX.4.4|9=115|35=5|34=94|49=GENERATOR|52=20250713-12:58:51.505|56=ACCUMULATOR|58=MsgSeqNum too low, expecting 51 but received 45|10=050|8=FIX.4.4|9=76|35=A|34=95|49=GENERATOR|52=20250713-12:58:56.538|56=ACCUMULATOR|98=0|108=30|10=054|8=FIX.4.4|9=115|35=5|34=96|49=GENERATOR|52=20250713-12:58:56.556|56=ACCUMULATOR|58=MsgSeqNum too low, expecting 51 but received 48|10=066|8=FIX.4.4|9=76|35=A|34=97|49=GENERATOR|52=20250713-12:59:01.594|56=ACCUMULATOR|98=0|108=30|10=049|8=FIX.4.4|9=64|35=0|34=98|49=GENERATOR|52=20250713-12:59:32.074|56=ACCUMULATOR|10=002|8=FIX.4.4|9=76|35=A|34=99|49=GENERATOR|52=20250713-13:00:19.248|56=ACCUMULATOR|98=0|108=30|10=043|8=FIX.4.4|9=159|35=D|34=100|49=GENERATOR|52=20250713-13:00:39.573|56=ACCUMULATOR|11=34188e6d-211c-4340-aa00-03688a8a97f0|38=500000|40=2|54=1|55=VIIA4|60=20250713-10:00:39.560|10=255|8=FIX.4.4|9=65|35=0|34=101|49=GENERATOR|52=20250713-13:01:09.931|56=ACCUMULATOR|10=030|8=FIX.4.4|9=159|35=D|34=102|49=GENERATOR|52=20250713-13:01:31.380|56=ACCUMULATOR|11=36f2ec00-cb01-4a28-a8b5-23a9b9b874dc|38=500000|40=2|54=1|55=VIIA4|60=20250713-10:01:31.380|10=223|8=FIX.4.4|9=65|35=0|34=103|49=GENERATOR|52=20250713-13:02:01.601|56=ACCUMULATOR|10=019|8=FIX.4.4|9=65|35=0|34=104|49=GENERATOR|52=20250713-13:02:31.818|56=ACCUMULATOR|10=033|8=FIX.4.4|9=77|35=A|34=105|49=GENERATOR|52=20250713-13:02:53.897|56=ACCUMULATOR|98=0|108=30|10=090|8=FIX.4.4|9=65|35=0|34=106|49=GENERATOR|52=20250713-13:03:24.571|56=ACCUMULATOR|10=034|8=FIX.4.4|9=169|35=D|34=107|49=GENERATOR|52=20250713-13:03:34.806|56=ACCUMULATOR|11=41cdd59f-00f5-4a85-9397-159ba51e0cf3|38=500000|40=2|44=250.00|54=1|55=VIIA4|60=20250713-10:03:34.788|10=123|8=FIX.4.4|9=65|35=0|34=108|49=GENERATOR|52=20250713-13:04:05.105|56=ACCUMULATOR|10=029|8=FIX.4.4|9=65|35=0|34=109|49=GENERATOR|52=20250713-13:04:35.340|56=ACCUMULATOR|10=034|8=FIX.4.4|9=65|35=0|34=110|49=GENERATOR|52=20250713-13:05:05.552|56=ACCUMULATOR|10=029|8=FIX.4.4|9=77|35=A|34=111|49=GENERATOR|52=20250713-13:07:03.045|56=ACCUMULATOR|98=0|108=30|10=072|8=FIX.4.4|9=169|35=D|34=112|49=GENERATOR|52=20250713-13:07:19.211|56=ACCUMULATOR|11=983afd44-84b6-4775-afed-f711d3f01892|38=500000|40=2|44=250.00|54=1|55=VIIA4|60=20250713-10:07:19.205|10=119|8=FIX.4.4|9=74|35=1|34=113|49=GENERATOR|52=20250713-13:07:45.654|56=ACCUMULATOR|112=TEST|10=060|8=FIX.4.4|9=65|35=0|34=114|49=GENERATOR|52=20250713-13:08:16.221|56=ACCUMULATOR|10=031|8=FIX.4.4|9=74|35=0|34=115|49=GENERATOR|52=20250713-13:08:16.669|56=ACCUMULATOR|112=TEST|10=066|8=FIX.4.4|9=65|35=0|34=116|49=GENERATOR|52=20250713-13:08:47.170|56=ACCUMULATOR|10=040|8=FIX.4.4|9=77|35=A|34=117|49=GENERATOR|52=20250713-13:09:34.367|56=ACCUMULATOR|98=0|108=30|10=091|8=FIX.4.4|9=169|35=D|34=118|49=GENERATOR|52=20250713-13:09:48.434|56=ACCUMULATOR|11=2c9ef2fb-d2f0-4bf1-bc3e-002d72b58bf0|38=500000|40=2|44=250.00|54=1|55=VIIA4|60=20250713-10:09:48.427|10=095|8=FIX.4.4|9=65|35=0|34=119|49=GENERATOR|52=20250713-13:10:18.854|56=ACCUMULATOR|10=043|8=FIX.4.4|9=169|35=D|34=120|49=GENERATOR|52=20250713-13:10:26.105|56=ACCUMULATOR|11=3a3b7771-8527-40de-b819-ef6c2e80e738|38=500000|40=2|44=250.00|54=1|55=VIIA4|60=20250713-10:10:26.105|10=053|8=FIX.4.4|9=65|35=0|34=121|49=GENERATOR|52=20250713-13:10:56.719|56=ACCUMULATOR|10=038|8=FIX.4.4|9=77|35=A|34=122|49=GENERATOR|52=20250713-13:15:15.401|56=ACCUMULATOR|98=0|108=30|10=072|8=FIX.4.4|9=169|35=D|34=123|49=GENERATOR|52=20250713-13:15:27.952|56=ACCUMULATOR|11=68cd9ff9-9732-4110-92c0-e00ca4dd3bce|38=500000|40=2|44=250.00|54=1|55=VIIA4|60=20250713-10:15:27.947|10=218|8=FIX.4.4|9=65|35=0|34=124|49=GENERATOR|52=20250713-13:15:58.104|56=ACCUMULATOR|10=036|8=FIX.4.4|9=169|35=D|34=125|49=GENERATOR|52=20250713-13:16:13.481|56=ACCUMULATOR|11=1f3a6cf1-7e99-41d7-af15-52ad0b46188f|38=500000|40=2|44=250.00|54=1|55=VIIA4|60=20250713-10:16:13.481|10=161|8=FIX.4.4|9=65|35=0|34=126|49=GENERATOR|52=20250713-13:16:43.710|56=ACCUMULATOR|10=036|8=FIX.4.4|9=65|35=0|34=127|49=GENERATOR|52=20250713-13:17:13.901|56=ACCUMULATOR|10=037|8=FIX.4.4|9=77|35=A|34=128|49=GENERATOR|52=20250713-13:19:08.798|56=ACCUMULATOR|98=0|108=30|10=103|8=FIX.4.4|9=169|35=D|34=129|49=GENERATOR|52=20250713-13:19:19.051|56=ACCUMULATOR|11=cd5bbcaa-3d0d-4036-aac0-1fcf5c75abf2|38=500000|40=2|44=250.00|54=1|55=VIIA4|60=20250713-10:19:19.045|10=216|8=FIX.4.4|9=65|35=0|34=130|49=GENERATOR|52=20250713-13:19:49.188|56=ACCUMULATOR|10=049|8=FIX.4.4|9=65|35=0|34=131|49=GENERATOR|52=20250713-13:20:20.151|56=ACCUMULATOR|10=021|8=FIX.4.4|9=65|35=0|34=132|49=GENERATOR|52=20250713-13:20:50.255|56=ACCUMULATOR|10=030|8=FIX.4.4|9=169|35=D|34=133|49=GENERATOR|52=20250713-13:20:57.656|56=ACCUMULATOR|11=780ff355-711e-4f82-bf13-64660eecd5c0|38=500000|40=2|44=250.00|54=1|55=VIIA4|60=20250713-10:20:57.656|10=126|8=FIX.4.4|9=77|35=A|34=134|49=GENERATOR|52=20250713-13:24:32.984|56=ACCUMULATOR|98=0|108=30|10=090|8=FIX.4.4|9=65|35=0|34=135|49=GENERATOR|52=20250713-13:25:03.788|56=ACCUMULATOR|10=047|8=FIX.4.4|9=65|35=0|34=136|49=GENERATOR|52=20250713-13:25:34.019|56=ACCUMULATOR|10=039|8=FIX.4.4|9=65|35=0|34=137|49=GENERATOR|52=20250713-13:26:04.254|56=ACCUMULATOR|10=039|8=FIX.4.4|9=77|35=A|34=138|49=GENERATOR|52=20250713-13:26:33.643|56=ACCUMULATOR|98=0|108=30|10=089|8=FIX.4.4|9=169|35=D|34=139|49=GENERATOR|52=20250713-13:27:01.923|56=ACCUMULATOR|11=da4bdb73-7947-4053-b42a-9fa41c2dbfd8|38=500000|40=2|44=250.00|54=1|55=VIIA4|60=20250713-10:27:01.913|10=253|8=FIX.4.4|9=77|35=A|34=140|49=GENERATOR|52=20250713-13:27:49.914|56=ACCUMULATOR|98=0|108=30|10=091|8=FIX.4.4|9=169|35=D|34=141|49=GENERATOR|52=20250713-13:28:15.683|56=ACCUMULATOR|11=ba3ce4d1-df4b-4583-8333-b8a12a25b4ae|38=500000|40=2|44=250.00|54=1|55=VIIA4|60=20250713-10:28:15.661|10=246|8=FIX.4.4|9=65|35=0|34=142|49=GENERATOR|52=20250713-13:28:45.988|56=ACCUMULATOR|10=056|8=FIX.4.4|9=65|35=0|34=143|49=GENERATOR|52=20250713-13:29:16.266|56=ACCUMULATOR|10=045|8=FIX.4.4|9=65|35=0|34=144|49=GENERATOR|52=20250713-13:29:46.459|56=ACCUMULATOR|10=053|8=FIX.4.4|9=65|35=0|34=145|49=GENERATOR|52=20250713-13:30:16.673|56=ACCUMULATOR|10=041|8=FIX.4.4|9=65|35=0|34=146|49=GENERATOR|52=20250713-13:30:46.873|56=ACCUMULATOR|10=047|8=FIX.4.4|9=65|35=0|34=147|49=GENERATOR|52=20250713-13:31:17.098|56=ACCUMULATOR|10=046|8=FIX.4.4|9=77|35=A|34=148|49=GENERATOR|52=20250713-13:32:35.367|56=ACCUMULATOR|98=0|108=30|10=092|8=FIX.4.4|9=169|35=D|34=149|49=GENERATOR|52=20250713-13:32:49.497|56=ACCUMULATOR|11=8e0b8ca0-a43c-4940-8952-1836b7682c4f|38=500000|40=2|44=250.00|54=1|55=VIIA4|60=20250713-13:32:49.490|10=049|8=FIX.4.4|9=65|35=0|34=150|49=GENERATOR|52=20250713-13:33:19.724|56=ACCUMULATOR|10=040|8=FIX.4.4|9=65|35=0|34=151|49=GENERATOR|52=20250713-13:33:49.917|56=ACCUMULATOR|10=048|8=FIX.4.4|9=65|35=0|34=152|49=GENERATOR|52=20250713-13:34:20.119|56=ACCUMULATOR|10=033|8=FIX.4.4|9=77|35=A|34=153|49=GENERATOR|52=20250713-13:35:25.160|56=ACCUMULATOR|98=0|108=30|10=081|8=FIX.4.4|9=169|35=D|34=154|49=GENERATOR|52=20250713-13:35:48.238|56=ACCUMULATOR|11=6f90916a-71dc-42bc-83af-ac27f0589e53|38=500000|40=2|44=250.00|54=1|55=VIIA4|60=20250713-13:35:48.228|10=186|8=FIX.4.4|9=65|35=0|34=155|49=GENERATOR|52=20250713-13:36:18.528|56=ACCUMULATOR|10=049|8=FIX.4.4|9=163|35=D|34=156|49=GENERATOR|52=20250713-13:36:41.437|56=ACCUMULATOR|11=7981dffd-d625-4609-8e0c-6c1c70b3baa9|38=1000|40=2|44=50|54=1|55=VALE3|60=20250713-13:36:41.437|10=182|8=FIX.4.4|9=65|35=0|34=157|49=GENERATOR|52=20250713-13:37:11.668|56=ACCUMULATOR|10=050|8=FIX.4.4|9=65|35=0|34=158|49=GENERATOR|52=20250713-13:37:41.869|56=ACCUMULATOR|10=057|8=FIX.4.4|9=77|35=A|34=159|49=GENERATOR|52=20250713-13:38:16.870|56=ACCUMULATOR|98=0|108=30|10=098|8=FIX.4.4|9=163|35=D|34=160|49=GENERATOR|52=20250713-13:38:32.075|56=ACCUMULATOR|11=3cc36d13-44f1-4f57-8878-c2db6a5e7e1f|38=1000|40=2|44=50|54=1|55=VALE3|60=20250713-13:38:32.068|10=137|8=FIX.4.4|9=65|35=0|34=161|49=GENERATOR|52=20250713-13:39:02.373|56=ACCUMULATOR|10=040|8=FIX.4.4|9=163|35=D|34=162|49=GENERATOR|52=20250713-13:39:16.974|56=ACCUMULATOR|11=e9590ce1-1fa3-4e7e-bc41-711a4cd9ceca|38=1000|40=2|44=50|54=1|55=VALE3|60=20250713-13:39:16.974|10=075|8=FIX.4.4|9=65|35=0|34=163|49=GENERATOR|52=20250713-13:39:47.200|56=ACCUMULATOR|10=040|8=FIX.4.4|9=163|35=D|34=164|49=GENERATOR|52=20250713-13:39:53.887|56=ACCUMULATOR|11=c197b5cf-939e-4310-a02e-e2182431685a|38=1000|40=2|44=50|54=1|55=VALE3|60=20250713-13:39:53.887|10=008|8=FIX.4.4|9=163|35=D|34=165|49=GENERATOR|52=20250713-13:40:14.351|56=ACCUMULATOR|11=f5b02d8c-ca49-4ca9-bc13-f28c810b9442|38=1000|40=2|44=50|54=1|55=VALE3|60=20250713-13:40:10.827|10=153|8=FIX.4.4|9=77|35=A|34=166|49=GENERATOR|52=20250713-13:48:11.722|56=ACCUMULATOR|98=0|108=30|10=088|8=FIX.4.4|9=74|35=1|34=167|49=GENERATOR|52=20250713-13:48:48.473|56=ACCUMULATOR|112=TEST|10=076|8=FIX.4.4|9=163|35=D|34=168|49=GENERATOR|52=20250713-13:48:48.481|56=ACCUMULATOR|11=cde9f9af-35d9-4f0a-a061-fdcb7381ddca|38=1000|40=2|44=50|54=1|55=VALE3|60=20250713-13:48:25.333|10=172|8=FIX.4.4|9=74|35=0|34=169|49=GENERATOR|52=20250713-13:48:48.481|56=ACCUMULATOR|112=TEST|10=076|8=FIX.4.4|9=65|35=0|34=170|49=GENERATOR|52=20250713-13:49:18.724|56=ACCUMULATOR|10=048|